{"abi":[{"type":"constructor","inputs":[{"name":"_kernel","type":"address","internalType":"contract Kernel"},{"name":"_name","type":"string","internalType":"string"},{"name":"_symbol","type":"string","internalType":"string"},{"name":"_decimals","type":"uint8","internalType":"uint8"},{"name":"_factory","type":"address","internalType":"address"},{"name":"_reserve","type":"address","internalType":"address"},{"name":"_feeTier","type":"uint24","internalType":"uint24"},{"name":"_initialActiveTick","type":"int24","internalType":"int24"},{"name":"_blast","type":"address","internalType":"address"},{"name":"_blastGovernor","type":"address","internalType":"address"}],"stateMutability":"nonpayable"},{"type":"function","name":"DOMAIN_SEPARATOR","inputs":[],"outputs":[{"name":"","type":"bytes32","internalType":"bytes32"}],"stateMutability":"view"},{"type":"function","name":"FEE_TIER","inputs":[],"outputs":[{"name":"","type":"uint24","internalType":"uint24"}],"stateMutability":"view"},{"type":"function","name":"INIT","inputs":[],"outputs":[],"stateMutability":"nonpayable"},{"type":"function","name":"KEYCODE","inputs":[],"outputs":[{"name":"","type":"bytes5","internalType":"Keycode"}],"stateMutability":"pure"},{"type":"function","name":"TICK_SPACING","inputs":[],"outputs":[{"name":"","type":"int24","internalType":"int24"}],"stateMutability":"view"},{"type":"function","name":"VERSION","inputs":[],"outputs":[{"name":"major","type":"uint8","internalType":"uint8"},{"name":"minor","type":"uint8","internalType":"uint8"}],"stateMutability":"pure"},{"type":"function","name":"addLiquidityTo","inputs":[{"name":"_range","type":"uint8","internalType":"enum Range"},{"name":"_liquidity","type":"uint128","internalType":"uint128"}],"outputs":[{"name":"bAssetsAdded_","type":"uint256","internalType":"uint256"},{"name":"reservesAdded_","type":"uint256","internalType":"uint256"},{"name":"liquidityFinal_","type":"uint128","internalType":"uint128"}],"stateMutability":"nonpayable"},{"type":"function","name":"addReservesTo","inputs":[{"name":"_range","type":"uint8","internalType":"enum Range"},{"name":"_reserves","type":"uint256","internalType":"uint256"}],"outputs":[{"name":"bAssetsAdded_","type":"uint256","internalType":"uint256"},{"name":"reservesAdded_","type":"uint256","internalType":"uint256"},{"name":"liquidityFinal_","type":"uint128","internalType":"uint128"}],"stateMutability":"nonpayable"},{"type":"function","name":"allowance","inputs":[{"name":"","type":"address","internalType":"address"},{"name":"","type":"address","internalType":"address"}],"outputs":[{"name":"","type":"uint256","internalType":"uint256"}],"stateMutability":"view"},{"type":"function","name":"approve","inputs":[{"name":"spender","type":"address","internalType":"address"},{"name":"amount","type":"uint256","internalType":"uint256"}],"outputs":[{"name":"","type":"bool","internalType":"bool"}],"stateMutability":"nonpayable"},{"type":"function","name":"balanceOf","inputs":[{"name":"","type":"address","internalType":"address"}],"outputs":[{"name":"","type":"uint256","internalType":"uint256"}],"stateMutability":"view"},{"type":"function","name":"burnAllBAssetsInContract","inputs":[],"outputs":[],"stateMutability":"nonpayable"},{"type":"function","name":"changeKernel","inputs":[{"name":"newKernel_","type":"address","internalType":"contract Kernel"}],"outputs":[],"stateMutability":"nonpayable"},{"type":"function","name":"decimals","inputs":[],"outputs":[{"name":"","type":"uint8","internalType":"uint8"}],"stateMutability":"view"},{"type":"function","name":"getActiveTS","inputs":[],"outputs":[{"name":"activeTS_","type":"int24","internalType":"int24"}],"stateMutability":"view"},{"type":"function","name":"getBalancesForLiquidity","inputs":[{"name":"_sqrtPriceL","type":"uint160","internalType":"uint160"},{"name":"_sqrtPriceU","type":"uint160","internalType":"uint160"},{"name":"_liquidity","type":"uint128","internalType":"uint128"}],"outputs":[{"name":"bAssets_","type":"uint256","internalType":"uint256"},{"name":"reserves_","type":"uint256","internalType":"uint256"}],"stateMutability":"view"},{"type":"function","name":"getBaselineValue","inputs":[],"outputs":[{"name":"","type":"uint256","internalType":"uint256"}],"stateMutability":"view"},{"type":"function","name":"getCapacityForLiquidity","inputs":[{"name":"_sqrtPriceL","type":"uint160","internalType":"uint160"},{"name":"_sqrtPriceU","type":"uint160","internalType":"uint160"},{"name":"_liquidity","type":"uint128","internalType":"uint128"},{"name":"_sqrtPriceA","type":"uint160","internalType":"uint160"}],"outputs":[{"name":"capacity_","type":"uint256","internalType":"uint256"}],"stateMutability":"pure"},{"type":"function","name":"getCapacityForReserves","inputs":[{"name":"_sqrtPriceL","type":"uint160","internalType":"uint160"},{"name":"_sqrtPriceU","type":"uint160","internalType":"uint160"},{"name":"_reserves","type":"uint256","internalType":"uint256"}],"outputs":[{"name":"capacity_","type":"uint256","internalType":"uint256"}],"stateMutability":"view"},{"type":"function","name":"getCapacityForReservesAtPrice","inputs":[{"name":"_sqrtPriceL","type":"uint160","internalType":"uint160"},{"name":"_sqrtPriceU","type":"uint160","internalType":"uint160"},{"name":"_reserves","type":"uint256","internalType":"uint256"},{"name":"_targetSqrtPrice","type":"uint160","internalType":"uint160"}],"outputs":[{"name":"capacity_","type":"uint256","internalType":"uint256"}],"stateMutability":"pure"},{"type":"function","name":"getLiquidity","inputs":[{"name":"","type":"uint8","internalType":"enum Range"}],"outputs":[{"name":"","type":"uint128","internalType":"uint128"}],"stateMutability":"view"},{"type":"function","name":"getLiquidityForReserves","inputs":[{"name":"_sqrtPriceL","type":"uint160","internalType":"uint160"},{"name":"_sqrtPriceU","type":"uint160","internalType":"uint160"},{"name":"_reserves","type":"uint256","internalType":"uint256"},{"name":"_sqrtPriceA","type":"uint160","internalType":"uint160"}],"outputs":[{"name":"liquidity_","type":"uint128","internalType":"uint128"}],"stateMutability":"pure"},{"type":"function","name":"getPosition","inputs":[{"name":"_range","type":"uint8","internalType":"enum Range"}],"outputs":[{"name":"position_","type":"tuple","internalType":"struct Position","components":[{"name":"liquidity","type":"uint128","internalType":"uint128"},{"name":"sqrtPriceL","type":"uint160","internalType":"uint160"},{"name":"sqrtPriceU","type":"uint160","internalType":"uint160"},{"name":"bAssets","type":"uint256","internalType":"uint256"},{"name":"reserves","type":"uint256","internalType":"uint256"},{"name":"capacity","type":"uint256","internalType":"uint256"}]}],"stateMutability":"view"},{"type":"function","name":"getTicks","inputs":[{"name":"","type":"uint8","internalType":"enum Range"}],"outputs":[{"name":"lower","type":"int24","internalType":"int24"},{"name":"upper","type":"int24","internalType":"int24"}],"stateMutability":"view"},{"type":"function","name":"kernel","inputs":[],"outputs":[{"name":"","type":"address","internalType":"contract Kernel"}],"stateMutability":"view"},{"type":"function","name":"locked","inputs":[],"outputs":[{"name":"","type":"bool","internalType":"bool"}],"stateMutability":"view"},{"type":"function","name":"mint","inputs":[{"name":"_to","type":"address","internalType":"address"},{"name":"_amount","type":"uint256","internalType":"uint256"}],"outputs":[],"stateMutability":"nonpayable"},{"type":"function","name":"name","inputs":[],"outputs":[{"name":"","type":"string","internalType":"string"}],"stateMutability":"view"},{"type":"function","name":"nonces","inputs":[{"name":"","type":"address","internalType":"address"}],"outputs":[{"name":"","type":"uint256","internalType":"uint256"}],"stateMutability":"view"},{"type":"function","name":"permit","inputs":[{"name":"owner","type":"address","internalType":"address"},{"name":"spender","type":"address","internalType":"address"},{"name":"value","type":"uint256","internalType":"uint256"},{"name":"deadline","type":"uint256","internalType":"uint256"},{"name":"v","type":"uint8","internalType":"uint8"},{"name":"r","type":"bytes32","internalType":"bytes32"},{"name":"s","type":"bytes32","internalType":"bytes32"}],"outputs":[],"stateMutability":"nonpayable"},{"type":"function","name":"pool","inputs":[],"outputs":[{"name":"","type":"address","internalType":"contract IUniswapV3Pool"}],"stateMutability":"view"},{"type":"function","name":"removeAllFrom","inputs":[{"name":"_range","type":"uint8","internalType":"enum Range"}],"outputs":[{"name":"bAssetsRemoved_","type":"uint256","internalType":"uint256"},{"name":"bAssetFees_","type":"uint256","internalType":"uint256"},{"name":"reservesRemoved_","type":"uint256","internalType":"uint256"},{"name":"reserveFees_","type":"uint256","internalType":"uint256"}],"stateMutability":"nonpayable"},{"type":"function","name":"reserve","inputs":[],"outputs":[{"name":"","type":"address","internalType":"contract ERC20"}],"stateMutability":"view"},{"type":"function","name":"setTicks","inputs":[{"name":"_range","type":"uint8","internalType":"enum Range"},{"name":"_lower","type":"int24","internalType":"int24"},{"name":"_upper","type":"int24","internalType":"int24"}],"outputs":[],"stateMutability":"nonpayable"},{"type":"function","name":"setTransferLock","inputs":[{"name":"_lock","type":"bool","internalType":"bool"}],"outputs":[],"stateMutability":"nonpayable"},{"type":"function","name":"symbol","inputs":[],"outputs":[{"name":"","type":"string","internalType":"string"}],"stateMutability":"view"},{"type":"function","name":"totalSupply","inputs":[],"outputs":[{"name":"","type":"uint256","internalType":"uint256"}],"stateMutability":"view"},{"type":"function","name":"transfer","inputs":[{"name":"_to","type":"address","internalType":"address"},{"name":"_amount","type":"uint256","internalType":"uint256"}],"outputs":[{"name":"","type":"bool","internalType":"bool"}],"stateMutability":"nonpayable"},{"type":"function","name":"transferFrom","inputs":[{"name":"_from","type":"address","internalType":"address"},{"name":"_to","type":"address","internalType":"address"},{"name":"_amount","type":"uint256","internalType":"uint256"}],"outputs":[{"name":"","type":"bool","internalType":"bool"}],"stateMutability":"nonpayable"},{"type":"function","name":"uniswapV3MintCallback","inputs":[{"name":"_bAssetsOwed","type":"uint256","internalType":"uint256"},{"name":"_reservesOwed","type":"uint256","internalType":"uint256"},{"name":"_data","type":"bytes","internalType":"bytes"}],"outputs":[],"stateMutability":"nonpayable"},{"type":"event","name":"Approval","inputs":[{"name":"owner","type":"address","indexed":true,"internalType":"address"},{"name":"spender","type":"address","indexed":true,"internalType":"address"},{"name":"amount","type":"uint256","indexed":false,"internalType":"uint256"}],"anonymous":false},{"type":"event","name":"Transfer","inputs":[{"name":"from","type":"address","indexed":true,"internalType":"address"},{"name":"to","type":"address","indexed":true,"internalType":"address"},{"name":"amount","type":"uint256","indexed":false,"internalType":"uint256"}],"anonymous":false},{"type":"error","name":"InvalidAction","inputs":[]},{"type":"error","name":"InvalidCaller","inputs":[]},{"type":"error","name":"InvalidTickRange","inputs":[]},{"type":"error","name":"KernelAdapter_OnlyKernel","inputs":[{"name":"caller_","type":"address","internalType":"address"}]},{"type":"error","name":"Module_PolicyNotPermitted","inputs":[{"name":"policy_","type":"address","internalType":"address"}]},{"type":"error","name":"T","inputs":[]},{"type":"error","name":"TransferLocked","inputs":[]}],"bytecode":{"object":"0x6101606040523480156200001257600080fd5b50604051620040be380380620040be8339810160408190526200003591620007ac565b600080546001600160a01b0319166001600160a01b038c1617905588888860016200006184826200093b565b5060026200007083826200093b565b5060ff81166080524660a0526200008662000241565b60c0525050506001600160a01b038581166101405262ffffff85166101008190526040516322afcccb60e01b81526004810191909152908716906322afcccb90602401602060405180830381865afa158015620000e7573d6000803e3d6000fd5b505050506040513d601f19601f820116820180604052508101906200010d919062000a07565b60020b60e052610140516101005160405163a167129560e01b81523060048201526001600160a01b03928316602482015262ffffff90911660448201529087169063a1671295906064016020604051808303816000875af115801562000177573d6000803e3d6000fd5b505050506040513d601f19601f820116820180604052508101906200019d919062000a2c565b6001600160a01b031661012081905263f637731d620001bc85620002dd565b6040516001600160e01b031960e084901b1681526001600160a01b039091166004820152602401600060405180830381600087803b158015620001fe57600080fd5b505af115801562000213573d6000803e3d6000fd5b50506007805460ff1916600117905550620002319050828262000614565b5050505050505050505062000b42565b60007f8b73c3c69bb8fe3d512ecc4cf759cc79239f7b179b0ffacaa9a75d522b39400f600160405162000275919062000a4c565b6040805191829003822060208301939093528101919091527fc89efdaa54c0f20c7adf612882df0950f5a951637e0307cdcb4c672f298b8bc660608201524660808201523060a082015260c00160405160208183030381529060405280519060200120905090565b60008060008360020b12620002f6578260020b620002fe565b8260020b6000035b9050620d89e881111562000325576040516315e4079d60e11b815260040160405180910390fd5b6000816001166000036200033e57600160801b62000350565b6ffffcb933bd6fad37aa2d162d1a5940015b6001600160881b0316905060028216156200037b576ffff97272373d413259a46990580e213a0260801c5b60048216156200039b576ffff2e50f5f656932ef12357cf3c7fdcc0260801c5b6008821615620003bb576fffe5caca7e10e4e61c3624eaa0941cd00260801c5b6010821615620003db576fffcb9843d60f6159c9db58835c9266440260801c5b6020821615620003fb576fff973b41fa98c081472e6896dfb254c00260801c5b60408216156200041b576fff2ea16466c96a3843ec78b326b528610260801c5b60808216156200043b576ffe5dee046a99a2a811c461f1969c30530260801c5b6101008216156200045c576ffcbe86c7900a88aedcffc83b479aa3a40260801c5b6102008216156200047d576ff987a7253ac413176f2b074cf7815e540260801c5b6104008216156200049e576ff3392b0822b70005940c7a398e4b70f30260801c5b610800821615620004bf576fe7159475a2c29b7443b29c7fa6e889d90260801c5b611000821615620004e0576fd097f3bdfd2022b8845ad8f792aa58250260801c5b61200082161562000501576fa9f746462d870fdf8a65dc1f90e061e50260801c5b61400082161562000522576f70d869a156d2a1b890bb3df62baf32f70260801c5b61800082161562000543576f31be135f97d08fd981231505542fcfa60260801c5b6201000082161562000565576f09aa508b5b7a84e1c677de54f3e99bc90260801c5b6202000082161562000586576e5d6af8dedb81196699c329225ee6040260801c5b62040000821615620005a6576d2216e584f5fa1ea926041bedfe980260801c5b62080000821615620005c4576b048a170391f7dc42444e8fa20260801c5b60008460020b1315620005e9578060001981620005e557620005e562000aca565b0490505b640100000000810615620005ff57600162000602565b60005b60ff16602082901c0192505050919050565b60405163c8992e6160e01b81526001600160a01b0383169063c8992e61906200064890600290600190869060040162000af6565b600060405180830381600087803b1580156200066357600080fd5b505af115801562000678573d6000803e3d6000fd5b505050505050565b6001600160a01b03811681146200069657600080fd5b50565b8051620006a68162000680565b919050565b634e487b7160e01b600052604160045260246000fd5b600082601f830112620006d357600080fd5b81516001600160401b0380821115620006f057620006f0620006ab565b604051601f8301601f19908116603f011681019082821181831017156200071b576200071b620006ab565b81604052838152602092508660208588010111156200073957600080fd5b600091505b838210156200075d57858201830151818301840152908201906200073e565b6000602085830101528094505050505092915050565b805160ff81168114620006a657600080fd5b805162ffffff81168114620006a657600080fd5b8051600281900b8114620006a657600080fd5b6000806000806000806000806000806101408b8d031215620007cd57600080fd5b620007d88b62000699565b60208c0151909a506001600160401b0380821115620007f657600080fd5b620008048e838f01620006c1565b9a5060408d01519150808211156200081b57600080fd5b506200082a8d828e01620006c1565b9850506200083b60608c0162000773565b96506200084b60808c0162000699565b95506200085b60a08c0162000699565b94506200086b60c08c0162000785565b93506200087b60e08c0162000799565b92506200088c6101008c0162000699565b91506200089d6101208c0162000699565b90509295989b9194979a5092959850565b600181811c90821680620008c357607f821691505b602082108103620008e457634e487b7160e01b600052602260045260246000fd5b50919050565b601f82111562000936576000816000526020600020601f850160051c81016020861015620009155750805b601f850160051c820191505b81811015620006785782815560010162000921565b505050565b81516001600160401b03811115620009575762000957620006ab565b6200096f81620009688454620008ae565b84620008ea565b602080601f831160018114620009a757600084156200098e5750858301515b600019600386901b1c1916600185901b17855562000678565b600085815260208120601f198616915b82811015620009d857888601518255948401946001909101908401620009b7565b5085821015620009f75787850151600019600388901b60f8161c191681555b5050505050600190811b01905550565b60006020828403121562000a1a57600080fd5b62000a258262000799565b9392505050565b60006020828403121562000a3f57600080fd5b815162000a258162000680565b600080835462000a5c81620008ae565b6001828116801562000a77576001811462000a8d5762000abe565b60ff198416875282151583028701945062000abe565b8760005260208060002060005b8581101562000ab55781548a82015290840190820162000a9a565b50505082870194505b50929695505050505050565b634e487b7160e01b600052601260045260246000fd5b634e487b7160e01b600052602160045260246000fd5b606081016003851062000b0d5762000b0d62000ae0565b8482526002841062000b235762000b2362000ae0565b60208201939093526001600160a01b0391909116604090910152919050565b60805160a05160c05160e0516101005161012051610140516134a362000c1b600039600081816106e80152611bac01526000818161031301528181610bfb0152818161116c0152818161126901528181611474015281816115be0152818161171a01528181611b0201528181611b7401528181611bcf015281816121ad0152818161229e01528181612370015261287b0152600061043d015260008181610403015281816117a4015281816117c50152818161180e015261184201526000610937015260006109070152600061039c01526134a36000f3fe608060405234801561001057600080fd5b50600436106102c85760003560e01c8063888265461161017b578063bff35618116100d8578063d505accf1161008c578063ea64391411610071578063ea6439141461077b578063ed56ea0214610783578063ffa1ad741461079657600080fd5b8063d505accf1461073d578063dd62ed3e1461075057600080fd5b8063cf309012116100bd578063cf3090121461070a578063d348799714610717578063d4aae0c41461072a57600080fd5b8063bff35618146106d0578063cd3293de146106e357600080fd5b8063a9c3a30a1161012f578063ba9ff1ac11610114578063ba9ff1ac14610661578063bf31376414610674578063bf365ae2146106bd57600080fd5b8063a9c3a30a14610630578063acd1cca61461065957600080fd5b806395d89b411161016057806395d89b411461060d5780639fd57c1114610615578063a9059cbb1461061d57600080fd5b806388826546146105e75780638d4aafb4146105fa57600080fd5b80634657b36c116102295780636f6781d3116101dd57806373a3a78f116101c257806373a3a78f146105745780637e9b9e0a1461059f5780637ecebe00146105c757600080fd5b80636f6781d3146104dd57806370a082311461055457600080fd5b80634c69a6c91161020e5780634c69a6c914610438578063509c1bd114610473578063630369af146104aa57600080fd5b80634657b36c146103eb57806346ca626b146103fe57600080fd5b8063209c74da11610280578063313ce56711610265578063313ce567146103975780633644e515146103d057806340c10f19146103d857600080fd5b8063209c74da1461037a57806323b872dd1461038457600080fd5b806316f0115b116102b157806316f0115b1461030e57806318160ddd1461034d5780631ae7ec2e1461036457600080fd5b806306fdde03146102cd578063095ea7b3146102eb575b600080fd5b6102d56107ab565b6040516102e29190612ccd565b60405180910390f35b6102fe6102f9366004612cf8565b610839565b60405190151581526020016102e2565b6103357f000000000000000000000000000000000000000000000000000000000000000081565b6040516001600160a01b0390911681526020016102e2565b61035660035481565b6040519081526020016102e2565b60405164109413d3d360da1b81526020016102e2565b6103826108ab565b005b6102fe610392366004612d24565b6108c7565b6103be7f000000000000000000000000000000000000000000000000000000000000000081565b60405160ff90911681526020016102e2565b610356610903565b6103826103e6366004612cf8565b610959565b6103826103f9366004612d65565b610a38565b6104257f000000000000000000000000000000000000000000000000000000000000000081565b60405160029190910b81526020016102e2565b61045f7f000000000000000000000000000000000000000000000000000000000000000081565b60405162ffffff90911681526020016102e2565b610486610481366004612da6565b610a9f565b6040805193845260208401929092526001600160801b0316908201526060016102e2565b6104bd6104b8366004612ddd565b610d40565b6040805194855260208501939093529183015260608201526080016102e2565b6104f06104eb366004612ddd565b61103a565b6040516102e29190600060c0820190506001600160801b03835116825260208301516001600160a01b0380821660208501528060408601511660408501525050606083015160608301526080830151608083015260a083015160a083015292915050565b610356610562366004612d65565b60046020526000908152604090205481565b610587610582366004612df8565b611219565b6040516001600160801b0390911681526020016102e2565b6105b26105ad366004612e4b565b611262565b604080519283526020830191909152016102e2565b6103566105d5366004612d65565b60066020526000908152604090205481565b6104866105f5366004612e96565b61130a565b610356610608366004612d24565b6115b9565b6102d5611666565b610356611673565b6102fe61062b366004612cf8565b6116e4565b61058761063e366004612ddd565b6009602052600090815260409020546001600160801b031681565b610425611715565b61035661066f366004612df8565b61186e565b6106a3610682366004612ddd565b600860205260009081526040902054600281810b9163010000009004900b82565b60408051600293840b81529190920b6020820152016102e2565b6103826106cb366004612ec1565b611887565b6103826106de366004612f0d565b611a18565b6103357f000000000000000000000000000000000000000000000000000000000000000081565b6007546102fe9060ff1681565b610382610725366004612f2a565b611af7565b600054610335906001600160a01b031681565b61038261074b366004612fb9565b611bfb565b61035661075e36600461302a565b600560209081526000928352604080842090915290825290205481565b610382611e69565b610356610791366004613058565b611e96565b604080516001815260006020820152016102e2565b600180546107b8906130a9565b80601f01602080910402602001604051908101604052809291908181526020018280546107e4906130a9565b80156108315780601f1061080657610100808354040283529160200191610831565b820191906000526020600020905b81548152906001019060200180831161081457829003601f168201915b505050505081565b3360008181526005602090815260408083206001600160a01b038716808552925280832085905551919290917f8c5be1e5ebec7d5bd14f71427d1e84f3dd0314c0f7b2291e5b200ac8c7c3b925906108949086815260200190565b60405180910390a35060015b92915050565b905090565b306000818152600460205260409020546108c59190611ec5565b565b60075460009060ff16156108ee57604051632b36b06160e01b815260040160405180910390fd5b6108f9848484611f41565b90505b9392505050565b60007f00000000000000000000000000000000000000000000000000000000000000004614610934576108a6612033565b507f000000000000000000000000000000000000000000000000000000000000000090565b6000546001600160a01b0316331480610a0557506000546001600160a01b031663f166d9eb64109413d3d360da1b6040516001600160e01b031960e084901b811682526001600160d81b03199290921660048201523360248201526000359091166044820152606401602060405180830381865afa1580156109df573d6000803e3d6000fd5b505050506040513d601f19601f82011682018060405250810190610a0391906130e3565b155b15610a2a576040516311bf00c960e01b81523360048201526024015b60405180910390fd5b610a3482826120cd565b5050565b6000546001600160a01b03163314610a655760405163053e900f60e21b8152336004820152602401610a21565b600080547fffffffffffffffffffffffff0000000000000000000000000000000000000000166001600160a01b0392909216919091179055565b60008054819081906001600160a01b0316331480610b5057506000546001600160a01b031663f166d9eb64109413d3d360da1b6040516001600160e01b031960e084901b811682526001600160d81b03199290921660048201523360248201526000359091166044820152606401602060405180830381865afa158015610b2a573d6000803e3d6000fd5b505050506040513d601f19601f82011682018060405250810190610b4e91906130e3565b155b15610b70576040516311bf00c960e01b8152336004820152602401610a21565b600060086000876002811115610b8857610b88613100565b6002811115610b9957610b99613100565b81526020808201929092526040908101600020815180830190925254600281810b8084526301000000909204900b9282018390529092501480610be357506001600160801b038516155b15610bf957600080600093509350935050610d39565b7f00000000000000000000000000000000000000000000000000000000000000006001600160a01b0316633c8a7d8d30836000015184602001518933604051602001610c5491906001600160a01b0391909116815260200190565b6040516020818303038152906040526040518663ffffffff1660e01b8152600401610c83959493929190613116565b60408051808303816000875af1158015610ca1573d6000803e3d6000fd5b505050506040513d601f19601f82011682018060405250810190610cc59190613159565b82516020840151929650909450610cdb91612131565b91508160096000886002811115610cf457610cf4613100565b6002811115610d0557610d05613100565b815260200190815260200160002060006101000a8154816001600160801b0302191690836001600160801b03160217905550505b9250925092565b600080548190819081906001600160a01b0316331480610df357506000546001600160a01b031663f166d9eb64109413d3d360da1b6040516001600160e01b031960e084901b811682526001600160d81b03199290921660048201523360248201526000359091166044820152606401602060405180830381865afa158015610dcd573d6000803e3d6000fd5b505050506040513d601f19601f82011682018060405250810190610df191906130e3565b155b15610e13576040516311bf00c960e01b8152336004820152602401610a21565b600060086000876002811115610e2b57610e2b613100565b6002811115610e3c57610e3c613100565b815260208082019290925260409081016000908120825180840190935254600281810b8085526301000000909204900b93830184905291935091610e809190612131565b9050600060096000896002811115610e9a57610e9a613100565b6002811115610eab57610eab613100565b815260208101919091526040016000908120546001600160801b03908116925083169003610ee9576000806000809650965096509650505050611033565b600080600080846001600160801b0316866001600160801b03161115610f5b5786516020880151610f249190610f1f888a613193565b61222d565b92965090945092509050610f3883856131ba565b610f42908b6131ba565b9950610f4e81836131ba565b610f5890896131ba565b97505b849550856001600160801b0316600003610f8357506000995089975061103395505050505050565b610f96876000015188602001518861222d565b92965090945092509050610faa848c6131ba565b9a50610fb6838b6131ba565b9950610fc2828a6131ba565b9850610fce81896131ba565b97506000600960008e6002811115610fe857610fe8613100565b6002811115610ff957610ff9613100565b815260200190815260200160002060006101000a8154816001600160801b0302191690836001600160801b03160217905550505050505050505b9193509193565b6040805160c081018252600080825260208201819052918101829052606081018290526080810182905260a081018290529060088184600281111561108157611081613100565b600281111561109257611092613100565b815260208082019290925260409081016000908120825180840190935254600281810b84526301000000909104810b9383019390935290925060099185908111156110df576110df613100565b60028111156110f0576110f0613100565b81526020810191909152604001600020546001600160801b03168252805161111790612422565b6001600160a01b031660208084019190915281015161113590612422565b6001600160a01b031660408301819052602083015183516111569290611262565b83606001846080018281525082815250505060007f00000000000000000000000000000000000000000000000000000000000000006001600160a01b0316633850c7bd6040518163ffffffff1660e01b815260040160e060405180830381865afa1580156111c8573d6000803e3d6000fd5b505050506040513d601f19601f820116820180604052508101906111ec91906131df565b505050505050905061120c83602001518460400151856000015184611e96565b60a0840152509092915050565b600080611226838661276b565b9050856001600160a01b0316816001600160a01b03161161124b57600091505061125a565b61125686828661278f565b9150505b949350505050565b60008060007f00000000000000000000000000000000000000000000000000000000000000006001600160a01b0316633850c7bd6040518163ffffffff1660e01b815260040160e060405180830381865afa1580156112c5573d6000803e3d6000fd5b505050506040513d601f19601f820116820180604052508101906112e991906131df565b50505050505090506112fd818787876127da565b9097909650945050505050565b60008054819081906001600160a01b03163314806113bb57506000546001600160a01b031663f166d9eb64109413d3d360da1b6040516001600160e01b031960e084901b811682526001600160d81b03199290921660048201523360248201526000359091166044820152606401602060405180830381865afa158015611395573d6000803e3d6000fd5b505050506040513d601f19601f820116820180604052508101906113b991906130e3565b155b156113db576040516311bf00c960e01b8152336004820152602401610a21565b6000600860008760028111156113f3576113f3613100565b600281111561140457611404613100565b81526020808201929092526040908101600020815180830190925254600281810b8084526301000000909204900b9282018390529092501480611445575084155b1561145b57600080600093509350935050610d39565b60006114708260000151836020015188612876565b90507f00000000000000000000000000000000000000000000000000000000000000006001600160a01b0316633c8a7d8d308460000151856020015185336040516020016114cd91906001600160a01b0391909116815260200190565b6040516020818303038152906040526040518663ffffffff1660e01b81526004016114fc959493929190613116565b60408051808303816000875af115801561151a573d6000803e3d6000fd5b505050506040513d601f19601f8201168201806040525081019061153e9190613159565b8351602085015192975090955061155491612131565b9250826009600089600281111561156d5761156d613100565b600281111561157e5761157e613100565b815260200190815260200160002060006101000a8154816001600160801b0302191690836001600160801b0316021790555050509250925092565b6000807f00000000000000000000000000000000000000000000000000000000000000006001600160a01b0316633850c7bd6040518163ffffffff1660e01b815260040160e060405180830381865afa15801561161a573d6000803e3d6000fd5b505050506040513d601f19601f8201168201806040525081019061163e91906131df565b505050505050905061165d858561165788888887611219565b84611e96565b95945050505050565b600280546107b8906130a9565b600080805260086020527f5eff886ea0ce6ca488a3d6e336d6c0f75f46d19b42c06ce5ee98e42c96d256c75481906116ad9060020b612422565b905060006116d1826001600160a01b03166c01000000000000000000000000612953565b90506116dd81826129a2565b9250505090565b60075460009060ff161561170b57604051632b36b06160e01b815260040160405180910390fd5b6108fc83836129d0565b6000807f00000000000000000000000000000000000000000000000000000000000000006001600160a01b0316633850c7bd6040518163ffffffff1660e01b815260040160e060405180830381865afa158015611776573d6000803e3d6000fd5b505050506040513d601f19601f8201168201806040525081019061179a91906131df565b50505050509150507f00000000000000000000000000000000000000000000000000000000000000007f0000000000000000000000000000000000000000000000000000000000000000826117ef9190613287565b6117f991906132c1565b915060008160020b12158061183857506118337f0000000000000000000000000000000000000000000000000000000000000000826132e1565b60020b155b1561186a576118677f000000000000000000000000000000000000000000000000000000000000000083613303565b91505b5090565b600061165d858561188188888888611219565b85611e96565b6000546001600160a01b031633148061193357506000546001600160a01b031663f166d9eb64109413d3d360da1b6040516001600160e01b031960e084901b811682526001600160d81b03199290921660048201523360248201526000359091166044820152606401602060405180830381865afa15801561190d573d6000803e3d6000fd5b505050506040513d601f19601f8201168201806040525081019061193191906130e3565b155b15611953576040516311bf00c960e01b8152336004820152602401610a21565b8060020b8260020b1315611993576040517f064847d000000000000000000000000000000000000000000000000000000000815260040160405180910390fd5b60405180604001604052808360020b81526020018260020b815250600860008560028111156119c4576119c4613100565b60028111156119d5576119d5613100565b815260208082019290925260400160002082518154939092015162ffffff90811663010000000265ffffffffffff19909416921691909117919091179055505050565b6000546001600160a01b0316331480611ac457506000546001600160a01b031663f166d9eb64109413d3d360da1b6040516001600160e01b031960e084901b811682526001600160d81b03199290921660048201523360248201526000359091166044820152606401602060405180830381865afa158015611a9e573d6000803e3d6000fd5b505050506040513d601f19601f82011682018060405250810190611ac291906130e3565b155b15611ae4576040516311bf00c960e01b8152336004820152602401610a21565b6007805460ff1916911515919091179055565b336001600160a01b037f00000000000000000000000000000000000000000000000000000000000000001614611b59576040517f48f5c3ed00000000000000000000000000000000000000000000000000000000815260040160405180910390fd5b6000611b6782840184612d65565b90508415611b9957611b997f0000000000000000000000000000000000000000000000000000000000000000866120cd565b8315611bf457611bf46001600160a01b037f000000000000000000000000000000000000000000000000000000000000000016827f000000000000000000000000000000000000000000000000000000000000000087612a48565b5050505050565b42841015611c4b5760405162461bcd60e51b815260206004820152601760248201527f5045524d49545f444541444c494e455f455850495245440000000000000000006044820152606401610a21565b60006001611c57610903565b6001600160a01b038a811660008181526006602090815260409182902080546001810190915582517f6e71edae12b1b97f4d1f60370fef10105fa2faae0126114a169c64845d6126c98184015280840194909452938d166060840152608083018c905260a083019390935260c08083018b90528151808403909101815260e0830190915280519201919091207f19010000000000000000000000000000000000000000000000000000000000006101008301526101028201929092526101228101919091526101420160408051601f198184030181528282528051602091820120600084529083018083525260ff871690820152606081018590526080810184905260a0016020604051602081039080840390855afa158015611d7e573d6000803e3d6000fd5b5050604051601f1901519150506001600160a01b03811615801590611db45750876001600160a01b0316816001600160a01b0316145b611e005760405162461bcd60e51b815260206004820152600e60248201527f494e56414c49445f5349474e45520000000000000000000000000000000000006044820152606401610a21565b6001600160a01b0390811660009081526005602090815260408083208a8516808552908352928190208990555188815291928a16917f8c5be1e5ebec7d5bd14f71427d1e84f3dd0314c0f7b2291e5b200ac8c7c3b925910160405180910390a350505050505050565b6000546001600160a01b031633146108c55760405163053e900f60e21b8152336004820152602401610a21565b6000846001600160a01b0316826001600160a01b03161061125a5761165d85611ebf868561276b565b85612aff565b6001600160a01b03821660009081526004602052604081208054839290611eed908490613328565b90915550506003805482900390556040518181526000906001600160a01b038416907fddf252ad1be2c89b69c2b068fc378daa952ba7f163c4a11628f55a4df523b3ef906020015b60405180910390a35050565b6001600160a01b03831660009081526005602090815260408083203384529091528120546000198114611f9d57611f788382613328565b6001600160a01b03861660009081526005602090815260408083203384529091529020555b6001600160a01b03851660009081526004602052604081208054859290611fc5908490613328565b90915550506001600160a01b03808516600081815260046020526040908190208054870190555190918716907fddf252ad1be2c89b69c2b068fc378daa952ba7f163c4a11628f55a4df523b3ef906120209087815260200190565b60405180910390a3506001949350505050565b60007f8b73c3c69bb8fe3d512ecc4cf759cc79239f7b179b0ffacaa9a75d522b39400f6001604051612065919061333b565b6040805191829003822060208301939093528101919091527fc89efdaa54c0f20c7adf612882df0950f5a951637e0307cdcb4c672f298b8bc660608201524660808201523060a082015260c00160405160208183030381529060405280519060200120905090565b80600360008282546120df91906131ba565b90915550506001600160a01b0382166000818152600460209081526040808320805486019055518481527fddf252ad1be2c89b69c2b068fc378daa952ba7f163c4a11628f55a4df523b3ef9101611f35565b6040516bffffffffffffffffffffffff193060601b16602082015260e883811b603483015282901b60378201526000908190603a0160408051808303601f190181529082905280516020909101207f514ea4bf0000000000000000000000000000000000000000000000000000000082526004820181905291507f00000000000000000000000000000000000000000000000000000000000000006001600160a01b03169063514ea4bf9060240160a060405180830381865afa1580156121fc573d6000803e3d6000fd5b505050506040513d601f19601f8201168201806040525081019061222091906133dc565b5092979650505050505050565b600080600080846001600160801b031660000361225557506000925082915081905080612419565b6040517fa34123a7000000000000000000000000000000000000000000000000000000008152600288810b600483015287900b60248201526001600160801b03861660448201527f00000000000000000000000000000000000000000000000000000000000000006001600160a01b03169063a34123a79060640160408051808303816000875af11580156122ee573d6000803e3d6000fd5b505050506040513d601f19601f820116820180604052508101906123129190613159565b6040517f4f1eb3d800000000000000000000000000000000000000000000000000000000815233600482015260028a810b602483015289900b60448201526001600160801b03606482018190526084820152919550925060009081907f00000000000000000000000000000000000000000000000000000000000000006001600160a01b031690634f1eb3d89060a40160408051808303816000875af11580156123c0573d6000803e3d6000fd5b505050506040513d601f19601f820116820180604052508101906123e4919061343e565b6001600160801b0391821693501690506123fe8683613328565b945061240a8482613328565b92506124163387611ec5565b50505b93509350935093565b60008060008360020b12612439578260020b612441565b8260020b6000035b9050620d89e8811115612480576040517f2bc80f3a00000000000000000000000000000000000000000000000000000000815260040160405180910390fd5b6000816001166000036124a4577001000000000000000000000000000000006124b6565b6ffffcb933bd6fad37aa2d162d1a5940015b70ffffffffffffffffffffffffffffffffff16905060028216156124ea576ffff97272373d413259a46990580e213a0260801c5b6004821615612509576ffff2e50f5f656932ef12357cf3c7fdcc0260801c5b6008821615612528576fffe5caca7e10e4e61c3624eaa0941cd00260801c5b6010821615612547576fffcb9843d60f6159c9db58835c9266440260801c5b6020821615612566576fff973b41fa98c081472e6896dfb254c00260801c5b6040821615612585576fff2ea16466c96a3843ec78b326b528610260801c5b60808216156125a4576ffe5dee046a99a2a811c461f1969c30530260801c5b6101008216156125c4576ffcbe86c7900a88aedcffc83b479aa3a40260801c5b6102008216156125e4576ff987a7253ac413176f2b074cf7815e540260801c5b610400821615612604576ff3392b0822b70005940c7a398e4b70f30260801c5b610800821615612624576fe7159475a2c29b7443b29c7fa6e889d90260801c5b611000821615612644576fd097f3bdfd2022b8845ad8f792aa58250260801c5b612000821615612664576fa9f746462d870fdf8a65dc1f90e061e50260801c5b614000821615612684576f70d869a156d2a1b890bb3df62baf32f70260801c5b6180008216156126a4576f31be135f97d08fd981231505542fcfa60260801c5b620100008216156126c5576f09aa508b5b7a84e1c677de54f3e99bc90260801c5b620200008216156126e5576e5d6af8dedb81196699c329225ee6040260801c5b62040000821615612704576d2216e584f5fa1ea926041bedfe980260801c5b62080000821615612721576b048a170391f7dc42444e8fa20260801c5b60008460020b131561274257806000198161273e5761273e613271565b0490505b640100000000810615612756576001612759565b60005b60ff16602082901c0192505050919050565b60006108fc836001600160a01b0316836001600160a01b0316808218908211021890565b6000826001600160a01b0316846001600160a01b031611156127af579192915b6108f96127d5836c010000000000000000000000008787036001600160a01b0316612b6e565b612c20565b600080836001600160a01b0316856001600160a01b031611156127fb579293925b846001600160a01b0316866001600160a01b0316116128265761281f858585612aff565b915061286d565b836001600160a01b0316866001600160a01b0316101561285f5761284b868585612aff565b9150612858858785612c3b565b905061286d565b61286a858585612c3b565b90505b94509492505050565b6000807f00000000000000000000000000000000000000000000000000000000000000006001600160a01b0316633850c7bd6040518163ffffffff1660e01b815260040160e060405180830381865afa1580156128d7573d6000803e3d6000fd5b505050506040513d601f19601f820116820180604052508101906128fb91906131df565b5050505050509050600061290e86612422565b9050600061291b86612422565b905061294882826001600160a01b0316856001600160a01b0316106129405782612942565b845b8761278f565b979650505050505050565b60007812725dd1d243aba0e75fe645cc4873f9e65afe688c928e1f218311670de0b6b3a76400000215820261299057637c5f487d6000526004601cfd5b50670de0b6b3a7640000919091020490565b6000816000190483118202156129c05763bac65e5b6000526004601cfd5b50670de0b6b3a764000091020490565b336000908152600460205260408120805483919083906129f1908490613328565b90915550506001600160a01b038316600081815260046020526040908190208054850190555133907fddf252ad1be2c89b69c2b068fc378daa952ba7f163c4a11628f55a4df523b3ef906108949086815260200190565b60006040517f23b872dd0000000000000000000000000000000000000000000000000000000081526001600160a01b03851660048201526001600160a01b03841660248201528260448201526020600060648360008a5af13d15601f3d1160016000511416171691505080611bf45760405162461bcd60e51b815260206004820152601460248201527f5452414e534645525f46524f4d5f4641494c45440000000000000000000000006044820152606401610a21565b6000826001600160a01b0316846001600160a01b03161115612b1f579192915b836001600160a01b0316612b58606060ff16846001600160801b0316901b8686036001600160a01b0316866001600160a01b0316612b6e565b81612b6557612b65613271565b04949350505050565b6000808060001985870985870292508281108382030391505080600003612ba75760008411612b9c57600080fd5b5082900490506108fc565b808411612bb357600080fd5b6000848688096000868103871696879004966002600389028118808a02820302808a02820302808a02820302808a02820302808a02820302808a02909103029181900381900460010186841190950394909402919094039290920491909117919091029150509392505050565b806001600160801b0381168114612c3657600080fd5b919050565b6000826001600160a01b0316846001600160a01b03161115612c5b579192915b6108f9826001600160801b03168585036001600160a01b03166c01000000000000000000000000612b6e565b6000815180845260005b81811015612cad57602081850181015186830182015201612c91565b506000602082860101526020601f19601f83011685010191505092915050565b6020815260006108fc6020830184612c87565b6001600160a01b0381168114612cf557600080fd5b50565b60008060408385031215612d0b57600080fd5b8235612d1681612ce0565b946020939093013593505050565b600080600060608486031215612d3957600080fd5b8335612d4481612ce0565b92506020840135612d5481612ce0565b929592945050506040919091013590565b600060208284031215612d7757600080fd5b81356108fc81612ce0565b803560038110612c3657600080fd5b6001600160801b0381168114612cf557600080fd5b60008060408385031215612db957600080fd5b612dc283612d82565b91506020830135612dd281612d91565b809150509250929050565b600060208284031215612def57600080fd5b6108fc82612d82565b60008060008060808587031215612e0e57600080fd5b8435612e1981612ce0565b93506020850135612e2981612ce0565b9250604085013591506060850135612e4081612ce0565b939692955090935050565b600080600060608486031215612e6057600080fd5b8335612e6b81612ce0565b92506020840135612e7b81612ce0565b91506040840135612e8b81612d91565b809150509250925092565b60008060408385031215612ea957600080fd5b612d1683612d82565b8060020b8114612cf557600080fd5b600080600060608486031215612ed657600080fd5b612edf84612d82565b92506020840135612eef81612eb2565b91506040840135612e8b81612eb2565b8015158114612cf557600080fd5b600060208284031215612f1f57600080fd5b81356108fc81612eff565b60008060008060608587031215612f4057600080fd5b8435935060208501359250604085013567ffffffffffffffff80821115612f6657600080fd5b818701915087601f830112612f7a57600080fd5b813581811115612f8957600080fd5b886020828501011115612f9b57600080fd5b95989497505060200194505050565b60ff81168114612cf557600080fd5b600080600080600080600060e0888a031215612fd457600080fd5b8735612fdf81612ce0565b96506020880135612fef81612ce0565b95506040880135945060608801359350608088013561300d81612faa565b9699959850939692959460a0840135945060c09093013592915050565b6000806040838503121561303d57600080fd5b823561304881612ce0565b91506020830135612dd281612ce0565b6000806000806080858703121561306e57600080fd5b843561307981612ce0565b9350602085013561308981612ce0565b9250604085013561309981612d91565b91506060850135612e4081612ce0565b600181811c908216806130bd57607f821691505b6020821081036130dd57634e487b7160e01b600052602260045260246000fd5b50919050565b6000602082840312156130f557600080fd5b81516108fc81612eff565b634e487b7160e01b600052602160045260246000fd5b6001600160a01b03861681528460020b60208201528360020b60408201526001600160801b038316606082015260a06080820152600061294860a0830184612c87565b6000806040838503121561316c57600080fd5b505080516020909101519092909150565b634e487b7160e01b600052601160045260246000fd5b6001600160801b038281168282160390808211156131b3576131b361317d565b5092915050565b808201808211156108a0576108a061317d565b805161ffff81168114612c3657600080fd5b600080600080600080600060e0888a0312156131fa57600080fd5b875161320581612ce0565b602089015190975061321681612eb2565b9550613224604089016131cd565b9450613232606089016131cd565b9350613240608089016131cd565b925060a088015161325081612faa565b60c089015190925061326181612eff565b8091505092959891949750929550565b634e487b7160e01b600052601260045260246000fd5b60008160020b8360020b8061329e5761329e613271565b627fffff198214600019821416156132b8576132b861317d565b90059392505050565b60008260020b8260020b028060020b91508082146131b3576131b361317d565b60008260020b806132f4576132f4613271565b808360020b0791505092915050565b600281810b9083900b01627fffff8113627fffff19821217156108a0576108a061317d565b818103818111156108a0576108a061317d565b60008083548160018260011c9150600183168061335957607f831692505b6020808410820361337857634e487b7160e01b86526022600452602486fd5b81801561338c57600181146133a1576133ce565b60ff19861689528415158502890196506133ce565b60008a81526020902060005b868110156133c65781548b8201529085019083016133ad565b505084890196505b509498975050505050505050565b600080600080600060a086880312156133f457600080fd5b85516133ff81612d91565b809550506020860151935060408601519250606086015161341f81612d91565b608087015190925061343081612d91565b809150509295509295909350565b6000806040838503121561345157600080fd5b825161345c81612d91565b6020840151909250612dd281612d9156fea26469706673582212202becdd93dd495cc0fc92e92b465d23621565f78211b1f5a09aa3ff78e991e28764736f6c63430008170033","linkReferences":{}},"methodIdentifiers":{"DOMAIN_SEPARATOR()":"3644e515","FEE_TIER()":"4c69a6c9","INIT()":"ea643914","KEYCODE()":"1ae7ec2e","TICK_SPACING()":"46ca626b","VERSION()":"ffa1ad74","addLiquidityTo(uint8,uint128)":"509c1bd1","addReservesTo(uint8,uint256)":"88826546","allowance(address,address)":"dd62ed3e","approve(address,uint256)":"095ea7b3","balanceOf(address)":"70a08231","burnAllBAssetsInContract()":"209c74da","changeKernel(address)":"4657b36c","decimals()":"313ce567","getActiveTS()":"acd1cca6","getBalancesForLiquidity(uint160,uint160,uint128)":"7e9b9e0a","getBaselineValue()":"9fd57c11","getCapacityForLiquidity(uint160,uint160,uint128,uint160)":"ed56ea02","getCapacityForReserves(uint160,uint160,uint256)":"8d4aafb4","getCapacityForReservesAtPrice(uint160,uint160,uint256,uint160)":"ba9ff1ac","getLiquidity(uint8)":"a9c3a30a","getLiquidityForReserves(uint160,uint160,uint256,uint160)":"73a3a78f","getPosition(uint8)":"6f6781d3","getTicks(uint8)":"bf313764","kernel()":"d4aae0c4","locked()":"cf309012","mint(address,uint256)":"40c10f19","name()":"06fdde03","nonces(address)":"7ecebe00","permit(address,address,uint256,uint256,uint8,bytes32,bytes32)":"d505accf","pool()":"16f0115b","removeAllFrom(uint8)":"630369af","reserve()":"cd3293de","setTicks(uint8,int24,int24)":"bf365ae2","setTransferLock(bool)":"bff35618","symbol()":"95d89b41","totalSupply()":"18160ddd","transfer(address,uint256)":"a9059cbb","transferFrom(address,address,uint256)":"23b872dd","uniswapV3MintCallback(uint256,uint256,bytes)":"d3487997"},"id":111}