{"abi":[{"type":"constructor","inputs":[{"name":"_kernel","type":"address","internalType":"contract Kernel"},{"name":"_blast","type":"address","internalType":"address"},{"name":"_blastGovernor","type":"address","internalType":"address"}],"stateMutability":"nonpayable"},{"type":"function","name":"INIT","inputs":[],"outputs":[],"stateMutability":"nonpayable"},{"type":"function","name":"KEYCODE","inputs":[],"outputs":[{"name":"","type":"bytes5","internalType":"Keycode"}],"stateMutability":"pure"},{"type":"function","name":"VERSION","inputs":[],"outputs":[{"name":"major_","type":"uint8","internalType":"uint8"},{"name":"minor_","type":"uint8","internalType":"uint8"}],"stateMutability":"pure"},{"type":"function","name":"bAsset","inputs":[],"outputs":[{"name":"","type":"address","internalType":"contract ERC20"}],"stateMutability":"view"},{"type":"function","name":"changeKernel","inputs":[{"name":"newKernel_","type":"address","internalType":"contract Kernel"}],"outputs":[],"stateMutability":"nonpayable"},{"type":"function","name":"defaultList","inputs":[{"name":"","type":"uint256","internalType":"uint256"}],"outputs":[{"name":"credit","type":"uint256","internalType":"uint256"},{"name":"collateral","type":"uint256","internalType":"uint256"}],"stateMutability":"view"},{"type":"function","name":"defaultOutstanding","inputs":[],"outputs":[],"stateMutability":"nonpayable"},{"type":"function","name":"defaultSelf","inputs":[],"outputs":[],"stateMutability":"nonpayable"},{"type":"function","name":"getCreditAccount","inputs":[{"name":"_user","type":"address","internalType":"address"}],"outputs":[{"name":"account_","type":"tuple","internalType":"struct CreditAccount","components":[{"name":"credit","type":"uint256","internalType":"uint256"},{"name":"collateral","type":"uint256","internalType":"uint256"},{"name":"expiry","type":"uint256","internalType":"uint256"}]}],"stateMutability":"view"},{"type":"function","name":"kernel","inputs":[],"outputs":[{"name":"","type":"address","internalType":"contract Kernel"}],"stateMutability":"view"},{"type":"function","name":"lastDefaultedTimeslot","inputs":[],"outputs":[{"name":"","type":"uint256","internalType":"uint256"}],"stateMutability":"view"},{"type":"function","name":"totalCollateralized","inputs":[],"outputs":[{"name":"","type":"uint256","internalType":"uint256"}],"stateMutability":"view"},{"type":"function","name":"totalCreditIssued","inputs":[],"outputs":[{"name":"","type":"uint256","internalType":"uint256"}],"stateMutability":"view"},{"type":"function","name":"updateCreditAccount","inputs":[{"name":"_user","type":"address","internalType":"address"},{"name":"_newCollateral","type":"uint256","internalType":"uint256"},{"name":"_newCredit","type":"uint256","internalType":"uint256"},{"name":"_newExpiry","type":"uint256","internalType":"uint256"}],"outputs":[],"stateMutability":"nonpayable"},{"type":"event","name":"DefaultSelf","inputs":[{"name":"user_","type":"address","indexed":false,"internalType":"address"},{"name":"credit_","type":"uint256","indexed":false,"internalType":"uint256"},{"name":"collateral_","type":"uint256","indexed":false,"internalType":"uint256"}],"anonymous":false},{"type":"event","name":"Defaulted","inputs":[{"name":"timeslot_","type":"uint256","indexed":false,"internalType":"uint256"},{"name":"credit_","type":"uint256","indexed":false,"internalType":"uint256"},{"name":"collateral_","type":"uint256","indexed":false,"internalType":"uint256"}],"anonymous":false},{"type":"error","name":"InvalidCreditAccount","inputs":[]},{"type":"error","name":"InvalidExpiry","inputs":[]},{"type":"error","name":"KernelAdapter_OnlyKernel","inputs":[{"name":"caller_","type":"address","internalType":"address"}]},{"type":"error","name":"Module_PolicyNotPermitted","inputs":[{"name":"policy_","type":"address","internalType":"address"}]},{"type":"error","name":"NoAccountAvailable","inputs":[]}],"bytecode":{"object":"0x60806040523480156200001157600080fd5b5060405162000ffa38038062000ffa8339810160408190526200003491620000e9565b600080546001600160a01b0319166001600160a01b0385161790556200005b828262000064565b5050506200019f565b60405163c8992e6160e01b81526001600160a01b0383169063c8992e61906200009890600290600190869060040162000153565b600060405180830381600087803b158015620000b357600080fd5b505af1158015620000c8573d6000803e3d6000fd5b505050505050565b6001600160a01b0381168114620000e657600080fd5b50565b600080600060608486031215620000ff57600080fd5b83516200010c81620000d0565b60208501519093506200011f81620000d0565b60408501519092506200013281620000d0565b809150509250925092565b634e487b7160e01b600052602160045260246000fd5b60608101600385106200016a576200016a6200013d565b848252600284106200018057620001806200013d565b60208201939093526001600160a01b0391909116604090910152919050565b610e4b80620001af6000396000f3fe608060405234801561001057600080fd5b50600436106100ea5760003560e01c8063b47ce7291161008c578063d4aae0c411610066578063d4aae0c4146101fe578063dec16f0714610211578063ea6439141461021a578063ffa1ad741461022257600080fd5b8063b47ce729146101c2578063b5aca570146101ca578063b8ab24bd146101d357600080fd5b80631ae7ec2e116100c85780631ae7ec2e146101465780634657b36c1461015c57806366ed06531461016f5780636cd53f1e1461018657600080fd5b806305873443146100ef57806307ed68dd14610104578063084b0a971461010c575b600080fd5b6101026100fd366004610cd0565b610237565b005b610102610686565b61011f61011a366004610d0b565b6107ae565b60408051825181526020808401519082015291810151908201526060015b60405180910390f35b6040516410d491511560da1b815260200161013d565b61010261016a366004610d0b565b610860565b61017860065481565b60405190815260200161013d565b6101ad610194366004610d2f565b6003602052600090815260409020805460019091015482565b6040805192835260208301919091520161013d565b6101026108bc565b61017860055481565b6001546101e6906001600160a01b031681565b6040516001600160a01b03909116815260200161013d565b6000546101e6906001600160a01b031681565b61017860045481565b610102610a10565b6040805160018152600060208201520161013d565b6000546001600160a01b03163314806102fb57506000546001600160a01b031663f166d9eb6410d491511560da1b6040516001600160e01b031960e084901b811682527fffffffffff0000000000000000000000000000000000000000000000000000009290921660048201523360248201526000359091166044820152606401602060405180830381865afa1580156102d5573d6000803e3d6000fd5b505050506040513d601f19601f820116820180604052508101906102f99190610d48565b155b15610339576040517f11bf00c90000000000000000000000000000000000000000000000000000000081523360048201526024015b60405180910390fd5b610341610b2a565b81101561037a576040517fd36c850000000000000000000000000000000000000000000000000000000000815260040160405180910390fd5b8215801561038757508115155b156103be576040517f8b5a310a00000000000000000000000000000000000000000000000000000000815260040160405180910390fd5b60006103c9856107ae565b905060006003600083604001518152602001908152602001600020905081602001518160010160008282546103fe9190610d80565b9091555050815181548290600090610417908490610d80565b9091555050815160058054600090610430908490610d80565b909155505060208201516006805460009061044c908490610d80565b9250508190555061047760405180606001604052806000815260200160008152602001600081525090565b848152602080820187815260408084018781526001600160a01b038b166000908152600280865283822087518155945160018601559151939091019290925586825260039092529081208054909187918391906104d5908490610d93565b92505081905550868160010160008282546104f09190610d93565b9250508190555085600560008282546105099190610d93565b9250508190555086600660008282546105229190610d93565b909155505060208085015190830151106105e057600154602080860151908401516001600160a01b03909216916323b872dd913391309161056291610d80565b6040516001600160e01b031960e086901b1681526001600160a01b03938416600482015292909116602483015260448201526064016020604051808303816000875af11580156105b6573d6000803e3d6000fd5b505050506040513d601f19601f820116820180604052508101906105da9190610d48565b5061067c565b600154602080840151908601516001600160a01b039092169163a9059cbb91339161060b9190610d80565b6040516001600160e01b031960e085901b1681526001600160a01b03909216600483015260248201526044016020604051808303816000875af1158015610656573d6000803e3d6000fd5b505050506040513d601f19601f8201168201806040525081019061067a9190610d48565b505b5050505050505050565b6000610690610b2a565b6004549091508181106106a1575050565b6000805b8383101561076b5760008381526003602090815260409182902082518084019093528054835260010154908201819052156107585780516106e69084610d93565b92508060200151826106f89190610d93565b815160208084015160408051898152928301939093528183015290519193507fc4f17a65d54873d57229ea5f59c4ddec592d095bc17581372676402c8228b9cd919081900360600190a16000848152600360205260408120818155600101555b610763846001610b35565b9350506106a5565b816005600082825461077d9190610d80565b9250508190555080600660008282546107969190610d80565b909155505060048390556107a8610b5f565b50505050565b6107d260405180606001604052806000815260200160008152602001600081525090565b506001600160a01b03811660009081526002602081815260408084208151606081018352815481526001820154938101849052930154908301529091901590610819610b2a565b8360400151109050818061082a5750805b6108345782610853565b6040518060600160405280600081526020016000815260200160008152505b949350505050565b905090565b6000546001600160a01b0316331461088d5760405163053e900f60e21b8152336004820152602401610330565b6000805473ffffffffffffffffffffffffffffffffffffffff19166001600160a01b0392909216919091179055565b60006108c7336107ae565b8051909150600003610905576040517f2e08054800000000000000000000000000000000000000000000000000000000815260040160405180910390fd5b60408051606081018252600080825260208083018281528385018381523384526002808452868520955186559151600180870191909155905194909101939093558484015182526003815292812092840151918301805490919061096a908490610d80565b9091555050815181548290600090610983908490610d80565b909155505081516005805460009061099c908490610d80565b90915550506020820151600680546000906109b8908490610d80565b909155506109c69050610b5f565b815160208084015160408051338152928301939093528183015290517f4284ccd09d786c3d839e056a542e3aef7ff96206f67e01a053c67c415ccb45c09181900360600190a15050565b6000546001600160a01b03163314610a3d5760405163053e900f60e21b8152336004820152602401610330565b610a45610b2a565b6004556000546001600160a01b031663b4dc00b47f42504f4f4c0000000000000000000000000000000000000000000000000000006040516001600160e01b031960e084901b1681527fffffffffff0000000000000000000000000000000000000000000000000000009091166004820152602401602060405180830381865afa158015610ad7573d6000803e3d6000fd5b505050506040513d601f19601f82011682018060405250810190610afb9190610da6565b6001805473ffffffffffffffffffffffffffffffffffffffff19166001600160a01b0392909216919091179055565b600061085b42610c89565b6000610b56610b478362015180610dc3565b610b519085610d93565b610c89565b90505b92915050565b6001546040517f70a082310000000000000000000000000000000000000000000000000000000081523060048201526000916001600160a01b0316906370a0823190602401602060405180830381865afa158015610bc1573d6000803e3d6000fd5b505050506040513d601f19601f82011682018060405250810190610be59190610dda565b9050600654811115610c86576001546006546001600160a01b039091169063a9059cbb908290610c159085610d80565b6040516001600160e01b031960e085901b1681526001600160a01b03909216600483015260248201526044016020604051808303816000875af1158015610c60573d6000803e3d6000fd5b505050506040513d601f19601f82011682018060405250810190610c849190610d48565b505b50565b60006001610c9a6201518084610df3565b610ca49084610d80565b610cb19062015180610d93565b610b599190610d80565b6001600160a01b0381168114610c8657600080fd5b60008060008060808587031215610ce657600080fd5b8435610cf181610cbb565b966020860135965060408601359560600135945092505050565b600060208284031215610d1d57600080fd5b8135610d2881610cbb565b9392505050565b600060208284031215610d4157600080fd5b5035919050565b600060208284031215610d5a57600080fd5b81518015158114610d2857600080fd5b634e487b7160e01b600052601160045260246000fd5b81810381811115610b5957610b59610d6a565b80820180821115610b5957610b59610d6a565b600060208284031215610db857600080fd5b8151610d2881610cbb565b8082028115828204841417610b5957610b59610d6a565b600060208284031215610dec57600080fd5b5051919050565b600082610e1057634e487b7160e01b600052601260045260246000fd5b50069056fea26469706673582212209b1d8d6dfe4024053666e1bcfd6212a774091d775379298a2be2bc97b987085764736f6c63430008170033","linkReferences":{}},"methodIdentifiers":{"INIT()":"ea643914","KEYCODE()":"1ae7ec2e","VERSION()":"ffa1ad74","bAsset()":"b8ab24bd","changeKernel(address)":"4657b36c","defaultList(uint256)":"6cd53f1e","defaultOutstanding()":"07ed68dd","defaultSelf()":"b47ce729","getCreditAccount(address)":"084b0a97","kernel()":"d4aae0c4","lastDefaultedTimeslot()":"dec16f07","totalCollateralized()":"66ed0653","totalCreditIssued()":"b5aca570","updateCreditAccount(address,uint256,uint256,uint256)":"05873443"},"id":112}