{"abi":[{"type":"constructor","inputs":[],"stateMutability":"nonpayable"},{"type":"function","name":"activePolicies","inputs":[{"name":"","type":"uint256","internalType":"uint256"}],"outputs":[{"name":"","type":"address","internalType":"contract Policy"}],"stateMutability":"view"},{"type":"function","name":"allKeycodes","inputs":[{"name":"","type":"uint256","internalType":"uint256"}],"outputs":[{"name":"","type":"bytes5","internalType":"Keycode"}],"stateMutability":"view"},{"type":"function","name":"executeAction","inputs":[{"name":"action_","type":"uint8","internalType":"enum Actions"},{"name":"target_","type":"address","internalType":"address"}],"outputs":[],"stateMutability":"nonpayable"},{"type":"function","name":"executor","inputs":[],"outputs":[{"name":"","type":"address","internalType":"address"}],"stateMutability":"view"},{"type":"function","name":"getDependentIndex","inputs":[{"name":"","type":"bytes5","internalType":"Keycode"},{"name":"","type":"address","internalType":"contract Policy"}],"outputs":[{"name":"","type":"uint256","internalType":"uint256"}],"stateMutability":"view"},{"type":"function","name":"getKeycodeForModule","inputs":[{"name":"","type":"address","internalType":"contract Module"}],"outputs":[{"name":"","type":"bytes5","internalType":"Keycode"}],"stateMutability":"view"},{"type":"function","name":"getModuleForKeycode","inputs":[{"name":"","type":"bytes5","internalType":"Keycode"}],"outputs":[{"name":"","type":"address","internalType":"contract Module"}],"stateMutability":"view"},{"type":"function","name":"getPolicyIndex","inputs":[{"name":"","type":"address","internalType":"contract Policy"}],"outputs":[{"name":"","type":"uint256","internalType":"uint256"}],"stateMutability":"view"},{"type":"function","name":"isPolicyActive","inputs":[{"name":"policy_","type":"address","internalType":"contract Policy"}],"outputs":[{"name":"","type":"bool","internalType":"bool"}],"stateMutability":"view"},{"type":"function","name":"moduleDependents","inputs":[{"name":"","type":"bytes5","internalType":"Keycode"},{"name":"","type":"uint256","internalType":"uint256"}],"outputs":[{"name":"","type":"address","internalType":"contract Policy"}],"stateMutability":"view"},{"type":"function","name":"modulePermissions","inputs":[{"name":"","type":"bytes5","internalType":"Keycode"},{"name":"","type":"address","internalType":"contract Policy"},{"name":"","type":"bytes4","internalType":"bytes4"}],"outputs":[{"name":"","type":"bool","internalType":"bool"}],"stateMutability":"view"},{"type":"event","name":"ActionExecuted","inputs":[{"name":"action_","type":"uint8","indexed":true,"internalType":"enum Actions"},{"name":"target_","type":"address","indexed":true,"internalType":"address"}],"anonymous":false},{"type":"event","name":"PermissionsUpdated","inputs":[{"name":"keycode_","type":"bytes5","indexed":true,"internalType":"Keycode"},{"name":"policy_","type":"address","indexed":true,"internalType":"contract Policy"},{"name":"funcSelector_","type":"bytes4","indexed":false,"internalType":"bytes4"},{"name":"granted_","type":"bool","indexed":false,"internalType":"bool"}],"anonymous":false},{"type":"error","name":"InvalidKeycode","inputs":[{"name":"keycode_","type":"bytes5","internalType":"Keycode"}]},{"type":"error","name":"Kernel_InvalidModuleUpgrade","inputs":[{"name":"module_","type":"bytes5","internalType":"Keycode"}]},{"type":"error","name":"Kernel_ModuleAlreadyInstalled","inputs":[{"name":"module_","type":"bytes5","internalType":"Keycode"}]},{"type":"error","name":"Kernel_OnlyExecutor","inputs":[{"name":"caller_","type":"address","internalType":"address"}]},{"type":"error","name":"Kernel_PolicyAlreadyActivated","inputs":[{"name":"policy_","type":"address","internalType":"address"}]},{"type":"error","name":"Kernel_PolicyNotActivated","inputs":[{"name":"policy_","type":"address","internalType":"address"}]},{"type":"error","name":"TargetNotAContract","inputs":[{"name":"target_","type":"address","internalType":"address"}]}],"bytecode":{"object":"0x608060405234801561001057600080fd5b50600080546001600160a01b031916331790556117f8806100326000396000f3fe608060405234801561001057600080fd5b50600436106100c85760003560e01c8063b4dc00b411610081578063dbb61ee71161005b578063dbb61ee7146101f6578063e52223bb14610209578063f166d9eb1461022c57600080fd5b8063b4dc00b4146101a5578063c34c08e5146101ce578063c4d1f8f1146101e157600080fd5b80635af099c9116100b25780635af099c91461013657806363a6e3b514610149578063ae5f76fa1461016957600080fd5b80620dd95d146100cd57806303c02f42146100fd575b600080fd5b6100e06100db3660046113e2565b610260565b6040516001600160a01b0390911681526020015b60405180910390f35b61012861010b366004611423565b600560209081526000928352604080842090915290825290205481565b6040519081526020016100f4565b6100e061014436600461145c565b610298565b610128610157366004611475565b60086020526000908152604090205481565b61018c610177366004611475565b60036020526000908152604090205460d81b81565b6040516001600160d81b031990911681526020016100f4565b6100e06101b3366004611499565b6002602052600090815260409020546001600160a01b031681565b6000546100e0906001600160a01b031681565b6101f46101ef3660046114b6565b6102c2565b005b61018c61020436600461145c565b610515565b61021c610217366004611475565b61054c565b60405190151581526020016100f4565b61021c61023a366004611506565b600660209081526000938452604080852082529284528284209052825290205460ff1681565b6004602052816000526040600020818154811061027c57600080fd5b6000918252602090912001546001600160a01b03169150829050565b600781815481106102a857600080fd5b6000918252602090912001546001600160a01b0316905081565b6000546001600160a01b0316331461030c576040517e37c7b30000000000000000000000000000000000000000000000000000000081523360048201526024015b60405180910390fd5b600082600581111561032057610320611551565b036103a65761032e816105a6565b610398816001600160a01b0316631ae7ec2e6040518163ffffffff1660e01b8152600401602060405180830381865afa15801561036f573d6000803e3d6000fd5b505050506040513d601f19601f820116820180604052508101906103939190611567565b6105f8565b6103a181610701565b6104cc565b60018260058111156103ba576103ba611551565b03610412576103c8816105a6565b610409816001600160a01b0316631ae7ec2e6040518163ffffffff1660e01b8152600401602060405180830381865afa15801561036f573d6000803e3d6000fd5b6103a1816108cb565b600282600581111561042657610426611551565b0361043d57610434816105a6565b6103a181610a70565b600382600581111561045157610451611551565b036104685761045f816105a6565b6103a181610ce2565b600482600581111561047c5761047c611551565b036104a157600080546001600160a01b0319166001600160a01b0383161790556104cc565b60058260058111156104b5576104b5611551565b036104cc576104c3816105a6565b6104cc81610e9d565b806001600160a01b03168260058111156104e8576104e8611551565b6040517f6560dd86d70bf03c0005b3533cc115fa8b8a12b4ee11c7342ae7b32d82267c9090600090a35050565b6001818154811061052557600080fd5b9060005260206000209060069182820401919006600502915054906101000a900460d81b81565b600754600090158015906105a057506001600160a01b03821660008181526008602052604090205460078054909190811061058957610589611584565b6000918252602090912001546001600160a01b0316145b92915050565b806001600160a01b03163b6000036105f5576040517f6f46ea740000000000000000000000000000000000000000000000000000000081526001600160a01b0382166004820152602401610303565b50565b8060005b60058110156106fc57600082826005811061061957610619611584565b1a60f81b90507f41000000000000000000000000000000000000000000000000000000000000007fff00000000000000000000000000000000000000000000000000000000000000821610806106b057507f5a000000000000000000000000000000000000000000000000000000000000007fff000000000000000000000000000000000000000000000000000000000000008216115b156106f3576040517f3afbb8280000000000000000000000000000000000000000000000000000000081526001600160d81b031985166004820152602401610303565b506001016105fc565b505050565b6000816001600160a01b0316631ae7ec2e6040518163ffffffff1660e01b8152600401602060405180830381865afa158015610741573d6000803e3d6000fd5b505050506040513d601f19601f820116820180604052508101906107659190611567565b6001600160d81b031981166000908152600260205260409020549091506001600160a01b0316156107ce576040517f8806c6660000000000000000000000000000000000000000000000000000000081526001600160d81b031982166004820152602401610303565b6001600160d81b03198116600090815260026020908152604080832080546001600160a01b0319166001600160a01b0387169081179091558084526003909252808320805464ffffffffff191660d886901c9081179091556001805480820182559085527fb10e2d527612073b26eecdfd717e6a320cf44b4afac2b0732d9fcbe2b7fa0cf6600680830491909101805464ffffffffff929093066005026101000a9182021990921692029190911790558051633a990e4560e21b81529051919263ea6439149260048084019382900301818387803b1580156108af57600080fd5b505af11580156108c3573d6000803e3d6000fd5b505050505050565b6000816001600160a01b0316631ae7ec2e6040518163ffffffff1660e01b8152600401602060405180830381865afa15801561090b573d6000803e3d6000fd5b505050506040513d601f19601f8201168201806040525081019061092f9190611567565b6001600160d81b031981166000908152600260205260409020549091506001600160a01b03168015806109735750826001600160a01b0316816001600160a01b0316145b156109b6576040517f073e07310000000000000000000000000000000000000000000000000000000081526001600160d81b031983166004820152602401610303565b6001600160a01b038181166000908152600360209081526040808320805464ffffffffff19908116909155938716808452818420805490951660d888901c179094556001600160d81b031986168352600290915280822080546001600160a01b031916841790558051633a990e4560e21b8152905163ea6439149260048084019391929182900301818387803b158015610a4f57600080fd5b505af1158015610a63573d6000803e3d6000fd5b505050506106fc82611006565b610a798161054c565b15610abb576040517f224b18770000000000000000000000000000000000000000000000000000000081526001600160a01b0382166004820152602401610303565b600780546001808201835560008390527fa66cc928b5edb82af9bd49922954155ab7b0942694bea4ce44661d9a8736c68890910180546001600160a01b0319166001600160a01b0385161790559054610b14919061159a565b6001600160a01b0382166000818152600860205260408082209390935582517f9459b87500000000000000000000000000000000000000000000000000000000815292519092639459b8759160048083019286929190829003018183875af1158015610b84573d6000803e3d6000fd5b505050506040513d6000823e601f3d908101601f19168201604052610bac919081019061164f565b805190915060005b81811015610c65576000838281518110610bd057610bd0611584565b6020908102919091018101516001600160d81b03198116600081815260048452604081208054600180820183558284529583200180546001600160a01b0319166001600160a01b038c1617905591905254909250610c2e919061159a565b6001600160d81b031990911660009081526005602090815260408083206001600160a01b0389168452909152902055600101610bb4565b506000836001600160a01b0316635924be706040518163ffffffff1660e01b8152600401600060405180830381865afa158015610ca6573d6000803e3d6000fd5b505050506040513d6000823e601f3d908101601f19168201604052610cce91908101906116ee565b9050610cdc84826001611111565b50505050565b610ceb8161054c565b610d2c576040517f22cd55c50000000000000000000000000000000000000000000000000000000081526001600160a01b0382166004820152602401610303565b6000816001600160a01b0316635924be706040518163ffffffff1660e01b8152600401600060405180830381865afa158015610d6c573d6000803e3d6000fd5b505050506040513d6000823e601f3d908101601f19168201604052610d9491908101906116ee565b9050610da282826000611111565b6001600160a01b03821660009081526008602052604081205460078054919291610dce9060019061159a565b81548110610dde57610dde611584565b600091825260209091200154600780546001600160a01b039092169250829184908110610e0d57610e0d611584565b9060005260206000200160006101000a8154816001600160a01b0302191690836001600160a01b031602179055506007805480610e4c57610e4c6117ac565b60008281526020808220830160001990810180546001600160a01b03191690559092019092556001600160a01b038381168352600890915260408083208590559086168252812055610cdc84611202565b60015460005b81811015610f6b5760006002600060018481548110610ec457610ec4611584565b6000918252602080832060068084049091015492066005026101000a90910460d81b6001600160d81b03191683528201929092526040908101909120549051631195ecdb60e21b81526001600160a01b03868116600483015290911691508190634657b36c90602401600060405180830381600087803b158015610f4757600080fd5b505af1158015610f5b573d6000803e3d6000fd5b5050505081600101915050610ea3565b5060075460005b81811015610cdc57600060078281548110610f8f57610f8f611584565b600091825260209091200154604051631195ecdb60e21b81526001600160a01b03878116600483015290911691508190634657b36c90602401600060405180830381600087803b158015610fe257600080fd5b505af1158015610ff6573d6000803e3d6000fd5b5050505081600101915050610f72565b6001600160d81b0319811660009081526004602090815260408083208054825181850281018501909352808352919290919083018282801561107157602002820191906000526020600020905b81546001600160a01b03168152600190910190602001808311611053575b505083519394506000925050505b81811015610cdc5782818151811061109957611099611584565b60200260200101516001600160a01b0316639459b8756040518163ffffffff1660e01b81526004016000604051808303816000875af11580156110e0573d6000803e3d6000fd5b505050506040513d6000823e601f3d908101601f19168201604052611108919081019061164f565b5060010161107f565b815160005b818110156111fb57600084828151811061113257611132611584565b60209081029190910181015180516001600160d81b031990811660009081526006845260408082206001600160a01b038c1680845290865281832085870180517fffffffff00000000000000000000000000000000000000000000000000000000908116865291885293839020805460ff19168c1515908117909155865194518451921682529681019690965293955092939116917ff3cdd20c5574ce87c347ea71e37b8fa7a095894be4b7f2bb1533e8d2342965f1910160405180910390a350600101611116565b5050505050565b6000816001600160a01b0316639459b8756040518163ffffffff1660e01b81526004016000604051808303816000875af1158015611244573d6000803e3d6000fd5b505050506040513d6000823e601f3d908101601f1916820160405261126c919081019061164f565b805190915060005b81811015610cdc57600083828151811061129057611290611584565b6020908102919091018101516001600160d81b031981166000908152600483526040808220600585528183206001600160a01b038b16845290945281205483549294509183906112e29060019061159a565b815481106112f2576112f2611584565b9060005260206000200160009054906101000a90046001600160a01b031690508083838154811061132557611325611584565b9060005260206000200160006101000a8154816001600160a01b0302191690836001600160a01b0316021790555082805480611363576113636117ac565b60008281526020808220600019908401810180546001600160a01b03191690559092019092556001600160d81b03199590951681526005855260408082206001600160a01b03938416835290955284812092909255871681529182209190915550600101611274565b6001600160d81b0319811681146105f557600080fd5b600080604083850312156113f557600080fd5b8235611400816113cc565b946020939093013593505050565b6001600160a01b03811681146105f557600080fd5b6000806040838503121561143657600080fd5b8235611441816113cc565b915060208301356114518161140e565b809150509250929050565b60006020828403121561146e57600080fd5b5035919050565b60006020828403121561148757600080fd5b81356114928161140e565b9392505050565b6000602082840312156114ab57600080fd5b8135611492816113cc565b600080604083850312156114c957600080fd5b82356006811061144157600080fd5b7fffffffff00000000000000000000000000000000000000000000000000000000811681146105f557600080fd5b60008060006060848603121561151b57600080fd5b8335611526816113cc565b925060208401356115368161140e565b91506040840135611546816114d8565b809150509250925092565b634e487b7160e01b600052602160045260246000fd5b60006020828403121561157957600080fd5b8151611492816113cc565b634e487b7160e01b600052603260045260246000fd5b818103818111156105a057634e487b7160e01b600052601160045260246000fd5b634e487b7160e01b600052604160045260246000fd5b6040805190810167ffffffffffffffff811182821017156115f4576115f46115bb565b60405290565b604051601f8201601f1916810167ffffffffffffffff81118282101715611623576116236115bb565b604052919050565b600067ffffffffffffffff821115611645576116456115bb565b5060051b60200190565b6000602080838503121561166257600080fd5b825167ffffffffffffffff81111561167957600080fd5b8301601f8101851361168a57600080fd5b805161169d6116988261162b565b6115fa565b81815260059190911b820183019083810190878311156116bc57600080fd5b928401925b828410156116e35783516116d4816113cc565b825292840192908401906116c1565b979650505050505050565b6000602080838503121561170157600080fd5b825167ffffffffffffffff81111561171857600080fd5b8301601f8101851361172957600080fd5b80516117376116988261162b565b81815260069190911b8201830190838101908783111561175657600080fd5b928401925b828410156116e357604084890312156117745760008081fd5b61177c6115d1565b8451611787816113cc565b815284860151611796816114d8565b818701528252604093909301929084019061175b565b634e487b7160e01b600052603160045260246000fdfea26469706673582212207d6fad6ae3c7a3e7e2804b68b670fb88577e23d188e9989435824335b04e402a64736f6c63430008170033","linkReferences":{}},"methodIdentifiers":{"activePolicies(uint256)":"5af099c9","allKeycodes(uint256)":"dbb61ee7","executeAction(uint8,address)":"c4d1f8f1","executor()":"c34c08e5","getDependentIndex(bytes5,address)":"03c02f42","getKeycodeForModule(address)":"ae5f76fa","getModuleForKeycode(bytes5)":"b4dc00b4","getPolicyIndex(address)":"63a6e3b5","isPolicyActive(address)":"e52223bb","moduleDependents(bytes5,uint256)":"000dd95d","modulePermissions(bytes5,address,bytes4)":"f166d9eb"},"id":110}