{"abi":[{"type":"constructor","inputs":[{"name":"_kernel","type":"address","internalType":"contract Kernel"},{"name":"_inflationRateBasis","type":"uint8","internalType":"uint8"},{"name":"_anchorLiqThreshold","type":"uint16","internalType":"uint16"},{"name":"_liqScaleFactor","type":"uint128","internalType":"uint128"},{"name":"_emissionsRecipient","type":"address","internalType":"address"},{"name":"_blast","type":"address","internalType":"address"},{"name":"_blastGovernor","type":"address","internalType":"address"}],"stateMutability":"nonpayable"},{"type":"function","name":"ANCHOR_WIDTH","inputs":[],"outputs":[{"name":"","type":"int24","internalType":"int24"}],"stateMutability":"view"},{"type":"function","name":"BPOOL","inputs":[],"outputs":[{"name":"","type":"address","internalType":"contract BPOOLv1"}],"stateMutability":"view"},{"type":"function","name":"CREDT","inputs":[],"outputs":[{"name":"","type":"address","internalType":"contract CREDTv1"}],"stateMutability":"view"},{"type":"function","name":"DISCOVERY_WIDTH","inputs":[],"outputs":[{"name":"","type":"int24","internalType":"int24"}],"stateMutability":"view"},{"type":"function","name":"EMISSIONS_DISTRIBUTOR","inputs":[],"outputs":[{"name":"","type":"address","internalType":"address"}],"stateMutability":"view"},{"type":"function","name":"INFLATION_RATE","inputs":[],"outputs":[{"name":"","type":"uint256","internalType":"uint256"}],"stateMutability":"view"},{"type":"function","name":"LIQ_SCALE_FACTOR","inputs":[],"outputs":[{"name":"","type":"uint256","internalType":"uint256"}],"stateMutability":"view"},{"type":"function","name":"LIQ_THICKNESS","inputs":[],"outputs":[{"name":"","type":"uint256","internalType":"uint256"}],"stateMutability":"view"},{"type":"function","name":"bAsset","inputs":[],"outputs":[{"name":"","type":"address","internalType":"contract ERC20"}],"stateMutability":"view"},{"type":"function","name":"bump","inputs":[],"outputs":[{"name":"","type":"bool","internalType":"bool"}],"stateMutability":"nonpayable"},{"type":"function","name":"canSlide","inputs":[],"outputs":[{"name":"","type":"bool","internalType":"bool"}],"stateMutability":"view"},{"type":"function","name":"canSweep","inputs":[],"outputs":[{"name":"","type":"bool","internalType":"bool"}],"stateMutability":"view"},{"type":"function","name":"changeKernel","inputs":[{"name":"newKernel_","type":"address","internalType":"contract Kernel"}],"outputs":[],"stateMutability":"nonpayable"},{"type":"function","name":"checkpointTick","inputs":[],"outputs":[{"name":"","type":"int24","internalType":"int24"}],"stateMutability":"view"},{"type":"function","name":"configureDependencies","inputs":[],"outputs":[{"name":"dependencies","type":"bytes5[]","internalType":"Keycode[]"}],"stateMutability":"nonpayable"},{"type":"function","name":"feeRecipient","inputs":[],"outputs":[{"name":"","type":"address","internalType":"address"}],"stateMutability":"view"},{"type":"function","name":"getCirculatingSupply","inputs":[],"outputs":[{"name":"","type":"uint256","internalType":"uint256"}],"stateMutability":"view"},{"type":"function","name":"getCurrentThreshold","inputs":[],"outputs":[{"name":"threshold_","type":"uint128","internalType":"uint128"}],"stateMutability":"view"},{"type":"function","name":"getPosition","inputs":[{"name":"_range","type":"uint8","internalType":"enum Range"}],"outputs":[{"name":"","type":"tuple","internalType":"struct Position","components":[{"name":"liquidity","type":"uint128","internalType":"uint128"},{"name":"sqrtPriceL","type":"uint160","internalType":"uint160"},{"name":"sqrtPriceU","type":"uint160","internalType":"uint160"},{"name":"bAssets","type":"uint256","internalType":"uint256"},{"name":"reserves","type":"uint256","internalType":"uint256"},{"name":"capacity","type":"uint256","internalType":"uint256"}]}],"stateMutability":"view"},{"type":"function","name":"getRebalanceTicks","inputs":[],"outputs":[{"name":"","type":"int24","internalType":"int24"}],"stateMutability":"view"},{"type":"function","name":"getTotalCapacity","inputs":[],"outputs":[{"name":"totalCapacity_","type":"uint256","internalType":"uint256"}],"stateMutability":"view"},{"type":"function","name":"isActive","inputs":[],"outputs":[{"name":"","type":"bool","internalType":"bool"}],"stateMutability":"view"},{"type":"function","name":"kernel","inputs":[],"outputs":[{"name":"","type":"address","internalType":"contract Kernel"}],"stateMutability":"view"},{"type":"function","name":"owner","inputs":[],"outputs":[{"name":"","type":"address","internalType":"address"}],"stateMutability":"view"},{"type":"function","name":"pool","inputs":[],"outputs":[{"name":"","type":"address","internalType":"contract IUniswapV3Pool"}],"stateMutability":"view"},{"type":"function","name":"requestPermissions","inputs":[],"outputs":[{"name":"requests","type":"tuple[]","internalType":"struct Permissions[]","components":[{"name":"keycode","type":"bytes5","internalType":"Keycode"},{"name":"funcSelector","type":"bytes4","internalType":"bytes4"}]}],"stateMutability":"view"},{"type":"function","name":"reserve","inputs":[],"outputs":[{"name":"","type":"address","internalType":"contract ERC20"}],"stateMutability":"view"},{"type":"function","name":"setFeeRecipient","inputs":[{"name":"_newRecipient","type":"address","internalType":"address"}],"outputs":[],"stateMutability":"nonpayable"},{"type":"function","name":"slide","inputs":[],"outputs":[{"name":"","type":"bool","internalType":"bool"}],"stateMutability":"nonpayable"},{"type":"function","name":"sweep","inputs":[],"outputs":[{"name":"","type":"bool","internalType":"bool"}],"stateMutability":"nonpayable"},{"type":"function","name":"transferOwnership","inputs":[{"name":"newOwner","type":"address","internalType":"address"}],"outputs":[],"stateMutability":"nonpayable"},{"type":"event","name":"Bump","inputs":[{"name":"bAssetsCirculating","type":"uint256","indexed":false,"internalType":"uint256"},{"name":"bAssetsIssued","type":"uint256","indexed":false,"internalType":"uint256"}],"anonymous":false},{"type":"event","name":"Initialized","inputs":[{"name":"initialFloorTickL","type":"int24","indexed":false,"internalType":"int24"},{"name":"initialActiveTick","type":"int24","indexed":false,"internalType":"int24"},{"name":"initialReservesA","type":"uint256","indexed":false,"internalType":"uint256"},{"name":"initialReservesF","type":"uint256","indexed":false,"internalType":"uint256"},{"name":"initialSpotSupply","type":"uint256","indexed":false,"internalType":"uint256"},{"name":"initialCollateralSupply","type":"uint256","indexed":false,"internalType":"uint256"}],"anonymous":false},{"type":"event","name":"OwnershipTransferred","inputs":[{"name":"user","type":"address","indexed":true,"internalType":"address"},{"name":"newOwner","type":"address","indexed":true,"internalType":"address"}],"anonymous":false},{"type":"event","name":"Slide","inputs":[{"name":"bAssetsCirculating","type":"uint256","indexed":false,"internalType":"uint256"}],"anonymous":false},{"type":"event","name":"Sweep","inputs":[{"name":"bAssetsCirculating","type":"uint256","indexed":false,"internalType":"uint256"}],"anonymous":false},{"type":"error","name":"CannotBumpIntoFloor","inputs":[]},{"type":"error","name":"Insolvent","inputs":[]},{"type":"error","name":"KernelAdapter_OnlyKernel","inputs":[{"name":"caller_","type":"address","internalType":"address"}]},{"type":"error","name":"Policy_ModuleDoesNotExist","inputs":[{"name":"keycode_","type":"bytes5","internalType":"Keycode"}]},{"type":"error","name":"Policy_WrongModuleVersion","inputs":[{"name":"expected_","type":"bytes","internalType":"bytes"}]},{"type":"error","name":"T","inputs":[]}],"bytecode":{"object":"0x6101006040523480156200001257600080fd5b506040516200437d3803806200437d8339810160408190526200003591620001e0565b866001600160a01b031663c34c08e56040518163ffffffff1660e01b8152600401602060405180830381865afa15801562000074573d6000803e3d6000fd5b505050506040513d601f19601f820116820180604052508101906200009a919062000296565b600080546001600160a01b03808b166001600160a01b0319928316178355600180549185169190921681179091556040519091907f8be0079c531659141344cd1fd0a4f28419497f9722a3daafe3b4186f6b6457e0908290a3506200010b60ff8716670de0b6b3a7640000620002bd565b60a05261ffff851660c0526001600160801b0384166080526001600160a01b03831660e0526200013c828262000149565b505050505050506200034b565b60405163c8992e6160e01b81526001600160a01b0383169063c8992e61906200017d906002906001908690600401620002ff565b600060405180830381600087803b1580156200019857600080fd5b505af1158015620001ad573d6000803e3d6000fd5b505050505050565b6001600160a01b0381168114620001cb57600080fd5b50565b8051620001db81620001b5565b919050565b600080600080600080600060e0888a031215620001fc57600080fd5b87516200020981620001b5565b602089015190975060ff811681146200022157600080fd5b604089015190965061ffff811681146200023a57600080fd5b60608901519095506001600160801b03811681146200025857600080fd5b93506200026860808901620001ce565b92506200027860a08901620001ce565b91506200028860c08901620001ce565b905092959891949750929550565b600060208284031215620002a957600080fd5b8151620002b681620001b5565b9392505050565b8082028115828204841417620002e357634e487b7160e01b600052601160045260246000fd5b92915050565b634e487b7160e01b600052602160045260246000fd5b6060810160038510620003165762000316620002e9565b848252600284106200032c576200032c620002e9565b60208201939093526001600160a01b0391909116604090910152919050565b60805160a05160c05160e051613fce620003af600039600081816102dd0152611a5e015260008181610334015261061d015260008181610431015261183101526000818161040a01528181610f1701528181610f5201526126f10152613fce6000f3fe608060405234801561001057600080fd5b50600436106101e55760003560e01c80636ced8cd01161010f578063b8ab24bd116100a2578063cd3293de11610071578063cd3293de14610489578063d4aae0c41461049c578063e74b981b146104af578063f2fde38b146104c257600080fd5b8063b8ab24bd14610453578063bf181e8b14610466578063c83eec911461046e578063cc9d98241461047657600080fd5b80639459b875116100de5780639459b875146103e8578063982f3bfd146103fd578063ae191ae714610405578063b381a8111461042c57600080fd5b80636ced8cd01461032f5780636f6781d314610356578063844b6846146103cd5780638da5cb5b146103d557600080fd5b80634657b36c116101875780635788030d116101565780635788030d146102d85780635924be70146102ff57806368110b2f14610314578063693076e51461031c57600080fd5b80634657b36c1461029f57806346904840146102b4578063473599c5146102c7578063524a9d11146102d057600080fd5b806322f3e2d4116101c357806322f3e2d4146102615780632b112e491461027957806335faa4161461028f578063442c18f31461029757600080fd5b806301865b46146101ea57806316f0115b146102165780631b71bf6e14610241575b600080fd5b6004546101fe90600160a01b900460020b81565b60405160029190910b81526020015b60405180910390f35b600554610229906001600160a01b031681565b6040516001600160a01b03909116815260200161020d565b6102496104d5565b6040516001600160801b03909116815260200161020d565b61026961065a565b604051901515815260200161020d565b6102816106e5565b60405190815260200161020d565b61026961081d565b610281611051565b6102b26102ad3660046139de565b6111d9565b005b600254610229906001600160a01b031681565b6101fe61015e81565b6101fe611246565b6102297f000000000000000000000000000000000000000000000000000000000000000081565b6103076112b4565b60405161020d91906139fb565b61026961146f565b600354610229906001600160a01b031681565b6102817f000000000000000000000000000000000000000000000000000000000000000081565b610369610364366004613a76565b611b3a565b60405161020d9190600060c0820190506001600160801b03835116825260208301516001600160a01b0380821660208501528060408601511660408501525050606083015160608301526080830151608083015260a083015160a083015292915050565b610269611bdf565b600154610229906001600160a01b031681565b6103f0611d17565b60405161020d9190613a97565b61026961224c565b6102817f000000000000000000000000000000000000000000000000000000000000000081565b6102817f000000000000000000000000000000000000000000000000000000000000000081565b600754610229906001600160a01b031681565b6101fe600a81565b61026961285c565b600454610229906001600160a01b031681565b600654610229906001600160a01b031681565b600054610229906001600160a01b031681565b6102b26104bd3660046139de565b612993565b6102b26104d03660046139de565b612b4a565b6000806000600360009054906101000a90046001600160a01b03166001600160a01b03166316f0115b6040518163ffffffff1660e01b8152600401602060405180830381865afa15801561052d573d6000803e3d6000fd5b505050506040513d601f19601f820116820180604052508101906105519190613ae5565b6001600160a01b0316633850c7bd6040518163ffffffff1660e01b815260040160e060405180830381865afa15801561058e573d6000803e3d6000fd5b505050506040513d601f19601f820116820180604052508101906105b29190613b41565b50505050509150915060006105dd836001600160a01b03166c01000000000000000000000000612bdf565b905060006105fc6105ee8384612c2e565b6105f66106e5565b90612c2e565b905061065161061461060f60c886613be7565b612c5c565b856127106106427f000000000000000000000000000000000000000000000000000000000000000086613c0c565b61064c9190613c39565b612fa5565b94505050505090565b600080546040517fe52223bb0000000000000000000000000000000000000000000000000000000081523060048201526001600160a01b039091169063e52223bb90602401602060405180830381865afa1580156106bc573d6000803e3d6000fd5b505050506040513d601f19601f820116820180604052508101906106e09190613c5b565b905090565b6003546040516370a0823160e01b81526001600160a01b03909116600482018190526000916370a0823190602401602060405180830381865afa158015610730573d6000803e3d6000fd5b505050506040513d601f19601f820116820180604052508101906107549190613c76565b61075e6002611b3a565b6060015161076c6001611b3a565b6060015161077a6000611b3a565b60600151600360009054906101000a90046001600160a01b03166001600160a01b03166318160ddd6040518163ffffffff1660e01b8152600401602060405180830381865afa1580156107d1573d6000803e3d6000fd5b505050506040513d601f19601f820116820180604052508101906107f59190613c76565b6107ff9190613c8f565b6108099190613c8f565b6108139190613c8f565b6106e09190613c8f565b600061082761285c565b6108315750600090565b600061083d6002611b3a565b905060006108496104d5565b6003546040516354e1d18560e11b81529192506000916001600160a01b039091169063a9c3a30a9061088090600190600401613cc4565b602060405180830381865afa15801561089d573d6000803e3d6000fd5b505050506040513d601f19601f820116820180604052508101906108c19190613ce9565b6006546040516370a0823160e01b81523060048201529192506000916001600160a01b03909116906370a0823190602401602060405180830381865afa15801561090f573d6000803e3d6000fd5b505050506040513d601f19601f820116820180604052508101906109339190613c76565b905061093d612ffa565b6109479082613d04565b6003546040516370a0823160e01b81526001600160a01b0390911660048201819052919250600091906370a0823190602401602060405180830381865afa158015610996573d6000803e3d6000fd5b505050506040513d601f19601f820116820180604052508101906109ba9190613c76565b600360009054906101000a90046001600160a01b03166001600160a01b03166318160ddd6040518163ffffffff1660e01b8152600401602060405180830381865afa158015610a0d573d6000803e3d6000fd5b505050506040513d601f19601f82011682018060405250810190610a319190613c76565b610a3b9190613c8f565b9050610a4561318c565b60035460405163630369af60e01b81526000916001600160a01b03169063630369af90610a7790600190600401613cc4565b6080604051808303816000875af1158015610a96573d6000803e3d6000fd5b505050506040513d601f19601f82011682018060405250810190610aba9190613d17565b60035460405163630369af60e01b8152919550600094506001600160a01b0316925063630369af9150610af290600290600401613cc4565b6080604051808303816000875af1158015610b11573d6000803e3d6000fd5b505050506040513d601f19601f82011682018060405250810190610b359190613d17565b93505050508082610b469190613d04565b610b509085613d04565b93506000610b5e6001611b3a565b9050866001600160801b0316866001600160801b03161015610d9457600354602080830151908a01516000926001600160a01b031691637e9b9e0a91610ba49190613443565b60408c01518c51610bb6908c90613d4d565b6040517fffffffff0000000000000000000000000000000000000000000000000000000060e086901b1681526001600160a01b0393841660048201529290911660248301526001600160801b031660448201526064016040805180830381865afa158015610c28573d6000803e3d6000fd5b505050506040513d601f19601f82011682018060405250810190610c4c9190613d74565b9150506000600560009054906101000a90046001600160a01b03166001600160a01b0316633850c7bd6040518163ffffffff1660e01b815260040160e060405180830381865afa158015610ca4573d6000803e3d6000fd5b505050506040513d601f19601f82011682018060405250810190610cc89190613b41565b505060035460208901516040808b015190517f73a3a78f0000000000000000000000000000000000000000000000000000000081526001600160a01b0392831660048201529082166024820152604481018a90528188166064820152969750600096911694506373a3a78f93506084019150610d419050565b602060405180830381865afa158015610d5e573d6000803e3d6000fd5b505050506040513d601f19601f82011682018060405250810190610d829190613ce9565b9050610d8e818a613d98565b98505050505b60035460405163509c1bd160e01b81526001600160a01b039091169063509c1bd190610dc7906001908a90600401613db8565b6060604051808303816000875af1158015610de6573d6000803e3d6000fd5b505050506040513d601f19601f82011682018060405250810190610e0a9190613ddc565b50506003546006546040516370a0823160e01b81523060048201526001600160a01b0392831693506388826546926000928a929116906370a0823190602401602060405180830381865afa158015610e66573d6000803e3d6000fd5b505050506040513d601f19601f82011682018060405250810190610e8a9190613c76565b610e949190613c8f565b6040518363ffffffff1660e01b8152600401610eb1929190613e11565b6060604051808303816000875af1158015610ed0573d6000803e3d6000fd5b505050506040513d601f19601f82011682018060405250810190610ef49190613ddc565b50506003546001600160a01b0316905063509c1bd16002610f84610f498a610f447f0000000000000000000000000000000000000000000000000000000000000000670de0b6b3a7640000613d04565b613467565b610f7f8c610f447f0000000000000000000000000000000000000000000000000000000000000000670de0b6b3a7640000613d04565b61347c565b6040518363ffffffff1660e01b8152600401610fa1929190613db8565b6060604051808303816000875af1158015610fc0573d6000803e3d6000fd5b505050506040513d601f19601f82011682018060405250810190610fe49190613ddc565b50505083610ff0611051565b101561100f57604051631f84400760e31b815260040160405180910390fd5b6040518481527ff2e5cfae4c990f32807a4db8277440db70d23f8157e11efeb28e0f8ed03b69929060200160405180910390a160019850505050505050505090565b60008061105e6000611b3a565b9050600061106c6001611b3a565b9050600061107a6002611b3a565b6003546020808601516040808801516004805483517fb5aca57000000000000000000000000000000000000000000000000000000000815293519798506000976001600160a01b0397881697638d4aafb497949592169363b5aca57093838101939192918290030181865afa1580156110f7573d6000803e3d6000fd5b505050506040513d601f19601f8201168201806040525081019061111b9190613c76565b6040517fffffffff0000000000000000000000000000000000000000000000000000000060e086901b1681526001600160a01b0393841660048201529290911660248301526044820152606401602060405180830381865afa158015611185573d6000803e3d6000fd5b505050506040513d601f19601f820116820180604052508101906111a99190613c76565b90508160a001518360a001518560a00151836111c59190613d04565b6111cf9190613d04565b6106519190613d04565b6000546001600160a01b03163314611224576040517f14fa403c0000000000000000000000000000000000000000000000000000000081523360048201526024015b60405180910390fd5b600080546001600160a01b0319166001600160a01b0392909216919091179055565b600354604080516346ca626b60e01b815290516000926001600160a01b0316916346ca626b9160048083019260209291908290030181865afa158015611290573d6000803e3d6000fd5b505050506040513d601f19601f820116820180604052508101906106e09190613e2c565b60408051600680825260e0820190925260609164109413d3d360da1b9190602082015b60408051808201909152600080825260208201528152602001906001900390816112d7575050604080518082019091526001600160d81b03198316815263444132a360e11b6020820152815191935090839060009061133857611338613e47565b602090810291909101810191909152604080518082019091526001600160d81b03198316815263509c1bd160e01b9181019190915282518390600190811061138257611382613e47565b602090810291909101810191909152604080518082019091526001600160d81b03198316815263630369af60e01b918101919091528251839060029081106113cc576113cc613e47565b602090810291909101810191909152604080518082019091526001600160d81b0319831681526340c10f1960e01b9181019190915282518390600390811061141657611416613e47565b602090810291909101810191909152604080518082019091526001600160d81b031983168152635f9b2d7160e11b9181019190915282518390600490811061146057611460613e47565b60200260200101819052505090565b6003546040516354e1d18560e11b815260009182916001600160a01b039091169063a9c3a30a906114a590600190600401613cc4565b602060405180830381865afa1580156114c2573d6000803e3d6000fd5b505050506040513d601f19601f820116820180604052508101906114e69190613ce9565b6003546040516354e1d18560e11b81529192506000916001600160a01b039091169063a9c3a30a9061151d90600290600401613cc4565b602060405180830381865afa15801561153a573d6000803e3d6000fd5b505050506040513d601f19601f8201168201806040525081019061155e9190613ce9565b6006546040516370a0823160e01b81523060048201529192506000916001600160a01b03909116906370a0823190602401602060405180830381865afa1580156115ac573d6000803e3d6000fd5b505050506040513d601f19601f820116820180604052508101906115d09190613c76565b90506115da612ffa565b6115e49082613d04565b90506115ee6134a0565b611624576040517f0e48809e00000000000000000000000000000000000000000000000000000000815260040160405180910390fd5b60035460405163630369af60e01b81526000916001600160a01b03169063630369af90611655908490600401613cc4565b6080604051808303816000875af1158015611674573d6000803e3d6000fd5b505050506040513d601f19601f820116820180604052508101906116989190613d17565b60035460405163630369af60e01b8152919550600094506001600160a01b0316925063630369af91506116d090600190600401613cc4565b6080604051808303816000875af11580156116ef573d6000803e3d6000fd5b505050506040513d601f19601f820116820180604052508101906117139190613d17565b935050505080826117249190613d04565b61172e9084613d04565b6003546040516370a0823160e01b81526001600160a01b0390911660048201819052919450600091906370a0823190602401602060405180830381865afa15801561177d573d6000803e3d6000fd5b505050506040513d601f19601f820116820180604052508101906117a19190613c76565b600360009054906101000a90046001600160a01b03166001600160a01b03166318160ddd6040518163ffffffff1660e01b8152600401602060405180830381865afa1580156117f4573d6000803e3d6000fd5b505050506040513d601f19601f820116820180604052508101906118189190613c76565b6118229190613c8f565b9050600061185c6118556127107f0000000000000000000000000000000000000000000000000000000000000000613c39565b8390612c2e565b90506118688183613d04565b60035460405163509c1bd160e01b81529193506001600160a01b03169063509c1bd19061189c906001908b90600401613db8565b6060604051808303816000875af11580156118bb573d6000803e3d6000fd5b505050506040513d601f19601f820116820180604052508101906118df9190613ddc565b505060035460405163509c1bd160e01b81526001600160a01b03909116915063509c1bd190611915906002908a90600401613db8565b6060604051808303816000875af1158015611934573d6000803e3d6000fd5b505050506040513d601f19601f820116820180604052508101906119589190613ddc565b50506003546006546040516370a0823160e01b81523060048201526001600160a01b0392831693506388826546926000928a929116906370a0823190602401602060405180830381865afa1580156119b4573d6000803e3d6000fd5b505050506040513d601f19601f820116820180604052508101906119d89190613c76565b6119e29190613c8f565b6040518363ffffffff1660e01b81526004016119ff929190613e11565b6060604051808303816000875af1158015611a1e573d6000803e3d6000fd5b505050506040513d601f19601f82011682018060405250810190611a429190613ddc565b50506003546040516340c10f1960e01b81526001600160a01b037f0000000000000000000000000000000000000000000000000000000000000000811660048301526024820185905290911691506340c10f1990604401600060405180830381600087803b158015611ab357600080fd5b505af1158015611ac7573d6000803e3d6000fd5b5050505081611ad4611051565b1015611af357604051631f84400760e31b815260040160405180910390fd5b60408051838152602081018390527f1cd19c9bba61405ce64ab66214939cbda8d8bd69579a43f2789140288e67b101910160405180910390a1600197505050505050505090565b6040805160c081018252600080825260208201819052818301819052606082018190526080820181905260a08201526003549151636f6781d360e01b815290916001600160a01b031690636f6781d390611b98908590600401613cc4565b60c060405180830381865afa158015611bb5573d6000803e3d6000fd5b505050506040513d601f19601f82011682018060405250810190611bd99190613e5d565b92915050565b600080600560009054906101000a90046001600160a01b03166001600160a01b0316633850c7bd6040518163ffffffff1660e01b815260040160e060405180830381865afa158015611c35573d6000803e3d6000fd5b505050506040513d601f19601f82011682018060405250810190611c599190613b41565b5050600354604051632fcc4dd960e21b8152949650600095506001600160a01b03169363bf3137649350611c94925060029150600401613cc4565b6040805180830381865afa158015611cb0573d6000803e3d6000fd5b505050506040513d601f19601f82011682018060405250810190611cd49190613ef8565b509050611cdf611246565b600454611cf69190600160a01b900460020b613be7565b60020b8260020b13158015611d1057508060020b8260020b125b9250505090565b604080516002808252606080830184529260208301908036833701905050905064109413d3d360da1b81600081518110611d5357611d53613e47565b6001600160d81b031990921660209283029190910190910152611d7b6410d491511560da1b90565b81600181518110611d8e57611d8e613e47565b6001600160d81b031990921660209283029190910190910152611dbe611db964109413d3d360da1b90565b61376e565b600380546001600160a01b0319166001600160a01b0392909216919091179055611def6410d491511560da1b61376e565b600480546001600160a01b0319166001600160a01b03928316178155600354604080517f16f0115b000000000000000000000000000000000000000000000000000000008152905191909316926316f0115b92818101926020929091908290030181865afa158015611e65573d6000803e3d6000fd5b505050506040513d601f19601f82011682018060405250810190611e899190613ae5565b600580546001600160a01b0319166001600160a01b03928316179055600354604080516346ca626b60e01b8152905191909216916346ca626b9160048083019260209291908290030181865afa158015611ee7573d6000803e3d6000fd5b505050506040513d601f19601f82011682018060405250810190611f0b9190613e2c565b6007805462ffffff92909216600160a01b0262ffffff60a01b19909216919091179055600554604080517f3850c7bd00000000000000000000000000000000000000000000000000000000815290516000926001600160a01b031691633850c7bd9160048083019260e09291908290030181865afa158015611f91573d6000803e3d6000fd5b505050506040513d601f19601f82011682018060405250810190611fb59190613b41565b50506004805462ffffff909516600160a01b0262ffffff60a01b19909516949094179093555091925050506001600160a01b0381166000036120395760405162461bcd60e51b815260206004820152600860248201527f3a59455357484154000000000000000000000000000000000000000000000000604482015260640161121b565b600360009054906101000a90046001600160a01b03166001600160a01b031663cd3293de6040518163ffffffff1660e01b8152600401602060405180830381865afa15801561208c573d6000803e3d6000fd5b505050506040513d601f19601f820116820180604052508101906120b09190613ae5565b600680546001600160a01b039283166001600160a01b0319918216179091556003546007805490921692169182179055604080517fcd3293de000000000000000000000000000000000000000000000000000000008152905163cd3293de916004808201926020929091908290030181865afa158015612134573d6000803e3d6000fd5b505050506040513d601f19601f820116820180604052508101906121589190613ae5565b60035460405163095ea7b360e01b81526001600160a01b039182166004820152600019602482015291169063095ea7b3906044016020604051808303816000875af11580156121ab573d6000803e3d6000fd5b505050506040513d601f19601f820116820180604052508101906121cf9190613c5b565b5060035460405163095ea7b360e01b81526001600160a01b039091166004820181905260001960248301529063095ea7b3906044016020604051808303816000875af1158015612223573d6000803e3d6000fd5b505050506040513d601f19601f820116820180604052508101906122479190613c5b565b505090565b6000612256611bdf565b6122605750600090565b600354604051636f6781d360e01b81526000916001600160a01b031690636f6781d39061229290600190600401613cc4565b60c060405180830381865afa1580156122af573d6000803e3d6000fd5b505050506040513d601f19601f820116820180604052508101906122d39190613e5d565b608001516006546040516370a0823160e01b81523060048201529192506000916001600160a01b03909116906370a0823190602401602060405180830381865afa158015612325573d6000803e3d6000fd5b505050506040513d601f19601f820116820180604052508101906123499190613c76565b9050612353612ffa565b61235d9082613d04565b6003546040516370a0823160e01b81526001600160a01b0390911660048201819052919250600091906370a0823190602401602060405180830381865afa1580156123ac573d6000803e3d6000fd5b505050506040513d601f19601f820116820180604052508101906123d09190613c76565b600360009054906101000a90046001600160a01b03166001600160a01b03166318160ddd6040518163ffffffff1660e01b8152600401602060405180830381865afa158015612423573d6000803e3d6000fd5b505050506040513d601f19601f820116820180604052508101906124479190613c76565b6124519190613c8f565b905061245b61318c565b60035460405163630369af60e01b81526000916001600160a01b03169063630369af9061248d90600190600401613cc4565b6080604051808303816000875af11580156124ac573d6000803e3d6000fd5b505050506040513d601f19601f820116820180604052508101906124d09190613d17565b60035460405163630369af60e01b8152919550600094506001600160a01b0316925063630369af915061250890600290600401613cc4565b6080604051808303816000875af1158015612527573d6000803e3d6000fd5b505050506040513d601f19601f8201168201806040525081019061254b9190613d17565b9350505050808261255c9190613d04565b6125669085613d04565b60035460405163444132a360e11b81529195506001600160a01b03169063888265469061259a906001908990600401613e11565b6060604051808303816000875af11580156125b9573d6000803e3d6000fd5b505050506040513d601f19601f820116820180604052508101906125dd9190613ddc565b50506003546006546040516370a0823160e01b81523060048201526001600160a01b03928316935063888265469260009289929116906370a0823190602401602060405180830381865afa158015612639573d6000803e3d6000fd5b505050506040513d601f19601f8201168201806040525081019061265d9190613c76565b6126679190613c8f565b6040518363ffffffff1660e01b8152600401612684929190613e11565b6060604051808303816000875af11580156126a3573d6000803e3d6000fd5b505050506040513d601f19601f820116820180604052508101906126c79190613ddc565b50506003546001600160a01b0316905063509c1bd1600261279261271e6126ec6104d5565b610f447f0000000000000000000000000000000000000000000000000000000000000000670de0b6b3a7640000613d04565b6003546040516354e1d18560e11b8152610f7f916001600160a01b03169063a9c3a30a9061275190600190600401613cc4565b602060405180830381865afa15801561276e573d6000803e3d6000fd5b505050506040513d601f19601f820116820180604052508101906126ec9190613ce9565b6040518363ffffffff1660e01b81526004016127af929190613db8565b6060604051808303816000875af11580156127ce573d6000803e3d6000fd5b505050506040513d601f19601f820116820180604052508101906127f29190613ddc565b505050826127fe611051565b101561281d57604051631f84400760e31b815260040160405180910390fd5b6040518381527ff2df2c30e167c089dd3bf08311c8bb71119ff845ab01f96df22a6fca1946c58d9060200160405180910390a160019550505050505090565b600080600560009054906101000a90046001600160a01b03166001600160a01b0316633850c7bd6040518163ffffffff1660e01b815260040160e060405180830381865afa1580156128b2573d6000803e3d6000fd5b505050506040513d601f19601f820116820180604052508101906128d69190613b41565b5050600354604051632fcc4dd960e21b8152949650600095506001600160a01b03169363bf3137649350612911925060029150600401613cc4565b6040805180830381865afa15801561292d573d6000803e3d6000fd5b505050506040513d601f19601f820116820180604052508101906129519190613ef8565b9150508060020b8260020b128015611d10575061296c611246565b6004546129839190600160a01b900460020b613f2b565b60020b8260020b12159250505090565b6001546001600160a01b031633146129dc5760405162461bcd60e51b815260206004820152600c60248201526b15539055551213d49256915160a21b604482015260640161121b565b6002546001600160a01b031615612a8657600254600654612a0b916001600160a01b039182169116600061384c565b60035460025460405163095ea7b360e01b81526001600160a01b0391821660048201526000602482015291169063095ea7b3906044016020604051808303816000875af1158015612a60573d6000803e3d6000fd5b505050506040513d601f19601f82011682018060405250810190612a849190613c5b565b505b6001600160a01b03811615612b2857600654612aae906001600160a01b03168260001961384c565b60035460405163095ea7b360e01b81526001600160a01b03838116600483015260001960248301529091169063095ea7b3906044016020604051808303816000875af1158015612b02573d6000803e3d6000fd5b505050506040513d601f19601f82011682018060405250810190612b269190613c5b565b505b600280546001600160a01b0319166001600160a01b0392909216919091179055565b6001546001600160a01b03163314612b935760405162461bcd60e51b815260206004820152600c60248201526b15539055551213d49256915160a21b604482015260640161121b565b600180546001600160a01b0319166001600160a01b03831690811790915560405133907f8be0079c531659141344cd1fd0a4f28419497f9722a3daafe3b4186f6b6457e090600090a350565b60007812725dd1d243aba0e75fe645cc4873f9e65afe688c928e1f218311670de0b6b3a764000002158202612c1c57637c5f487d6000526004601cfd5b50670de0b6b3a7640000919091020490565b600081600019048311820215612c4c5763bac65e5b6000526004601cfd5b50670de0b6b3a764000091020490565b60008060008360020b12612c73578260020b612c7b565b8260020b6000035b9050620d89e8811115612cba576040517f2bc80f3a00000000000000000000000000000000000000000000000000000000815260040160405180910390fd5b600081600116600003612cde57700100000000000000000000000000000000612cf0565b6ffffcb933bd6fad37aa2d162d1a5940015b70ffffffffffffffffffffffffffffffffff1690506002821615612d24576ffff97272373d413259a46990580e213a0260801c5b6004821615612d43576ffff2e50f5f656932ef12357cf3c7fdcc0260801c5b6008821615612d62576fffe5caca7e10e4e61c3624eaa0941cd00260801c5b6010821615612d81576fffcb9843d60f6159c9db58835c9266440260801c5b6020821615612da0576fff973b41fa98c081472e6896dfb254c00260801c5b6040821615612dbf576fff2ea16466c96a3843ec78b326b528610260801c5b6080821615612dde576ffe5dee046a99a2a811c461f1969c30530260801c5b610100821615612dfe576ffcbe86c7900a88aedcffc83b479aa3a40260801c5b610200821615612e1e576ff987a7253ac413176f2b074cf7815e540260801c5b610400821615612e3e576ff3392b0822b70005940c7a398e4b70f30260801c5b610800821615612e5e576fe7159475a2c29b7443b29c7fa6e889d90260801c5b611000821615612e7e576fd097f3bdfd2022b8845ad8f792aa58250260801c5b612000821615612e9e576fa9f746462d870fdf8a65dc1f90e061e50260801c5b614000821615612ebe576f70d869a156d2a1b890bb3df62baf32f70260801c5b618000821615612ede576f31be135f97d08fd981231505542fcfa60260801c5b62010000821615612eff576f09aa508b5b7a84e1c677de54f3e99bc90260801c5b62020000821615612f1f576e5d6af8dedb81196699c329225ee6040260801c5b62040000821615612f3e576d2216e584f5fa1ea926041bedfe980260801c5b62080000821615612f5b576b048a170391f7dc42444e8fa20260801c5b60008460020b1315612f7c578060001981612f7857612f78613c23565b0490505b640100000000810615612f90576001612f93565b60005b60ff16602082901c0192505050919050565b6000826001600160a01b0316846001600160a01b03161115612fc5579192915b612ff0612feb836c010000000000000000000000008787036001600160a01b03166138e1565b613993565b90505b9392505050565b60035460405163630369af60e01b815260009182916001600160a01b039091169063630369af9061302f908490600401613cc4565b6080604051808303816000875af115801561304e573d6000803e3d6000fd5b505050506040513d601f19601f820116820180604052508101906130729190613d17565b60035460405163630369af60e01b8152919550600094506001600160a01b0316925063630369af91506130aa90600190600401613cc4565b6080604051808303816000875af11580156130c9573d6000803e3d6000fd5b505050506040513d601f19601f820116820180604052508101906130ed9190613d17565b60035460405163630369af60e01b8152919550600094506001600160a01b0316925063630369af915061312590600290600401613cc4565b6080604051808303816000875af1158015613144573d6000803e3d6000fd5b505050506040513d601f19601f820116820180604052508101906131689190613d17565b935050505080828461317a9190613d04565b6131849190613d04565b935050505090565b600560009054906101000a90046001600160a01b03166001600160a01b0316633850c7bd6040518163ffffffff1660e01b815260040160e060405180830381865afa1580156131df573d6000803e3d6000fd5b505050506040513d601f19601f820116820180604052508101906132039190613b41565b50506004805462ffffff909516600160a01b0262ffffff60a01b199095169490941784555050600354604051632fcc4dd960e21b8152600094506001600160a01b039091169263bf313764925061325c91859101613cc4565b6040805180830381865afa158015613278573d6000803e3d6000fd5b505050506040513d601f19601f8201168201806040525081019061329c9190613ef8565b9150506000600360009054906101000a90046001600160a01b03166001600160a01b031663acd1cca66040518163ffffffff1660e01b8152600401602060405180830381865afa1580156132f4573d6000803e3d6000fd5b505050506040513d601f19601f820116820180604052508101906133189190613e2c565b60075490915060009061334a9061333a90600160a01b900460020b600a613f50565b6133449084613be7565b846139ae565b600354604051635f9b2d7160e11b81529192506001600160a01b03169063bf365ae2906133809060019085908790600401613f70565b600060405180830381600087803b15801561339a57600080fd5b505af11580156133ae573d6000803e3d6000fd5b50506003546007546001600160a01b03909116925063bf365ae2915060029085906133e490600160a01b9004830b61015e613f50565b6133ee9087613f2b565b6040518463ffffffff1660e01b815260040161340c93929190613f70565b600060405180830381600087803b15801561342657600080fd5b505af115801561343a573d6000803e3d6000fd5b50505050505050565b6000612ff3836001600160a01b0316836001600160a01b0316808218908210021890565b6000612ff36001600160801b03841683612c2e565b6000612ff3836001600160801b0316836001600160801b0316808218908210021890565b600080600560009054906101000a90046001600160a01b03166001600160a01b0316633850c7bd6040518163ffffffff1660e01b815260040160e060405180830381865afa1580156134f6573d6000803e3d6000fd5b505050506040513d601f19601f8201168201806040525081019061351a9190613b41565b5050600354604051632fcc4dd960e21b8152949650600095506001600160a01b03169363bf31376493506135549250859150600401613cc4565b6040805180830381865afa158015613570573d6000803e3d6000fd5b505050506040513d601f19601f820116820180604052508101906135949190613ef8565b600354604051632fcc4dd960e21b81529193506000925082916001600160a01b039091169063bf313764906135ce90600190600401613cc4565b6040805180830381865afa1580156135ea573d6000803e3d6000fd5b505050506040513d601f19601f8201168201806040525081019061360e9190613ef8565b600754919350915060009061362d90600160a01b900460020b85613f2b565b60075490915061364790600160a01b900460020b83613be7565b60020b8160020b138061365f57508460020b8160020b135b8061367a5750600454600160a01b9004600290810b9082900b135b1561368b5760009550505050505090565b600354604051635f9b2d7160e11b81526001600160a01b039091169063bf365ae2906136c09060009088908690600401613f70565b600060405180830381600087803b1580156136da57600080fd5b505af11580156136ee573d6000803e3d6000fd5b50506003546001600160a01b0316915063bf365ae29050600161371184876139ae565b856040518463ffffffff1660e01b815260040161373093929190613f70565b600060405180830381600087803b15801561374a57600080fd5b505af115801561375e573d6000803e3d6000fd5b5050505060019550505050505090565b600080546040517fb4dc00b40000000000000000000000000000000000000000000000000000000081526001600160d81b03198416600482015282916001600160a01b03169063b4dc00b490602401602060405180830381865afa1580156137da573d6000803e3d6000fd5b505050506040513d601f19601f820116820180604052508101906137fe9190613ae5565b90506001600160a01b038116611bd9576040517f5c3fa9cd0000000000000000000000000000000000000000000000000000000081526001600160d81b03198416600482015260240161121b565b600060405163095ea7b360e01b81526001600160a01b0384166004820152826024820152602060006044836000895af13d15601f3d11600160005114161716915050806138db5760405162461bcd60e51b815260206004820152600e60248201527f415050524f56455f4641494c4544000000000000000000000000000000000000604482015260640161121b565b50505050565b600080806000198587098587029250828110838203039150508060000361391a576000841161390f57600080fd5b508290049050612ff3565b80841161392657600080fd5b6000848688096000868103871696879004966002600389028118808a02820302808a02820302808a02820302808a02820302808a02820302808a02909103029181900381900460010186841190950394909402919094039290920491909117919091029150509392505050565b806001600160801b03811681146139a957600080fd5b919050565b6000612ff38360020b8360020b808218908212021890565b6001600160a01b03811681146139db57600080fd5b50565b6000602082840312156139f057600080fd5b8135612ff3816139c6565b602080825282518282018190526000919060409081850190868401855b82811015613a6957815180516001600160d81b03191685528601517fffffffff0000000000000000000000000000000000000000000000000000000016868501529284019290850190600101613a18565b5091979650505050505050565b600060208284031215613a8857600080fd5b813560038110612ff357600080fd5b6020808252825182820181905260009190848201906040850190845b81811015613ad95783516001600160d81b03191683529284019291840191600101613ab3565b50909695505050505050565b600060208284031215613af757600080fd5b8151612ff3816139c6565b80516139a9816139c6565b8051600281900b81146139a957600080fd5b805161ffff811681146139a957600080fd5b805180151581146139a957600080fd5b600080600080600080600060e0888a031215613b5c57600080fd5b8751613b67816139c6565b9650613b7560208901613b0d565b9550613b8360408901613b1f565b9450613b9160608901613b1f565b9350613b9f60808901613b1f565b925060a088015160ff81168114613bb557600080fd5b9150613bc360c08901613b31565b905092959891949750929550565b634e487b7160e01b600052601160045260246000fd5b600282810b9082900b03627fffff198112627fffff82131715611bd957611bd9613bd1565b8082028115828204841417611bd957611bd9613bd1565b634e487b7160e01b600052601260045260246000fd5b600082613c5657634e487b7160e01b600052601260045260246000fd5b500490565b600060208284031215613c6d57600080fd5b612ff382613b31565b600060208284031215613c8857600080fd5b5051919050565b81810381811115611bd957611bd9613bd1565b60038110613cc057634e487b7160e01b600052602160045260246000fd5b9052565b60208101611bd98284613ca2565b80516001600160801b03811681146139a957600080fd5b600060208284031215613cfb57600080fd5b612ff382613cd2565b80820180821115611bd957611bd9613bd1565b60008060008060808587031215613d2d57600080fd5b505082516020840151604085015160609095015191969095509092509050565b6001600160801b03828116828216039080821115613d6d57613d6d613bd1565b5092915050565b60008060408385031215613d8757600080fd5b505080516020909101519092909150565b6001600160801b03818116838216019080821115613d6d57613d6d613bd1565b60408101613dc68285613ca2565b6001600160801b03831660208301529392505050565b600080600060608486031215613df157600080fd5b8351925060208401519150613e0860408501613cd2565b90509250925092565b60408101613e1f8285613ca2565b8260208301529392505050565b600060208284031215613e3e57600080fd5b612ff382613b0d565b634e487b7160e01b600052603260045260246000fd5b600060c08284031215613e6f57600080fd5b60405160c0810181811067ffffffffffffffff82111715613ea057634e487b7160e01b600052604160045260246000fd5b604052613eac83613cd2565b8152613eba60208401613b02565b6020820152613ecb60408401613b02565b6040820152606083015160608201526080830151608082015260a083015160a08201528091505092915050565b60008060408385031215613f0b57600080fd5b613f1483613b0d565b9150613f2260208401613b0d565b90509250929050565b600281810b9083900b01627fffff8113627fffff1982121715611bd957611bd9613bd1565b60008260020b8260020b028060020b9150808214613d6d57613d6d613bd1565b60608101613f7e8286613ca2565b8360020b60208301528260020b604083015294935050505056fea264697066735822122025df17905634e7ba34d18edaa95173fca3db2de08d7569dd2568ab6a03dfe13164736f6c63430008170033","linkReferences":{}},"methodIdentifiers":{"ANCHOR_WIDTH()":"bf181e8b","BPOOL()":"693076e5","CREDT()":"cc9d9824","DISCOVERY_WIDTH()":"473599c5","EMISSIONS_DISTRIBUTOR()":"5788030d","INFLATION_RATE()":"b381a811","LIQ_SCALE_FACTOR()":"ae191ae7","LIQ_THICKNESS()":"6ced8cd0","bAsset()":"b8ab24bd","bump()":"68110b2f","canSlide()":"844b6846","canSweep()":"c83eec91","changeKernel(address)":"4657b36c","checkpointTick()":"01865b46","configureDependencies()":"9459b875","feeRecipient()":"46904840","getCirculatingSupply()":"2b112e49","getCurrentThreshold()":"1b71bf6e","getPosition(uint8)":"6f6781d3","getRebalanceTicks()":"524a9d11","getTotalCapacity()":"442c18f3","isActive()":"22f3e2d4","kernel()":"d4aae0c4","owner()":"8da5cb5b","pool()":"16f0115b","requestPermissions()":"5924be70","reserve()":"cd3293de","setFeeRecipient(address)":"e74b981b","slide()":"982f3bfd","sweep()":"35faa416","transferOwnership(address)":"f2fde38b"},"id":115}