{"abi":[{"type":"constructor","inputs":[{"name":"_factory","type":"address","internalType":"address"},{"name":"_WETH9","type":"address","internalType":"address"}],"stateMutability":"nonpayable"},{"type":"function","name":"WETH9","inputs":[],"outputs":[{"name":"","type":"address","internalType":"address"}],"stateMutability":"view"},{"type":"function","name":"factory","inputs":[],"outputs":[{"name":"","type":"address","internalType":"address"}],"stateMutability":"view"},{"type":"function","name":"quoteExactInput","inputs":[{"name":"path","type":"bytes","internalType":"bytes"},{"name":"amountIn","type":"uint256","internalType":"uint256"}],"outputs":[{"name":"amountOut","type":"uint256","internalType":"uint256"},{"name":"sqrtPriceX96AfterList","type":"uint160[]","internalType":"uint160[]"},{"name":"initializedTicksCrossedList","type":"uint32[]","internalType":"uint32[]"},{"name":"gasEstimate","type":"uint256","internalType":"uint256"}],"stateMutability":"nonpayable"},{"type":"function","name":"quoteExactInputSingle","inputs":[{"name":"params","type":"tuple","internalType":"struct IQuoterV2.QuoteExactInputSingleParams","components":[{"name":"tokenIn","type":"address","internalType":"address"},{"name":"tokenOut","type":"address","internalType":"address"},{"name":"amountIn","type":"uint256","internalType":"uint256"},{"name":"fee","type":"uint24","internalType":"uint24"},{"name":"sqrtPriceLimitX96","type":"uint160","internalType":"uint160"}]}],"outputs":[{"name":"amountOut","type":"uint256","internalType":"uint256"},{"name":"sqrtPriceX96After","type":"uint160","internalType":"uint160"},{"name":"initializedTicksCrossed","type":"uint32","internalType":"uint32"},{"name":"gasEstimate","type":"uint256","internalType":"uint256"}],"stateMutability":"nonpayable"},{"type":"function","name":"quoteExactOutput","inputs":[{"name":"path","type":"bytes","internalType":"bytes"},{"name":"amountOut","type":"uint256","internalType":"uint256"}],"outputs":[{"name":"amountIn","type":"uint256","internalType":"uint256"},{"name":"sqrtPriceX96AfterList","type":"uint160[]","internalType":"uint160[]"},{"name":"initializedTicksCrossedList","type":"uint32[]","internalType":"uint32[]"},{"name":"gasEstimate","type":"uint256","internalType":"uint256"}],"stateMutability":"nonpayable"},{"type":"function","name":"quoteExactOutputSingle","inputs":[{"name":"params","type":"tuple","internalType":"struct IQuoterV2.QuoteExactOutputSingleParams","components":[{"name":"tokenIn","type":"address","internalType":"address"},{"name":"tokenOut","type":"address","internalType":"address"},{"name":"amount","type":"uint256","internalType":"uint256"},{"name":"fee","type":"uint24","internalType":"uint24"},{"name":"sqrtPriceLimitX96","type":"uint160","internalType":"uint160"}]}],"outputs":[{"name":"amountIn","type":"uint256","internalType":"uint256"},{"name":"sqrtPriceX96After","type":"uint160","internalType":"uint160"},{"name":"initializedTicksCrossed","type":"uint32","internalType":"uint32"},{"name":"gasEstimate","type":"uint256","internalType":"uint256"}],"stateMutability":"nonpayable"},{"type":"function","name":"uniswapV3SwapCallback","inputs":[{"name":"amount0Delta","type":"int256","internalType":"int256"},{"name":"amount1Delta","type":"int256","internalType":"int256"},{"name":"path","type":"bytes","internalType":"bytes"}],"outputs":[],"stateMutability":"view"}],"bytecode":{"object":"0x60c06040523480156200001157600080fd5b5060405162001f1838038062001f18833981016040819052620000349162000069565b6001600160a01b039182166080521660a052620000a1565b80516001600160a01b03811681146200006457600080fd5b919050565b600080604083850312156200007d57600080fd5b62000088836200004c565b915062000098602084016200004c565b90509250929050565b60805160a051611e44620000d4600039600060b3015260008181610138015281816109550152610b750152611e446000f3fe608060405234801561001057600080fd5b506004361061007d5760003560e01c8063c45a01551161005b578063c45a015514610133578063c6a5026a1461015a578063cdca17531461016d578063fa461e331461018057600080fd5b80632f80bb1d146100825780634aa4a4fc146100ae578063bd21704a146100ed575b600080fd5b6100956100903660046117af565b610195565b6040516100a594939291906117f4565b60405180910390f35b6100d57f000000000000000000000000000000000000000000000000000000000000000081565b6040516001600160a01b0390911681526020016100a5565b6101006100fb366004611944565b61036c565b604080519485526001600160a01b03909316602085015263ffffffff9091169183019190915260608201526080016100a5565b6100d57f000000000000000000000000000000000000000000000000000000000000000081565b610100610168366004611944565b61059b565b61009561017b3660046117af565b61076b565b61019361018e366004611967565b610924565b005b600060608060006101a586610a9b565b67ffffffffffffffff8111156101bd576101bd6116ea565b6040519080825280602002602001820160405280156101e6578160200160208202803683370190505b5092506101f286610a9b565b67ffffffffffffffff81111561020a5761020a6116ea565b604051908082528060200260200182016040528015610233578160200160208202803683370190505b50915060005b60008060006102478a610ac7565b9250925092506000806000806102a36040518060a00160405280886001600160a01b03168152602001896001600160a01b031681526020018f81526020018762ffffff16815260200160006001600160a01b031681525061036c565b9350935093509350828b89815181106102be576102be6119b7565b60200260200101906001600160a01b031690816001600160a01b031681525050818a89815181106102f1576102f16119b7565b602002602001019063ffffffff16908163ffffffff1681525050839c50808961031a91906119e3565b985087610326816119f6565b9850506103328e610b03565b15610347576103408e610b3d565b9d50610357565b8c9b505050505050505050610363565b50505050505050610239565b92959194509250565b6020810151815160608301516000928392839283926001600160a01b038082169084161092849261039d9290610b6e565b905086608001516001600160a01b03166000036103bd5760408701516000555b60005a9050816001600160a01b031663128acb0830856103e08c60400151610bac565b6103e990611a0f565b60808d01516001600160a01b031615610406578c6080015161043f565b8761042f5761042a600173fffd8963efd1fc6a506488495d951d5263988d26611a2b565b61043f565b61043f6401000276a36001611a52565b8d602001518e606001518f600001516040516020016104ae93929190606093841b6bffffffffffffffffffffffff19908116825260e89390931b7fffffff0000000000000000000000000000000000000000000000000000000000166014820152921b166017820152602b0190565b6040516020818303038152906040526040518663ffffffff1660e01b81526004016104dd959493929190611ac2565b60408051808303816000875af1925050508015610517575060408051601f3d908101601f1916820190925261051491810190611b07565b60015b61058e573d808015610545576040519150601f19603f3d011682016040523d82523d6000602084013e61054a565b606091505b505a6105569083611b2b565b945088608001516001600160a01b031660000361057257600080555b61057d818487610bc2565b975097509750975050505050610594565b50505050505b9193509193565b6020810151815160608301516000928392839283926001600160a01b03808216908416109284926105cc9290610b6e565b905060005a9050816001600160a01b031663128acb0830856105f18c60400151610bac565b60808d01516001600160a01b03161561060e578c60800151610647565b8761063757610632600173fffd8963efd1fc6a506488495d951d5263988d26611a2b565b610647565b6106476401000276a36001611a52565b8d600001518e606001518f602001516040516020016106b693929190606093841b6bffffffffffffffffffffffff19908116825260e89390931b7fffffff0000000000000000000000000000000000000000000000000000000000166014820152921b166017820152602b0190565b6040516020818303038152906040526040518663ffffffff1660e01b81526004016106e5959493929190611ac2565b60408051808303816000875af192505050801561071f575060408051601f3d908101601f1916820190925261071c91810190611b07565b60015b61058e573d80801561074d576040519150601f19603f3d011682016040523d82523d6000602084013e610752565b606091505b505a61075e9083611b2b565b945061057d818487610bc2565b6000606080600061077b86610a9b565b67ffffffffffffffff811115610793576107936116ea565b6040519080825280602002602001820160405280156107bc578160200160208202803683370190505b5092506107c886610a9b565b67ffffffffffffffff8111156107e0576107e06116ea565b604051908082528060200260200182016040528015610809578160200160208202803683370190505b50915060005b600080600061081d8a610ac7565b9250925092506000806000806108796040518060a00160405280896001600160a01b03168152602001886001600160a01b031681526020018f81526020018762ffffff16815260200160006001600160a01b031681525061059b565b9350935093509350828b8981518110610894576108946119b7565b60200260200101906001600160a01b031690816001600160a01b031681525050818a89815181106108c7576108c76119b7565b602002602001019063ffffffff16908163ffffffff1681525050839c5080896108f091906119e3565b9850876108fc816119f6565b9850506109088e610b03565b15610347576109168e610b3d565b9d505050505050505061080f565b60008313806109335750600082135b61093c57600080fd5b600080600061094a84610ac7565b92509250925061097c7f0000000000000000000000000000000000000000000000000000000000000000848484610c6d565b5060008060008089136109ae57856001600160a01b0316856001600160a01b031610888a6109a990611a0f565b6109ce565b846001600160a01b0316866001600160a01b03161089896109ce90611a0f565b92509250925060006109e1878787610b6e565b9050600080826001600160a01b0316633850c7bd6040518163ffffffff1660e01b815260040160e060405180830381865afa158015610a24573d6000803e3d6000fd5b505050506040513d601f19601f82011682018060405250810190610a489190611b67565b5050505050915091508515610a6e57604051848152826020820152816040820152606081fd5b60005415610a84576000548414610a8457600080fd5b604051858152826020820152816040820152606081fd5b6000610aa9600360146119e3565b60148351610ab79190611b2b565b610ac19190611c17565b92915050565b60008080610ad58482610c8c565b9250610ae2846014610d07565b9050610afa610af3600360146119e3565b8590610c8c565b91509193909250565b6000610b11600360146119e3565b6014610b1e6003826119e3565b610b2891906119e3565b610b3291906119e3565b825110159050919050565b6060610ac1610b4e600360146119e3565b610b5a600360146119e3565b8451610b669190611b2b565b849190610dc7565b6000610ba47f0000000000000000000000000000000000000000000000000000000000000000610b9f868686610eef565b610f5a565b949350505050565b6000600160ff1b8210610bbe57600080fd5b5090565b600080600080600080876001600160a01b0316633850c7bd6040518163ffffffff1660e01b815260040160e060405180830381865afa158015610c09573d6000803e3d6000fd5b505050506040513d601f19601f82011682018060405250810190610c2d9190611b67565b50939650610c4294508d935061105b92505050565b91975095509050610c5d6001600160a01b038916838361110f565b9350869250505093509350935093565b6000610c8385610c7e868686610eef565b61169b565b95945050505050565b6000610c998260146119e3565b83511015610cee5760405162461bcd60e51b815260206004820152601560248201527f746f416464726573735f6f75744f66426f756e6473000000000000000000000060448201526064015b60405180910390fd5b5001602001516c01000000000000000000000000900490565b600081610d158160036119e3565b1015610d635760405162461bcd60e51b815260206004820152601160248201527f746f55696e7432345f6f766572666c6f770000000000000000000000000000006044820152606401610ce5565b610d6e8260036119e3565b83511015610dbe5760405162461bcd60e51b815260206004820152601460248201527f746f55696e7432345f6f75744f66426f756e64730000000000000000000000006044820152606401610ce5565b50016003015190565b606081610dd581601f6119e3565b1015610e235760405162461bcd60e51b815260206004820152600e60248201527f736c6963655f6f766572666c6f770000000000000000000000000000000000006044820152606401610ce5565b610e2d82846119e3565b84511015610e7d5760405162461bcd60e51b815260206004820152601160248201527f736c6963655f6f75744f66426f756e64730000000000000000000000000000006044820152606401610ce5565b606082158015610e9c5760405191506000825260208201604052610ee6565b6040519150601f8416801560200281840101858101878315602002848b0101015b81831015610ed5578051835260209283019201610ebd565b5050858452601f01601f1916604052505b50949350505050565b6040805160608101825260008082526020820181905291810191909152826001600160a01b0316846001600160a01b03161115610f2a579192915b50604080516060810182526001600160a01b03948516815292909316602083015262ffffff169181019190915290565b600081602001516001600160a01b031682600001516001600160a01b031610610f8257600080fd5b815160208084015160408086015181516001600160a01b0395861681860152949092168482015262ffffff90911660608085019190915281518085038201815260808501909252815191909201207fff0000000000000000000000000000000000000000000000000000000000000060a08401529085901b6bffffffffffffffffffffffff191660a183015260b58201527fec12f5ffd3a3ef5cae6fe4fce2f9b73a7107f9b03e84e91f82e8e50a10757bbd60d582015260f50160408051601f1981840301815291905280516020909101209392505050565b600080600083516060146110ee576044845110156110bb5760405162461bcd60e51b815260206004820152601060248201527f556e6578706563746564206572726f72000000000000000000000000000000006044820152606401610ce5565b600484019350838060200190518101906110d59190611c2b565b60405162461bcd60e51b8152600401610ce59190611c99565b838060200190518101906111029190611cac565b9250925092509193909250565b60008060008060008060008060088b6001600160a01b031663d0c93a7c6040518163ffffffff1660e01b8152600401602060405180830381865afa15801561115b573d6000803e3d6000fd5b505050506040513d601f19601f8201168201806040525081019061117f9190611cea565b611189908c611d05565b60020b901d905060006101008c6001600160a01b031663d0c93a7c6040518163ffffffff1660e01b8152600401602060405180830381865afa1580156111d3573d6000803e3d6000fd5b505050506040513d601f19601f820116820180604052508101906111f79190611cea565b611201908d611d05565b61120b9190611d3f565b9050600060088d6001600160a01b031663d0c93a7c6040518163ffffffff1660e01b8152600401602060405180830381865afa15801561124f573d6000803e3d6000fd5b505050506040513d601f19601f820116820180604052508101906112739190611cea565b61127d908d611d05565b60020b901d905060006101008e6001600160a01b031663d0c93a7c6040518163ffffffff1660e01b8152600401602060405180830381865afa1580156112c7573d6000803e3d6000fd5b505050506040513d601f19601f820116820180604052508101906112eb9190611cea565b6112f5908e611d05565b6112ff9190611d3f565b905060008160ff166001901b8f6001600160a01b0316635339c296856040518263ffffffff1660e01b8152600401611340919060019190910b815260200190565b602060405180830381865afa15801561135d573d6000803e3d6000fd5b505050506040513d601f19601f820116820180604052508101906113819190611d61565b161180156113fb57508d6001600160a01b031663d0c93a7c6040518163ffffffff1660e01b8152600401602060405180830381865afa1580156113c8573d6000803e3d6000fd5b505050506040513d601f19601f820116820180604052508101906113ec9190611cea565b6113f6908d611d3f565b60020b155b801561140c57508b60020b8d60020b135b945060008360ff166001901b8f6001600160a01b0316635339c296876040518263ffffffff1660e01b815260040161144d919060019190910b815260200190565b602060405180830381865afa15801561146a573d6000803e3d6000fd5b505050506040513d601f19601f8201168201806040525081019061148e9190611d61565b1611801561150857508d6001600160a01b031663d0c93a7c6040518163ffffffff1660e01b8152600401602060405180830381865afa1580156114d5573d6000803e3d6000fd5b505050506040513d601f19601f820116820180604052508101906114f99190611cea565b611503908e611d3f565b60020b155b801561151957508b60020b8d60020b125b95508160010b8460010b128061154557508160010b8460010b14801561154557508060ff168360ff1611155b1561155b57839950829750819850809650611568565b8199508097508398508296505b505060001960ff87161b9150505b8560010b8760010b13611665578560010b8760010b036115a75761159b8460ff611d7a565b60001960ff919091161c165b6040517f5339c296000000000000000000000000000000000000000000000000000000008152600188900b600482015260009082906001600160a01b038e1690635339c29690602401602060405180830381865afa15801561160d573d6000803e3d6000fd5b505050506040513d601f19601f820116820180604052508101906116319190611d61565b16905061163d816116be565b61164b9061ffff168a611d93565b98508761165781611db0565b985050600019915050611576565b811561167957611676600189611dd0565b97505b821561168d5761168a600189611dd0565b97505b505050505050509392505050565b60006116a78383610f5a565b9050336001600160a01b03821614610ac157600080fd5b6000805b8215610ac157806116d281611ded565b91506116e19050600184611b2b565b831692506116c2565b634e487b7160e01b600052604160045260246000fd5b604051601f8201601f1916810167ffffffffffffffff81118282101715611729576117296116ea565b604052919050565b600067ffffffffffffffff82111561174b5761174b6116ea565b50601f01601f191660200190565b600082601f83011261176a57600080fd5b813561177d61177882611731565b611700565b81815284602083860101111561179257600080fd5b816020850160208301376000918101602001919091529392505050565b600080604083850312156117c257600080fd5b823567ffffffffffffffff8111156117d957600080fd5b6117e585828601611759565b95602094909401359450505050565b600060808201868352602060808185015281875180845260a086019150828901935060005b8181101561183e5784516001600160a01b031683529383019391830191600101611819565b50508481036040860152865180825290820192508187019060005b8181101561187b57825163ffffffff1685529383019391830191600101611859565b5050505060609290920192909252949350505050565b6001600160a01b03811681146118a657600080fd5b50565b600060a082840312156118bb57600080fd5b60405160a0810181811067ffffffffffffffff821117156118de576118de6116ea565b60405290508082356118ef81611891565b815260208301356118ff81611891565b602082015260408381013590820152606083013562ffffff8116811461192457600080fd5b6060820152608083013561193781611891565b6080919091015292915050565b600060a0828403121561195657600080fd5b61196083836118a9565b9392505050565b60008060006060848603121561197c57600080fd5b8335925060208401359150604084013567ffffffffffffffff8111156119a157600080fd5b6119ad86828701611759565b9150509250925092565b634e487b7160e01b600052603260045260246000fd5b634e487b7160e01b600052601160045260246000fd5b80820180821115610ac157610ac16119cd565b600060018201611a0857611a086119cd565b5060010190565b6000600160ff1b8203611a2457611a246119cd565b5060000390565b6001600160a01b03828116828216039080821115611a4b57611a4b6119cd565b5092915050565b6001600160a01b03818116838216019080821115611a4b57611a4b6119cd565b60005b83811015611a8d578181015183820152602001611a75565b50506000910152565b60008151808452611aae816020860160208601611a72565b601f01601f19169290920160200192915050565b60006001600160a01b038088168352861515602084015285604084015280851660608401525060a06080830152611afc60a0830184611a96565b979650505050505050565b60008060408385031215611b1a57600080fd5b505080516020909101519092909150565b81810381811115610ac157610ac16119cd565b8051600281900b8114611b5057600080fd5b919050565b805161ffff81168114611b5057600080fd5b600080600080600080600060e0888a031215611b8257600080fd5b8751611b8d81611891565b9650611b9b60208901611b3e565b9550611ba960408901611b55565b9450611bb760608901611b55565b9350611bc560808901611b55565b925060a088015160ff81168114611bdb57600080fd5b60c08901519092508015158114611bf157600080fd5b8091505092959891949750929550565b634e487b7160e01b600052601260045260246000fd5b600082611c2657611c26611c01565b500490565b600060208284031215611c3d57600080fd5b815167ffffffffffffffff811115611c5457600080fd5b8201601f81018413611c6557600080fd5b8051611c7361177882611731565b818152856020838501011115611c8857600080fd5b610c83826020830160208601611a72565b6020815260006119606020830184611a96565b600080600060608486031215611cc157600080fd5b835192506020840151611cd381611891565b9150611ce160408501611b3e565b90509250925092565b600060208284031215611cfc57600080fd5b61196082611b3e565b60008160020b8360020b80611d1c57611d1c611c01565b627fffff19821460001982141615611d3657611d366119cd565b90059392505050565b60008260020b80611d5257611d52611c01565b808360020b0791505092915050565b600060208284031215611d7357600080fd5b5051919050565b60ff8281168282160390811115610ac157610ac16119cd565b63ffffffff818116838216019080821115611a4b57611a4b6119cd565b60008160010b617fff8103611dc757611dc76119cd565b60010192915050565b63ffffffff828116828216039080821115611a4b57611a4b6119cd565b600061ffff808316818103611e0457611e046119cd565b600101939250505056fea2646970667358221220c8034ca0add5fa83a0bcc7c996b8e5bd78b21980259f8867422adc65539bba3464736f6c63430008170033","linkReferences":{}},"methodIdentifiers":{"WETH9()":"4aa4a4fc","factory()":"c45a0155","quoteExactInput(bytes,uint256)":"cdca1753","quoteExactInputSingle((address,address,uint256,uint24,uint160))":"c6a5026a","quoteExactOutput(bytes,uint256)":"2f80bb1d","quoteExactOutputSingle((address,address,uint256,uint24,uint160))":"bd21704a","uniswapV3SwapCallback(int256,int256,bytes)":"fa461e33"},"id":89}