{"abi":[{"type":"constructor","inputs":[],"stateMutability":"nonpayable"},{"type":"function","name":"burn","inputs":[{"name":"tickLower","type":"int24","internalType":"int24"},{"name":"tickUpper","type":"int24","internalType":"int24"},{"name":"amount","type":"uint128","internalType":"uint128"}],"outputs":[{"name":"amount0","type":"uint256","internalType":"uint256"},{"name":"amount1","type":"uint256","internalType":"uint256"}],"stateMutability":"nonpayable"},{"type":"function","name":"collect","inputs":[{"name":"recipient","type":"address","internalType":"address"},{"name":"tickLower","type":"int24","internalType":"int24"},{"name":"tickUpper","type":"int24","internalType":"int24"},{"name":"amount0Requested","type":"uint128","internalType":"uint128"},{"name":"amount1Requested","type":"uint128","internalType":"uint128"}],"outputs":[{"name":"amount0","type":"uint128","internalType":"uint128"},{"name":"amount1","type":"uint128","internalType":"uint128"}],"stateMutability":"nonpayable"},{"type":"function","name":"collectProtocol","inputs":[{"name":"recipient","type":"address","internalType":"address"},{"name":"amount0Requested","type":"uint128","internalType":"uint128"},{"name":"amount1Requested","type":"uint128","internalType":"uint128"}],"outputs":[{"name":"amount0","type":"uint128","internalType":"uint128"},{"name":"amount1","type":"uint128","internalType":"uint128"}],"stateMutability":"nonpayable"},{"type":"function","name":"factory","inputs":[],"outputs":[{"name":"","type":"address","internalType":"address"}],"stateMutability":"view"},{"type":"function","name":"fee","inputs":[],"outputs":[{"name":"","type":"uint24","internalType":"uint24"}],"stateMutability":"view"},{"type":"function","name":"feeGrowthGlobal0X128","inputs":[],"outputs":[{"name":"","type":"uint256","internalType":"uint256"}],"stateMutability":"view"},{"type":"function","name":"feeGrowthGlobal1X128","inputs":[],"outputs":[{"name":"","type":"uint256","internalType":"uint256"}],"stateMutability":"view"},{"type":"function","name":"flash","inputs":[{"name":"recipient","type":"address","internalType":"address"},{"name":"amount0","type":"uint256","internalType":"uint256"},{"name":"amount1","type":"uint256","internalType":"uint256"},{"name":"data","type":"bytes","internalType":"bytes"}],"outputs":[],"stateMutability":"nonpayable"},{"type":"function","name":"increaseObservationCardinalityNext","inputs":[{"name":"observationCardinalityNext","type":"uint16","internalType":"uint16"}],"outputs":[],"stateMutability":"nonpayable"},{"type":"function","name":"initialize","inputs":[{"name":"sqrtPriceX96","type":"uint160","internalType":"uint160"}],"outputs":[],"stateMutability":"nonpayable"},{"type":"function","name":"liquidity","inputs":[],"outputs":[{"name":"","type":"uint128","internalType":"uint128"}],"stateMutability":"view"},{"type":"function","name":"maxLiquidityPerTick","inputs":[],"outputs":[{"name":"","type":"uint128","internalType":"uint128"}],"stateMutability":"view"},{"type":"function","name":"mint","inputs":[{"name":"recipient","type":"address","internalType":"address"},{"name":"tickLower","type":"int24","internalType":"int24"},{"name":"tickUpper","type":"int24","internalType":"int24"},{"name":"amount","type":"uint128","internalType":"uint128"},{"name":"data","type":"bytes","internalType":"bytes"}],"outputs":[{"name":"amount0","type":"uint256","internalType":"uint256"},{"name":"amount1","type":"uint256","internalType":"uint256"}],"stateMutability":"nonpayable"},{"type":"function","name":"observations","inputs":[{"name":"","type":"uint256","internalType":"uint256"}],"outputs":[{"name":"blockTimestamp","type":"uint32","internalType":"uint32"},{"name":"tickCumulative","type":"int56","internalType":"int56"},{"name":"secondsPerLiquidityCumulativeX128","type":"uint160","internalType":"uint160"},{"name":"initialized","type":"bool","internalType":"bool"}],"stateMutability":"view"},{"type":"function","name":"observe","inputs":[{"name":"secondsAgos","type":"uint32[]","internalType":"uint32[]"}],"outputs":[{"name":"tickCumulatives","type":"int56[]","internalType":"int56[]"},{"name":"secondsPerLiquidityCumulativeX128s","type":"uint160[]","internalType":"uint160[]"}],"stateMutability":"view"},{"type":"function","name":"positions","inputs":[{"name":"","type":"bytes32","internalType":"bytes32"}],"outputs":[{"name":"liquidity","type":"uint128","internalType":"uint128"},{"name":"feeGrowthInside0LastX128","type":"uint256","internalType":"uint256"},{"name":"feeGrowthInside1LastX128","type":"uint256","internalType":"uint256"},{"name":"tokensOwed0","type":"uint128","internalType":"uint128"},{"name":"tokensOwed1","type":"uint128","internalType":"uint128"}],"stateMutability":"view"},{"type":"function","name":"protocolFees","inputs":[],"outputs":[{"name":"token0","type":"uint128","internalType":"uint128"},{"name":"token1","type":"uint128","internalType":"uint128"}],"stateMutability":"view"},{"type":"function","name":"setFeeProtocol","inputs":[{"name":"feeProtocol0","type":"uint8","internalType":"uint8"},{"name":"feeProtocol1","type":"uint8","internalType":"uint8"}],"outputs":[],"stateMutability":"nonpayable"},{"type":"function","name":"slot0","inputs":[],"outputs":[{"name":"sqrtPriceX96","type":"uint160","internalType":"uint160"},{"name":"tick","type":"int24","internalType":"int24"},{"name":"observationIndex","type":"uint16","internalType":"uint16"},{"name":"observationCardinality","type":"uint16","internalType":"uint16"},{"name":"observationCardinalityNext","type":"uint16","internalType":"uint16"},{"name":"feeProtocol","type":"uint8","internalType":"uint8"},{"name":"unlocked","type":"bool","internalType":"bool"}],"stateMutability":"view"},{"type":"function","name":"snapshotCumulativesInside","inputs":[{"name":"tickLower","type":"int24","internalType":"int24"},{"name":"tickUpper","type":"int24","internalType":"int24"}],"outputs":[{"name":"tickCumulativeInside","type":"int56","internalType":"int56"},{"name":"secondsPerLiquidityInsideX128","type":"uint160","internalType":"uint160"},{"name":"secondsInside","type":"uint32","internalType":"uint32"}],"stateMutability":"view"},{"type":"function","name":"swap","inputs":[{"name":"recipient","type":"address","internalType":"address"},{"name":"zeroForOne","type":"bool","internalType":"bool"},{"name":"amountSpecified","type":"int256","internalType":"int256"},{"name":"sqrtPriceLimitX96","type":"uint160","internalType":"uint160"},{"name":"data","type":"bytes","internalType":"bytes"}],"outputs":[{"name":"amount0","type":"int256","internalType":"int256"},{"name":"amount1","type":"int256","internalType":"int256"}],"stateMutability":"nonpayable"},{"type":"function","name":"tickBitmap","inputs":[{"name":"","type":"int16","internalType":"int16"}],"outputs":[{"name":"","type":"uint256","internalType":"uint256"}],"stateMutability":"view"},{"type":"function","name":"tickSpacing","inputs":[],"outputs":[{"name":"","type":"int24","internalType":"int24"}],"stateMutability":"view"},{"type":"function","name":"ticks","inputs":[{"name":"","type":"int24","internalType":"int24"}],"outputs":[{"name":"liquidityGross","type":"uint128","internalType":"uint128"},{"name":"liquidityNet","type":"int128","internalType":"int128"},{"name":"feeGrowthOutside0X128","type":"uint256","internalType":"uint256"},{"name":"feeGrowthOutside1X128","type":"uint256","internalType":"uint256"},{"name":"tickCumulativeOutside","type":"int56","internalType":"int56"},{"name":"secondsPerLiquidityOutsideX128","type":"uint160","internalType":"uint160"},{"name":"secondsOutside","type":"uint32","internalType":"uint32"},{"name":"initialized","type":"bool","internalType":"bool"}],"stateMutability":"view"},{"type":"function","name":"token0","inputs":[],"outputs":[{"name":"","type":"address","internalType":"address"}],"stateMutability":"view"},{"type":"function","name":"token1","inputs":[],"outputs":[{"name":"","type":"address","internalType":"address"}],"stateMutability":"view"},{"type":"event","name":"Burn","inputs":[{"name":"owner","type":"address","indexed":true,"internalType":"address"},{"name":"tickLower","type":"int24","indexed":true,"internalType":"int24"},{"name":"tickUpper","type":"int24","indexed":true,"internalType":"int24"},{"name":"amount","type":"uint128","indexed":false,"internalType":"uint128"},{"name":"amount0","type":"uint256","indexed":false,"internalType":"uint256"},{"name":"amount1","type":"uint256","indexed":false,"internalType":"uint256"}],"anonymous":false},{"type":"event","name":"Collect","inputs":[{"name":"owner","type":"address","indexed":true,"internalType":"address"},{"name":"recipient","type":"address","indexed":false,"internalType":"address"},{"name":"tickLower","type":"int24","indexed":true,"internalType":"int24"},{"name":"tickUpper","type":"int24","indexed":true,"internalType":"int24"},{"name":"amount0","type":"uint128","indexed":false,"internalType":"uint128"},{"name":"amount1","type":"uint128","indexed":false,"internalType":"uint128"}],"anonymous":false},{"type":"event","name":"CollectProtocol","inputs":[{"name":"sender","type":"address","indexed":true,"internalType":"address"},{"name":"recipient","type":"address","indexed":true,"internalType":"address"},{"name":"amount0","type":"uint128","indexed":false,"internalType":"uint128"},{"name":"amount1","type":"uint128","indexed":false,"internalType":"uint128"}],"anonymous":false},{"type":"event","name":"Flash","inputs":[{"name":"sender","type":"address","indexed":true,"internalType":"address"},{"name":"recipient","type":"address","indexed":true,"internalType":"address"},{"name":"amount0","type":"uint256","indexed":false,"internalType":"uint256"},{"name":"amount1","type":"uint256","indexed":false,"internalType":"uint256"},{"name":"paid0","type":"uint256","indexed":false,"internalType":"uint256"},{"name":"paid1","type":"uint256","indexed":false,"internalType":"uint256"}],"anonymous":false},{"type":"event","name":"IncreaseObservationCardinalityNext","inputs":[{"name":"observationCardinalityNextOld","type":"uint16","indexed":false,"internalType":"uint16"},{"name":"observationCardinalityNextNew","type":"uint16","indexed":false,"internalType":"uint16"}],"anonymous":false},{"type":"event","name":"Initialize","inputs":[{"name":"sqrtPriceX96","type":"uint160","indexed":false,"internalType":"uint160"},{"name":"tick","type":"int24","indexed":false,"internalType":"int24"}],"anonymous":false},{"type":"event","name":"Mint","inputs":[{"name":"sender","type":"address","indexed":false,"internalType":"address"},{"name":"owner","type":"address","indexed":true,"internalType":"address"},{"name":"tickLower","type":"int24","indexed":true,"internalType":"int24"},{"name":"tickUpper","type":"int24","indexed":true,"internalType":"int24"},{"name":"amount","type":"uint128","indexed":false,"internalType":"uint128"},{"name":"amount0","type":"uint256","indexed":false,"internalType":"uint256"},{"name":"amount1","type":"uint256","indexed":false,"internalType":"uint256"}],"anonymous":false},{"type":"event","name":"SetFeeProtocol","inputs":[{"name":"feeProtocol0Old","type":"uint8","indexed":false,"internalType":"uint8"},{"name":"feeProtocol1Old","type":"uint8","indexed":false,"internalType":"uint8"},{"name":"feeProtocol0New","type":"uint8","indexed":false,"internalType":"uint8"},{"name":"feeProtocol1New","type":"uint8","indexed":false,"internalType":"uint8"}],"anonymous":false},{"type":"event","name":"Swap","inputs":[{"name":"sender","type":"address","indexed":true,"internalType":"address"},{"name":"recipient","type":"address","indexed":true,"internalType":"address"},{"name":"amount0","type":"int256","indexed":false,"internalType":"int256"},{"name":"amount1","type":"int256","indexed":false,"internalType":"int256"},{"name":"sqrtPriceX96","type":"uint160","indexed":false,"internalType":"uint160"},{"name":"liquidity","type":"uint128","indexed":false,"internalType":"uint128"},{"name":"tick","type":"int24","indexed":false,"internalType":"int24"}],"anonymous":false},{"type":"error","name":"AI","inputs":[]},{"type":"error","name":"AS","inputs":[]},{"type":"error","name":"F0","inputs":[]},{"type":"error","name":"F1","inputs":[]},{"type":"error","name":"I","inputs":[]},{"type":"error","name":"IIA","inputs":[]},{"type":"error","name":"L","inputs":[]},{"type":"error","name":"LO","inputs":[]},{"type":"error","name":"LOK","inputs":[]},{"type":"error","name":"M0","inputs":[]},{"type":"error","name":"M1","inputs":[]},{"type":"error","name":"NP","inputs":[]},{"type":"error","name":"OLD","inputs":[]},{"type":"error","name":"R","inputs":[]},{"type":"error","name":"T","inputs":[]},{"type":"error","name":"TF","inputs":[]},{"type":"error","name":"TLM","inputs":[]},{"type":"error","name":"TLU","inputs":[]},{"type":"error","name":"TUM","inputs":[]}],"bytecode":{"object":"0x6101606040523480156200001257600080fd5b503060805260408051630890357360e41b81529051600091339163890357309160048082019260a0929091908290030181865afa15801562000058573d6000803e3d6000fd5b505050506040513d601f19601f820116820180604052508101906200007e919062000179565b62ffffff909116610100526001600160a01b0391821660e05291811660c0529190911660a052600281900b610120529050620000ba81620000ce565b6001600160801b0316610140525062000213565b60008082600281900b620d89e71981620000ec57620000ec620001fd565b05029050600083600281900b620d89e8816200010c576200010c620001fd565b0502905060008460020b83830360020b816200012c576200012c620001fd565b0560010190508062ffffff166001600160801b03801681620001525762000152620001fd565b0495945050505050565b80516001600160a01b03811681146200017457600080fd5b919050565b600080600080600060a086880312156200019257600080fd5b6200019d866200015c565b9450620001ad602087016200015c565b9350620001bd604087016200015c565b9250606086015162ffffff81168114620001d657600080fd5b8092505060808601518060020b8114620001ef57600080fd5b809150509295509295909350565b634e487b7160e01b600052601260045260246000fd5b60805160a05160c05160e0516101005161012051610140516157e4620002fa60003960008181610485015281816144e0015261451701526000818161056e01528181610a430152818161454b015261457d0152600081816105cf01528181610b41015281816117eb01526118220152600081816105a801528181611174015281816118a501528181611d17015281816121b1015261381c0152600081816101b80152818161124a0152818161187401528181611cb10152818161212b01526136f101526000818161054701528181611e110152611fe40152600061278f01526157e46000f3fe608060405234801561001057600080fd5b50600436106101ae5760003560e01c806370cf754a116100ee578063c45a015511610097578063ddca3f4311610071578063ddca3f43146105ca578063f305839914610605578063f30dba931461060e578063f637731d146106e657600080fd5b8063c45a015514610542578063d0c93a7c14610569578063d21220a7146105a357600080fd5b8063883bdbfd116100c8578063883bdbfd146104cd578063a34123a7146104ee578063a38807f21461050157600080fd5b806370cf754a146104805780638206a4d1146104a757806385b66729146104ba57600080fd5b80633850c7bd1161015b578063490e6cbc11610135578063490e6cbc146103b95780634f1eb3d8146103cc578063514ea4bf146103df5780635339c2961461046057600080fd5b80633850c7bd146102ea5780633c8a7d8d1461038f57806346141319146103a257600080fd5b80631ad8b03b1161018c5780631ad8b03b1461024a578063252c09d71461028857806332148f67146102d557600080fd5b80630dfe1681146101b3578063128acb08146101f75780631a6865021461021f575b600080fd5b6101da7f000000000000000000000000000000000000000000000000000000000000000081565b6040516001600160a01b0390911681526020015b60405180910390f35b61020a61020536600461509d565b6106f9565b604080519283526020830191909152016101ee565b600454610232906001600160801b031681565b6040516001600160801b0390911681526020016101ee565b600354610268906001600160801b0380821691600160801b90041682565b604080516001600160801b039384168152929091166020830152016101ee565b61029b610296366004615122565b6113aa565b6040805163ffffffff909516855260069390930b60208501526001600160a01b0390911691830191909152151560608201526080016101ee565b6102e86102e336600461513b565b6113f0565b005b60005461033e906001600160a01b03811690600160a01b810460020b9061ffff600160b81b8204811691600160c81b8104821691600160d81b8204169060ff600160e81b8204811691600160f01b90041687565b604080516001600160a01b03909816885260029690960b602088015261ffff94851695870195909552918316606086015291909116608084015260ff1660a0830152151560c082015260e0016101ee565b61020a61039d366004615188565b6114e9565b6103ab60025481565b6040519081526020016101ee565b6102e86103c73660046151d6565b611761565b6102686103da366004615240565b611b7c565b61042a6103ed366004615122565b60076020526000908152604090208054600182015460028301546003909301546001600160801b0392831693919281811691600160801b90041685565b604080516001600160801b039687168152602081019590955284019290925283166060830152909116608082015260a0016101ee565b6103ab61046e3660046152a7565b60066020526000908152604090205481565b6102327f000000000000000000000000000000000000000000000000000000000000000081565b6102e86104b53660046152db565b611dc0565b6102686104c836600461530e565b611f90565b6104e06104db366004615353565b612247565b6040516101ee9291906153c8565b61020a6104fc36600461544f565b6122ce565b61051461050f36600461547b565b612427565b6040805160069490940b84526001600160a01b03909216602084015263ffffffff16908201526060016101ee565b6101da7f000000000000000000000000000000000000000000000000000000000000000081565b6105907f000000000000000000000000000000000000000000000000000000000000000081565b60405160029190910b81526020016101ee565b6101da7f000000000000000000000000000000000000000000000000000000000000000081565b6105f17f000000000000000000000000000000000000000000000000000000000000000081565b60405162ffffff90911681526020016101ee565b6103ab60015481565b61068a61061c3660046154a5565b60056020526000908152604090208054600182015460028301546003909301546001600160801b03831693600160801b909304600f0b9290600681900b9067010000000000000081046001600160a01b031690600160d81b810463ffffffff1690600160f81b900460ff1688565b604080516001600160801b039099168952600f9790970b602089015295870194909452606086019290925260060b60808501526001600160a01b031660a084015263ffffffff1660c0830152151560e0820152610100016101ee565b6102e86106f43660046154c0565b61260a565b600080610704612784565b8560000361073e576040517f03fff01800000000000000000000000000000000000000000000000000000000815260040160405180910390fd5b6040805160e0810182526000546001600160a01b0381168252600160a01b810460020b602083015261ffff600160b81b8204811693830193909352600160c81b810483166060830152600160d81b8104909216608082015260ff600160e81b8304811660a0830152600160f01b909204909116151560c082018190526107d7576040516350dfbc4360e11b815260040160405180910390fd5b876108225780600001516001600160a01b0316866001600160a01b031611801561081d575073fffd8963efd1fc6a506488495d951d5263988d266001600160a01b038716105b610854565b80600001516001600160a01b0316866001600160a01b031610801561085457506401000276a36001600160a01b038716115b6108be576040517f08c379a000000000000000000000000000000000000000000000000000000000815260206004820152600360248201527f53504c0000000000000000000000000000000000000000000000000000000000604482015260640160405180910390fd5b6000805460ff60f01b191681556040805160c08101909152808a6108ed5760048460a0015160ff16901c6108fe565b60108460a001516108fe91906154f3565b60ff1681526004546001600160801b031660208201526040014263ffffffff168152602001600060060b815260200160006001600160a01b031681526020016000151581525090506000808913905060006040518060e001604052808b81526020016000815260200185600001516001600160a01b03168152602001856020015160020b81526020018c61099457600254610998565b6001545b815260200160006001600160801b0316815260200184602001516001600160801b031681525090505b8051158015906109e75750886001600160a01b031681604001516001600160a01b031614155b15610f40576040805160e081018252600080825260208201819052918101829052606081018290526080810182905260a0810182905260c081019190915260408201516001600160a01b031681526060820151610a68906006907f00000000000000000000000000000000000000000000000000000000000000008f6127bb565b1515604083015260020b60208201819052620d89e7191315610a9357620d89e7196020820152610ac7565b610aa0620d89e71961552b565b60020b816020015160020b1315610ac757610abe620d89e71961552b565b60020b60208201525b610ad481602001516128fd565b6001600160a01b031660608201526040820151610b65908d610b0e578b6001600160a01b031683606001516001600160a01b031611610b28565b8b6001600160a01b031683606001516001600160a01b0316105b610b36578260600151610b38565b8b5b60c085015185517f0000000000000000000000000000000000000000000000000000000000000000612c39565b60c085015260a084015260808301526001600160a01b031660408301528215610bc757610b9b8160c00151826080015101612e2b565b825103825260a0810151610bae90612e2b565b82602001818151610bbf919061554d565b905250610c0a565b610bd48160a00151612e2b565b825101825260c08101516080820151610bf591610bf091615574565b612e2b565b82602001818151610c06919061558d565b9052505b835160ff1615610c56576000846000015160ff168260c0015181610c3057610c306154dd565b60c0840180519290910491829003905260a0840180519091016001600160801b03169052505b60c08201516001600160801b031615610c9557610c898160c00151600160801b8460c001516001600160801b0316612e5d565b60808301805190910190525b80606001516001600160a01b031682604001516001600160a01b031603610f0357806040015115610ede578360a00151610d1a57610cfc846040015160008760200151886040015188602001518a606001516008612f10909695949392919063ffffffff16565b6001600160a01b0316608086015260060b6060850152600160a08501525b6000610e8a82602001518e610d3157600154610d37565b84608001515b8f610d46578560800151610d4a565b6002545b608089015160608a01516040808c0151600296870b6000908152600560205291909120600181018054909603909555948401805490930390925560038301805463ffffffff600160d81b66ffffffffffffff196001600160a01b036701000000000000008086048216909703169095029485167fffffffffff00000000000000000000000000000000000000000000000000000084161766ffffffffffffff7fffffffffff0000000000000000000000000000000000000000ffffffffffffff8516871760060b909703969096169586178190048216909703169095027fff00000000ffffffffffffffffffffffffffffffffffffffff00000000000000929092167fff0000000000000000000000000000000000000000000000000000000000000090951694909417919091171790915554600160801b9004600f0b90565b90508c15610e96576000035b600081600f0b12610eb657808360c00151610eb191906155b5565b610ece565b610ebf816155d5565b8360c00151610ece91906155fb565b6001600160801b031660c0840152505b8b610eed578060200151610ef6565b60018160200151035b60020b6060830152610f3a565b80600001516001600160a01b031682604001516001600160a01b031614610f3a57610f3182604001516130c8565b60020b60608301525b506109c1565b836020015160020b816060015160020b1461102757600080610f8e86604001518660400151886020015188602001518a606001518b608001516008613403909695949392919063ffffffff16565b604085015160608601516000805463ffffffff60b81b1916600160c81b61ffff9586160261ffff60b81b191617600160b81b95909416949094029290921776ffffffffffffffffffffffffffffffffffffffffffffff1916600160a01b62ffffff9093169290920273ffffffffffffffffffffffffffffffffffffffff1916919091176001600160a01b03909116179055506110599050565b60408101516000805473ffffffffffffffffffffffffffffffffffffffff19166001600160a01b039092169190911790555b8060c001516001600160801b031683602001516001600160801b03161461109f5760c0810151600480546001600160801b0319166001600160801b039092169190911790555b8a156110ef57608081015160015560a08101516001600160801b0316156110ea5760a0810151600380546001600160801b031981166001600160801b03918216909301169190911790555b611135565b608081015160025560a08101516001600160801b0316156111355760a0810151600380546001600160801b03808216600160801b92839004821690940116029190911790555b8115158b15151461114e57602081015181518b0361115b565b80600001518a0381602001515b90965094508a1561123c57600085121561119d5761119d7f00000000000000000000000000000000000000000000000000000000000000008d876000036135a4565b60006111a76136d7565b60405163fa461e3360e01b8152909150339063fa461e33906111d3908a908a908e908e90600401615644565b600060405180830381600087803b1580156111ed57600080fd5b505af1158015611201573d6000803e3d6000fd5b5050505061120d6136d7565b6112178883615574565b111561123657604051635d05ca8f60e11b815260040160405180910390fd5b5061130e565b6000861215611273576112737f00000000000000000000000000000000000000000000000000000000000000008d886000036135a4565b600061127d613802565b60405163fa461e3360e01b8152909150339063fa461e33906112a9908a908a908e908e90600401615644565b600060405180830381600087803b1580156112c357600080fd5b505af11580156112d7573d6000803e3d6000fd5b505050506112e3613802565b6112ed8783615574565b111561130c57604051635d05ca8f60e11b815260040160405180910390fd5b505b60408082015160c083015160608085015184518b8152602081018b90526001600160a01b03948516958101959095526001600160801b039092169084015260020b60808301528d169033907fc42079f94a6350d7e6235f29174924f928cc2ac818eb64fed8004e115fbcca679060a00160405180910390a350506000805460ff60f01b1916600160f01b17905550919890975095505050505050565b60088161ffff81106113bb57600080fd5b015463ffffffff81169150640100000000810460060b90600160581b81046001600160a01b031690600160f81b900460ff1684565b600054600160f01b900460ff1661141a576040516350dfbc4360e11b815260040160405180910390fd5b6000805460ff60f01b1916905561142f612784565b60008054600160d81b900461ffff169061144b6008838561384e565b6000805461ffff808416600160d81b81027fffffff0000ffffffffffffffffffffffffffffffffffffffffffffffffffffff909316929092179092559192508316146114d1576040805161ffff8085168252831660208201527fac49e518f90a358f652e4400164f05a5d8f7e35e7747279bc3a93dbf584e125a91015b60405180910390a15b50506000805460ff60f01b1916600160f01b17905550565b600080548190600160f01b900460ff16611516576040516350dfbc4360e11b815260040160405180910390fd5b6000805460ff60f01b191690556001600160801b03851661153657600080fd5b60008061158460405180608001604052808c6001600160a01b031681526020018b60020b81526020018a60020b815260200161157a8a6001600160801b03166138df565b600f0b90526138f5565b925092505081935080925060008060008611156115a6576115a36136d7565b91505b84156115b7576115b4613802565b90505b6040517fd3487997000000000000000000000000000000000000000000000000000000008152339063d3487997906115f990899089908d908d90600401615644565b600060405180830381600087803b15801561161357600080fd5b505af1158015611627573d6000803e3d6000fd5b5050505060008611801561164a575061163e6136d7565b6116488784615574565b115b15611681576040517f748800af00000000000000000000000000000000000000000000000000000000815260040160405180910390fd5b6000851180156116a05750611694613802565b61169e8683615574565b115b156116d7576040517f20e5672e00000000000000000000000000000000000000000000000000000000815260040160405180910390fd5b604080513381526001600160801b038b1660208201529081018790526060810186905260028b810b91908d900b906001600160a01b038f16907f7a53080ba414158be7ec69b987b5fb7d07dee101fe85488f0853ae16239d0bde9060800160405180910390a450506000805460ff60f01b1916600160f01b17905550919890975095505050505050565b600054600160f01b900460ff1661178b576040516350dfbc4360e11b815260040160405180910390fd5b6000805460ff60f01b191690556117a0612784565b6004546001600160801b0316806117e3576040517f9f13f76d00000000000000000000000000000000000000000000000000000000815260040160405180910390fd5b6000611818867f000000000000000000000000000000000000000000000000000000000000000062ffffff16620f4240613b57565b9050600061184f867f000000000000000000000000000000000000000000000000000000000000000062ffffff16620f4240613b57565b9050600061185b6136d7565b90506000611867613802565b9050881561189a5761189a7f00000000000000000000000000000000000000000000000000000000000000008b8b6135a4565b87156118cb576118cb7f00000000000000000000000000000000000000000000000000000000000000008b8a6135a4565b6040517fe9cbafb0000000000000000000000000000000000000000000000000000000008152339063e9cbafb09061190d90879087908c908c90600401615644565b600060405180830381600087803b15801561192757600080fd5b505af115801561193b573d6000803e3d6000fd5b5050505060006119496136d7565b90506000611955613802565b9050816119628786615574565b111561199a576040517ff704e89900000000000000000000000000000000000000000000000000000000815260040160405180910390fd5b806119a58685615574565b11156119dd576040517fe90c349300000000000000000000000000000000000000000000000000000000815260040160405180910390fd5b838203838203838614611a735760008054600160e81b9004600f16908115611a17578160ff168481611a1157611a116154dd565b04611a1a565b60005b90506001600160801b03811615611a4d57600380546001600160801b038082168401166001600160801b03199091161790555b611a67818503600160801b8d6001600160801b0316612e5d565b60018054909101905550505b8015611b045760008054600160e81b900460041c600f16908115611aa9578160ff168381611aa357611aa36154dd565b04611aac565b60005b90506001600160801b03811615611ade57600380546001600160801b03600160801b8083048216850182160291161790555b611af8818403600160801b8d6001600160801b0316612e5d565b60028054909101905550505b604080518e8152602081018e9052908101839052606081018290526001600160a01b038f169033907fbdbdb71d7860376ba52b25a5028beea23581364a40522f6bcfb86bb1f2dca6339060800160405180910390a350506000805460ff60f01b1916600160f01b179055505050505050505050505050565b600080548190600160f01b900460ff16611ba9576040516350dfbc4360e11b815260040160405180910390fd5b6000805460ff60f01b19168155604080513360601b6bffffffffffffffffffffffff191660208083019190915260e88a811b603484015289901b60378301528251601a818403018152603a9092018352815191810191909120835260079052902060038101546001600160801b0390811690861611611c285784611c37565b60038101546001600160801b03165b60038201549093506001600160801b03600160801b909104811690851611611c5f5783611c75565b6003810154600160801b90046001600160801b03165b91506001600160801b03831615611cda576003810180546001600160801b031981166001600160801b03918216869003821617909155611cda907f0000000000000000000000000000000000000000000000000000000000000000908a9086166135a4565b6001600160801b03821615611d40576003810180546001600160801b03600160801b808304821686900382160291811691909117909155611d40907f0000000000000000000000000000000000000000000000000000000000000000908a9085166135a4565b604080516001600160a01b038a1681526001600160801b0385811660208301528416818301529051600288810b92908a900b9133917f70935338e69775456a85ddef226c395fb668b63fa0115f5f20610b388e6ca9c0919081900360600190a4506000805460ff60f01b1916600160f01b17905590969095509350505050565b600054600160f01b900460ff16611dea576040516350dfbc4360e11b815260040160405180910390fd5b6000805460ff60f01b1916905560408051638da5cb5b60e01b815290516001600160a01b037f00000000000000000000000000000000000000000000000000000000000000001691638da5cb5b9160048083019260209291908290030181865afa158015611e5c573d6000803e3d6000fd5b505050506040513d601f19601f82011682018060405250810190611e80919061566e565b6001600160a01b0316336001600160a01b031614611e9d57600080fd5b60ff82161580611ec0575060048260ff1610158015611ec05750600a8260ff1611155b8015611eea575060ff81161580611eea575060048160ff1610158015611eea5750600a8160ff1611155b611ef357600080fd5b60008054610ff0600484901b16840160ff908116600160e81b9081027fffff00ffffffffffffffffffffffffffffffffffffffffffffffffffffffffff841617909355919004167f973d8d92bb299f4af6ce49b52a8adb85ae46b9f214c4c4fc06ac77401237b1336010826040805160ff9390920683168252600f600486901c1660208301528683169082015290841660608201526080016114c8565b600080548190600160f01b900460ff16611fbd576040516350dfbc4360e11b815260040160405180910390fd5b6000805460ff60f01b1916905560408051638da5cb5b60e01b815290516001600160a01b037f00000000000000000000000000000000000000000000000000000000000000001691638da5cb5b9160048083019260209291908290030181865afa15801561202f573d6000803e3d6000fd5b505050506040513d601f19601f82011682018060405250810190612053919061566e565b6001600160a01b0316336001600160a01b03161461207057600080fd5b6003546001600160801b039081169085161161208c5783612099565b6003546001600160801b03165b6003549092506001600160801b03600160801b9091048116908416116120bf57826120d3565b600354600160801b90046001600160801b03165b90506001600160801b03821615612154576003546001600160801b039081169083160361210257600019909101905b600380546001600160801b031981166001600160801b03918216859003821617909155612154907f000000000000000000000000000000000000000000000000000000000000000090879085166135a4565b6001600160801b038116156121da576003546001600160801b03600160801b90910481169082160361218557600019015b600380546001600160801b03600160801b8083048216859003821602918116919091179091556121da907f000000000000000000000000000000000000000000000000000000000000000090879084166135a4565b604080516001600160801b038085168252831660208201526001600160a01b0387169133917f596b573906218d3411850b26a6b437d6c4522fdb43d2d2386263f86d50b8b151910160405180910390a36000805460ff60f01b1916600160f01b1790559094909350915050565b606080612252612784565b6122c242858580806020026020016040519081016040528093929190818152602001838360200280828437600092018290525054600454600896959450600160a01b820460020b935061ffff600160b81b8304811693506001600160801b0390911691600160c81b900416613b97565b915091505b9250929050565b600080548190600160f01b900460ff166122fb576040516350dfbc4360e11b815260040160405180910390fd5b6000805460ff60f01b1916815560408051608081018252338152600288810b602083015287900b918101919091528190819061235490606081016123476001600160801b038a166138df565b600003600f0b90526138f5565b92509250925081600003945080600003935060008511806123755750600084115b156123b0576003830180546001600160801b0380821688018116600160801b92839004821688019091169091026001600160801b0319161790555b604080516001600160801b038816815260208101879052908101859052600288810b91908a900b9033907f0c396cd989a39f4459b5fa1aed6a9a8dcdbc45908acfd67e028cd568da98982c9060600160405180910390a450506000805460ff60f01b1916600160f01b179055509094909350915050565b6000806000612434612784565b61243e8585613ce2565b600285810b6000908152600560205260408082209287900b825281206003830154600681900b9367010000000000000082046001600160a01b0316928492600160d81b810463ffffffff169284929091600160f81b900460ff16806124a257600080fd5b6003820154600681900b985067010000000000000081046001600160a01b03169650600160d81b810463ffffffff169450600160f81b900460ff16806124e757600080fd5b50506040805160e0810182526000546001600160a01b0381168252600160a01b8104600290810b6020840181905261ffff600160b81b8404811695850195909552600160c81b830485166060850152600160d81b8304909416608084015260ff600160e81b8304811660a0850152600160f01b909204909116151560c08301529093508e900b1315905061258957509390940396509003935090039050612603565b8a60020b816020015160020b12156125f457602081015160408201516004546060840151429360009384936125d29360089388938793919290916001600160801b031690612f10565b9a9003989098039b505094909603929092039650909103039250612603915050565b50949093039650039350900390505b9250925092565b6000546001600160a01b03161561264d576040517f9cc0b7f800000000000000000000000000000000000000000000000000000000815260040160405180910390fd5b6000612658826130c8565b604080516080808201835263ffffffff42168083526000602080850182905284860182905260016060958601819052600160f81b909317600855855160e0810187526001600160a01b038a16808252600289900b82840181905282890185905296820185905294810184905260a0810183905260c001839052815476ffffffffffffffffffffffffffffffffffffffffffffff19168417600160a01b62ffffff891602177fff0000000000000000ffffffffffffffffffffffffffffffffffffffffffffff167e010000010001000000000000000000000000000000000000000000000000001790915584519283528201929092528251939450909283927f98636036cb66a9c19a37435efc1e90142190214e8abeb821bdba3f2990dd4c95928290030190a150505050565b306001600160a01b037f000000000000000000000000000000000000000000000000000000000000000016146127b957600080fd5b565b60008060008460020b8660020b816127d5576127d56154dd565b05905060008660020b12801561280257508460020b8660020b816127fb576127fb6154dd565b0760020b15155b1561280c57600019015b831561288057600281900b600881901d600181810b600090815260208b9052604090205461010090930760ff81169190911b8001600019019283168015159550919290918561286257888360ff16860302612875565b8861286c82613db3565b840360ff168603025b9650505050506128f3565b600181810160020b600881901d80830b600090815260208b9052604090205461010090920760ff81169390931b6000190119918216801515955090929190856128d657888360ff0360ff168660010101026128ec565b88836128e183613e53565b0360ff168660010101025b9650505050505b5094509492505050565b60008060008360020b12612914578260020b61291c565b8260020b6000035b9050620d89e881111561295b576040517f2bc80f3a00000000000000000000000000000000000000000000000000000000815260040160405180910390fd5b60008160011660000361297257600160801b612984565b6ffffcb933bd6fad37aa2d162d1a5940015b70ffffffffffffffffffffffffffffffffff16905060028216156129b8576ffff97272373d413259a46990580e213a0260801c5b60048216156129d7576ffff2e50f5f656932ef12357cf3c7fdcc0260801c5b60088216156129f6576fffe5caca7e10e4e61c3624eaa0941cd00260801c5b6010821615612a15576fffcb9843d60f6159c9db58835c9266440260801c5b6020821615612a34576fff973b41fa98c081472e6896dfb254c00260801c5b6040821615612a53576fff2ea16466c96a3843ec78b326b528610260801c5b6080821615612a72576ffe5dee046a99a2a811c461f1969c30530260801c5b610100821615612a92576ffcbe86c7900a88aedcffc83b479aa3a40260801c5b610200821615612ab2576ff987a7253ac413176f2b074cf7815e540260801c5b610400821615612ad2576ff3392b0822b70005940c7a398e4b70f30260801c5b610800821615612af2576fe7159475a2c29b7443b29c7fa6e889d90260801c5b611000821615612b12576fd097f3bdfd2022b8845ad8f792aa58250260801c5b612000821615612b32576fa9f746462d870fdf8a65dc1f90e061e50260801c5b614000821615612b52576f70d869a156d2a1b890bb3df62baf32f70260801c5b618000821615612b72576f31be135f97d08fd981231505542fcfa60260801c5b62010000821615612b93576f09aa508b5b7a84e1c677de54f3e99bc90260801c5b62020000821615612bb3576e5d6af8dedb81196699c329225ee6040260801c5b62040000821615612bd2576d2216e584f5fa1ea926041bedfe980260801c5b62080000821615612bef576b048a170391f7dc42444e8fa20260801c5b60008460020b1315612c10578060001981612c0c57612c0c6154dd565b0490505b640100000000810615612c24576001612c27565b60005b60ff16602082901c0192505050919050565b60008080806001600160a01b03808916908a161015818712801590612cbe576000612c728989620f42400362ffffff16620f4240612e5d565b905082612c8b57612c868c8c8c6001613f3d565b612c98565b612c988b8d8c6001613fb8565b9550858110612ca9578a9650612cb8565b612cb58c8b8386614081565b96505b50612d08565b81612cd557612cd08b8b8b6000613fb8565b612ce2565b612ce28a8c8b6000613f3d565b9350838860000310612cf657899550612d08565b612d058b8a8a600003856140cd565b95505b6001600160a01b038a8116908716148215612d6b57808015612d275750815b612d3d57612d38878d8c6001613fb8565b612d3f565b855b9550808015612d4c575081155b612d6257612d5d878d8c6000613f3d565b612d64565b845b9450612db5565b808015612d755750815b612d8b57612d868c888c6001613f3d565b612d8d565b855b9550808015612d9a575081155b612db057612dab8c888c6000613fb8565b612db2565b845b94505b81158015612dc557508860000385115b15612dd1578860000394505b818015612df057508a6001600160a01b0316876001600160a01b031614155b15612dff578589039350612e1c565b612e19868962ffffff168a620f42400362ffffff16613b57565b93505b50505095509550955095915050565b60007f80000000000000000000000000000000000000000000000000000000000000008210612e5957600080fd5b5090565b6000808060001985870985870292508281108382030391505080600003612e965760008411612e8b57600080fd5b508290049050612f09565b808411612ea257600080fd5b6000848688096000868103871696879004966002600389028118808a02820302808a02820302808a02820302808a02820302808a02820302808a02909103029181900381900460010186841190950394909402919094039290920491909117919091029150505b9392505050565b6000808663ffffffff16600003612fba576000898661ffff1661ffff8110612f3a57612f3a61568b565b60408051608081018252919092015463ffffffff808216808452640100000000830460060b6020850152600160581b83046001600160a01b031694840194909452600160f81b90910460ff16151560608301529092508a1614612fa657612fa3818a8988614119565b90505b8060200151816040015192509250506130bc565b868803600080612fcf8c8c858c8c8c8c6141eb565b91509150816000015163ffffffff168363ffffffff16036130005781602001518260400151945094505050506130bc565b806000015163ffffffff168363ffffffff160361302d5780602001518160400151945094505050506130bc565b60008260000151826000015103905060008360000151850390508063ffffffff168263ffffffff1660060b856020015185602001510360060b81613073576130736154dd565b05028460200151018263ffffffff168263ffffffff1686604001518660400151036001600160a01b031602816130ab576130ab6154dd565b048560400151019650965050505050505b97509795505050505050565b60006401000276a36001600160a01b03831610801590613104575073fffd8963efd1fc6a506488495d951d5263988d266001600160a01b038316105b61313a576040517f4980e1be00000000000000000000000000000000000000000000000000000000815260040160405180910390fd5b77ffffffffffffffffffffffffffffffffffffffff00000000602083901b166001600160801b03811160071b81811c67ffffffffffffffff811160061b90811c63ffffffff811160051b90811c61ffff811160041b90811c60ff8111600390811b91821c600f811160021b90811c918211600190811b92831c979088119617909417909217179091171717608081106131db57607f810383901c91506131e5565b80607f0383901b91505b908002607f81811c60ff83811c9190911c800280831c81831c1c800280841c81841c1c800280851c81851c1c800280861c81861c1c800280871c81871c1c800280881c81881c1c800280891c81891c1c8002808a1c818a1c1c8002808b1c818b1c1c8002808c1c818c1c1c8002808d1c818d1c1c8002808e1c9c81901c9c909c1c80029c8d901c9e9d607f198f0160401b60c09190911c678000000000000000161760c19b909b1c674000000000000000169a909a1760c29990991c672000000000000000169890981760c39790971c671000000000000000169690961760c49590951c670800000000000000169490941760c59390931c670400000000000000169290921760c69190911c670200000000000000161760c79190911c670100000000000000161760c89190911c6680000000000000161760c99190911c6640000000000000161760ca9190911c6620000000000000161760cb9190911c6610000000000000161760cc9190911c6608000000000000161760cd9190911c66040000000000001617693627a301d71055774c8581027ffffffffffffffffffffffffffffffffffd709b7e5480fba5a50fed5e62ffc5568101608090811d906fdb2df09e81959a81455e260799a0632f8301901d600281810b9083900b146133f457886001600160a01b03166133d9826128fd565b6001600160a01b031611156133ee57816133f6565b806133f6565b815b9998505050505050505050565b6000806000898961ffff1661ffff811061341f5761341f61568b565b60408051608081018252919092015463ffffffff808216808452640100000000830460060b6020850152600160581b83046001600160a01b031694840194909452600160f81b90910460ff16151560608301529092508916900361348957888592509250506130bc565b8461ffff168461ffff161180156134aa57506001850361ffff168961ffff16145b156134b7578391506134bb565b8491505b8161ffff168960010161ffff16816134d5576134d56154dd565b0692506134e481898989614119565b8a8461ffff1661ffff81106134fb576134fb61568b565b825191018054602084015160408501516060909501511515600160f81b027effffffffffffffffffffffffffffffffffffffffffffffffffffffffffffff6001600160a01b03909616600160581b02959095166affffffffffffffffffffff66ffffffffffffff909216640100000000026affffffffffffffffffffff1990931663ffffffff909516949094179190911716919091179190911790555097509795505050505050565b604080516001600160a01b038481166024830152604480830185905283518084039091018152606490920183526020820180517bffffffffffffffffffffffffffffffffffffffffffffffffffffffff167fa9059cbb00000000000000000000000000000000000000000000000000000000179052915160009283929087169161362e91906156a1565b6000604051808303816000865af19150503d806000811461366b576040519150601f19603f3d011682016040523d82523d6000602084013e613670565b606091505b509150915081801561369a57508051158061369a57508080602001905181019061369a91906156d0565b6136d0576040517f8b98626500000000000000000000000000000000000000000000000000000000815260040160405180910390fd5b5050505050565b604051306024820152600090819081906001600160a01b037f000000000000000000000000000000000000000000000000000000000000000016906370a0823160e01b906044015b60408051601f198184030181529181526020820180517bffffffffffffffffffffffffffffffffffffffffffffffffffffffff167fffffffff0000000000000000000000000000000000000000000000000000000090941693909317909252905161378a91906156a1565b600060405180830381855afa9150503d80600081146137c5576040519150601f19603f3d011682016040523d82523d6000602084013e6137ca565b606091505b50915091508180156137de57506020815110155b6137e757600080fd5b808060200190518101906137fb91906156ed565b9250505090565b604051306024820152600090819081906001600160a01b037f000000000000000000000000000000000000000000000000000000000000000016906370a0823160e01b9060440161371f565b6000808361ffff161161387457604051636b93000360e11b815260040160405180910390fd5b8261ffff168261ffff161161388a575081612f09565b825b8261ffff168161ffff1610156138d6576001858261ffff1661ffff81106138b5576138b561568b565b01805463ffffffff191663ffffffff9290921691909117905560010161388c565b50909392505050565b80600f81900b81146138f057600080fd5b919050565b6000806000613902612784565b61391484602001518560400151613ce2565b6040805160e0810182526000546001600160a01b0381168252600160a01b810460020b602080840182905261ffff600160b81b8404811685870152600160c81b84048116606080870191909152600160d81b8504909116608086015260ff600160e81b8504811660a0870152600160f01b909404909316151560c0850152885190890151948901519289015193946139b29491939092909190614413565b93508460600151600f0b600014613b4f57846020015160020b816020015160020b1215613a0757613a006139e986602001516128fd565b6139f687604001516128fd565b8760600151614643565b9250613b4f565b846040015160020b816020015160020b1215613b255760045460408201516001600160801b0390911690613a5290426020850151606086015160808701516008949392918791613403565b6000805463ffffffff60b81b1916600160c81b61ffff9384160261ffff60b81b191617600160b81b939092169290920217905581516040870151613aa49190613a9a906128fd565b8860600151614643565b9350613ac2613ab687602001516128fd565b83516060890151614682565b925060008660600151600f0b12613ae7576060860151613ae290826155b5565b613aff565b8560600151613af5906155d5565b613aff90826155fb565b600480546001600160801b0319166001600160801b039290921691909117905550613b4f565b613b4c613b3586602001516128fd565b613b4287604001516128fd565b8760600151614682565b91505b509193909250565b6000613b64848484612e5d565b905060008280613b7657613b766154dd565b8486091115612f09576000198110613b8d57600080fd5b6001019392505050565b60608060008361ffff1611613bbf57604051636b93000360e11b815260040160405180910390fd5b865167ffffffffffffffff811115613bd957613bd9615706565b604051908082528060200260200182016040528015613c02578160200160208202803683370190505b509150865167ffffffffffffffff811115613c1f57613c1f615706565b604051908082528060200260200182016040528015613c48578160200160208202803683370190505b50905060005b8751811015613cd557613c7f8a8a8a8481518110613c6e57613c6e61568b565b60200260200101518a8a8a8a612f10565b848381518110613c9157613c9161568b565b60200260200101848481518110613caa57613caa61568b565b6001600160a01b039093166020938402919091019092019190915260069190910b9052600101613c4e565b5097509795505050505050565b8060020b8260020b12613d21576040517f2fe0284f00000000000000000000000000000000000000000000000000000000815260040160405180910390fd5b620d89e719600283900b1215613d63576040517f9ad612e800000000000000000000000000000000000000000000000000000000815260040160405180910390fd5b613d70620d89e71961552b565b60020b8160020b1315613daf576040517fd7b54ab100000000000000000000000000000000000000000000000000000000815260040160405180910390fd5b5050565b6000808211613dc157600080fd5b600160801b8210613dd457608091821c91015b680100000000000000008210613dec57604091821c91015b6401000000008210613e0057602091821c91015b620100008210613e1257601091821c91015b6101008210613e2357600891821c91015b60108210613e3357600491821c91015b60048210613e4357600291821c91015b600282106138f057600101919050565b6000808211613e6157600080fd5b5060ff6001600160801b03821615613e7c57607f1901613e84565b608082901c91505b67ffffffffffffffff821615613e9d57603f1901613ea5565b604082901c91505b63ffffffff821615613eba57601f1901613ec2565b602082901c91505b61ffff821615613ed557600f1901613edd565b601082901c91505b60ff821615613eef5760071901613ef7565b600882901c91505b600f821615613f095760031901613f11565b600482901c91505b6003821615613f235760011901613f2b565b600282901c91505b60018216156138f05760001901919050565b6000836001600160a01b0316856001600160a01b03161115613f5d579293925b81613f8a57613f85836001600160801b03168686036001600160a01b0316600160601b612e5d565b613fad565b613fad836001600160801b03168686036001600160a01b0316600160601b613b57565b90505b949350505050565b6000836001600160a01b0316856001600160a01b03161115613fd8579293925b7bffffffffffffffffffffffffffffffff000000000000000000000000606084901b166001600160a01b03868603811690871661401457600080fd5b8361404a57866001600160a01b03166140378383896001600160a01b0316612e5d565b81614044576140446154dd565b04614076565b6140766140618383896001600160a01b0316613b57565b886001600160a01b0316808204910615150190565b979650505050505050565b600080856001600160a01b03161161409857600080fd5b6000846001600160801b0316116140ae57600080fd5b816140c057613f8585858560016146b1565b613fad8585856001614797565b600080856001600160a01b0316116140e457600080fd5b6000846001600160801b0316116140fa57600080fd5b8161410c57613f858585856000614797565b613fad85858560006146b1565b604080516080810182526000808252602082018190529181018290526060810191909152600085600001518503905060405180608001604052808663ffffffff1681526020018263ffffffff168660020b0288602001510160060b81526020016000856001600160801b031611614191576001614193565b845b6001600160801b031673ffffffff00000000000000000000000000000000608085901b16816141c4576141c46154dd565b048860400151016001600160a01b0316815260200160011515815250915050949350505050565b604080516080810182526000808252602082018190529181018290526060810191909152604080516080810182526000808252602082018190529181018290526060810191909152888561ffff1661ffff811061424a5761424a61568b565b60408051608081018252919092015463ffffffff8116808352640100000000820460060b6020840152600160581b82046001600160a01b031693830193909352600160f81b900460ff161515606082015292506142a990899089614899565b156142d557815163ffffffff8881169116146130bc57816142cc83898988614119565b915091506130bc565b888361ffff168660010161ffff16816142f0576142f06154dd565b0661ffff1661ffff81106143065761430661568b565b60408051608081018252929091015463ffffffff81168352640100000000810460060b60208401526001600160a01b03600160581b8204169183019190915260ff600160f81b909104161515606082018190529092506143b157604080516080810182528a5463ffffffff81168252640100000000810460060b6020830152600160581b81046001600160a01b031692820192909252600160f81b90910460ff161515606082015291505b6143c088836000015189614899565b6143f6576040517f27e8e87500000000000000000000000000000000000000000000000000000000815260040160405180910390fd5b614403898989888761495c565b9150915097509795505050505050565b604080516bffffffffffffffffffffffff19606088901b1660208083019190915260e887811b603484015286901b60378301528251808303601a018152603a90920183528151918101919091206000908152600790915290812060015460025491925090600080600f87900b156145a5576000805460045442929182916144ca9160089186918591600160a01b820460020b9161ffff600160b81b82048116926001600160801b031691600160c81b900416612f10565b909250905061450460058d8b8d8b8b87898b60007f0000000000000000000000000000000000000000000000000000000000000000614b46565b945061453b60058c8b8d8b8b87898b60017f0000000000000000000000000000000000000000000000000000000000000000614b46565b9350841561456f5761456f60068d7f0000000000000000000000000000000000000000000000000000000000000000614d43565b83156145a1576145a160068c7f0000000000000000000000000000000000000000000000000000000000000000614d43565b5050505b6000806145b760058c8c8b8a8a614dc0565b90925090506145c8878a8484614e67565b600089600f0b12156146345783156146045760028b810b6000908152600560205260408120818155600181018290559182018190556003909101555b82156146345760028a810b6000908152600560205260408120818155600181018290559182018190556003909101555b50505050505095945050505050565b60008082600f0b126146645761465f610bf08585856001613fb8565b613fb0565b614677610bf08585856000036000613fb8565b600003949350505050565b60008082600f0b1261469e5761465f610bf08585856001613f3d565b614677610bf08585856000036000613f3d565b600081156147235760006001600160a01b038411156146e7576146e284600160601b876001600160801b0316612e5d565b6146fe565b6146fe6001600160801b038616606086901b61571c565b905061471b614716826001600160a01b038916615574565b61501f565b915050613fb0565b60006001600160a01b038411156147515761474c84600160601b876001600160801b0316613b57565b61476e565b61476e606085901b6001600160801b038716808204910615150190565b905080866001600160a01b03161161478557600080fd5b6001600160a01b038616039050613fb0565b6000826000036147a8575083613fb0565b7bffffffffffffffffffffffffffffffff000000000000000000000000606085901b16821561484c576001600160a01b038616848102908582816147ee576147ee6154dd565b040361481e5781810182811061481c5761481283896001600160a01b031683613b57565b9350505050613fb0565b505b5061471b81856148376001600160a01b038a168361571c565b6148419190615574565b808204910615150190565b6001600160a01b03861684810290858281614869576148696154dd565b0414801561487657508082115b61487f57600080fd5b808203614812614716846001600160a01b038b1684613b57565b60008363ffffffff168363ffffffff16111580156148c357508363ffffffff168263ffffffff1611155b156148df578163ffffffff168363ffffffff1611159050612f09565b60008463ffffffff168463ffffffff1611614907578363ffffffff166401000000000161490f565b8363ffffffff165b64ffffffffff16905060008563ffffffff168463ffffffff1611614940578363ffffffff1664010000000001614948565b8363ffffffff165b64ffffffffff169091111595945050505050565b60408051608081018252600080825260208201819052918101829052606081019190915260408051608081018252600080825260208201819052918101829052606081019190915260008361ffff168560010161ffff16816149c0576149c06154dd565b0661ffff169050600060018561ffff16830103905060005b506002818301048961ffff871682816149f3576149f36154dd565b0661ffff8110614a0557614a0561568b565b60408051608081018252929091015463ffffffff81168352640100000000810460060b60208401526001600160a01b03600160581b8204169183019190915260ff600160f81b90910416151560608201819052909550614a6a578060010192506149d8565b898661ffff168260010181614a8157614a816154dd565b0661ffff8110614a9357614a9361568b565b60408051608081018252929091015463ffffffff81168352640100000000810460060b60208401526001600160a01b03600160581b8204169183019190915260ff600160f81b90910416151560608201528551909450600090614af8908b908b614899565b9050808015614b115750614b118a8a8760000151614899565b15614b1c5750614b39565b80614b2c57600182039250614b33565b8160010193505b506149d8565b5050509550959350505050565b60028a900b600090815260208c90526040812080546001600160801b031682600f8c900b8113614b7f57614b7a8c836155b5565b614b92565b614b888c6155d5565b614b9290836155fb565b9050846001600160801b0316816001600160801b03161115614be0576040517f68d2be8f00000000000000000000000000000000000000000000000000000000815260040160405180910390fd5b6001600160801b0381811615908316801591909114159450600003614cc7578c60020b8e60020b13614c9757600183018b9055600283018a905560038301805466ffffffffffffff8a167fff000000000000000000000000000000000000000000000000000000000000009091166701000000000000006001600160a01b038d16027fff00000000ffffffffffffffffffffffffffffffffffffffff00000000000000161717600160d81b63ffffffff8a16021790555b6003830180547effffffffffffffffffffffffffffffffffffffffffffffffffffffffffffff16600160f81b1790555b82546001600160801b0319166001600160801b03821617835585614d01578254614cfc908d90600160801b9004600f0b615730565b614d18565b8254614d18908d90600160801b9004600f0b61576f565b83546001600160801b03918216600160801b0291161790925550909c9b505050505050505050505050565b8060020b8260020b81614d5857614d586154dd565b0760020b15614d6657600080fd5b600080614d948360020b8560020b81614d8157614d816154dd565b0560020b600881901d9161010090910790565b600191820b60009081526020979097526040909620805460ff9097169190911b90951890945550505050565b600285810b60008181526020899052604080822088850b83529082209193849391929184918291908a900b12614e0157505060018201546002830154614e14565b8360010154880391508360020154870390505b6000808b60020b8b60020b1215614e3657505060018301546002840154614e49565b84600101548a0391508460020154890390505b92909803979097039b96909503949094039850939650505050505050565b6040805160a08101825285546001600160801b0390811682526001870154602083015260028701549282019290925260038601548083166060830152600160801b900490911660808201526000600f85900b8103614f085781516001600160801b0316614f00576040517f5557f93200000000000000000000000000000000000000000000000000000000815260040160405180910390fd5b508051614f3d565b600085600f0b12614f25578151614f209086906155b5565b614f3a565b614f2e856155d5565b8251614f3a91906155fb565b90505b600080614f628460200151870385600001516001600160801b0316600160801b612e5d565b9150614f868460400151860385600001516001600160801b0316600160801b612e5d565b905086600f0b600014614fad5787546001600160801b0319166001600160801b0384161788555b60018801869055600288018590556001600160801b038216151580614fdb57506000816001600160801b0316115b1561501557600388018054600160801b6001600160801b03808316860181166001600160801b031990931683178290048116850116021790555b5050505050505050565b806001600160a01b03811681146138f057600080fd5b6001600160a01b038116811461504a57600080fd5b50565b801515811461504a57600080fd5b60008083601f84011261506d57600080fd5b50813567ffffffffffffffff81111561508557600080fd5b6020830191508360208285010111156122c757600080fd5b60008060008060008060a087890312156150b657600080fd5b86356150c181615035565b955060208701356150d18161504d565b94506040870135935060608701356150e881615035565b9250608087013567ffffffffffffffff81111561510457600080fd5b61511089828a0161505b565b979a9699509497509295939492505050565b60006020828403121561513457600080fd5b5035919050565b60006020828403121561514d57600080fd5b813561ffff81168114612f0957600080fd5b8035600281900b81146138f057600080fd5b80356001600160801b03811681146138f057600080fd5b60008060008060008060a087890312156151a157600080fd5b86356151ac81615035565b95506151ba6020880161515f565b94506151c86040880161515f565b93506150e860608801615171565b6000806000806000608086880312156151ee57600080fd5b85356151f981615035565b94506020860135935060408601359250606086013567ffffffffffffffff81111561522357600080fd5b61522f8882890161505b565b969995985093965092949392505050565b600080600080600060a0868803121561525857600080fd5b853561526381615035565b94506152716020870161515f565b935061527f6040870161515f565b925061528d60608701615171565b915061529b60808701615171565b90509295509295909350565b6000602082840312156152b957600080fd5b81358060010b8114612f0957600080fd5b803560ff811681146138f057600080fd5b600080604083850312156152ee57600080fd5b6152f7836152ca565b9150615305602084016152ca565b90509250929050565b60008060006060848603121561532357600080fd5b833561532e81615035565b925061533c60208501615171565b915061534a60408501615171565b90509250925092565b6000806020838503121561536657600080fd5b823567ffffffffffffffff8082111561537e57600080fd5b818501915085601f83011261539257600080fd5b8135818111156153a157600080fd5b8660208260051b85010111156153b657600080fd5b60209290920196919550909350505050565b604080825283519082018190526000906020906060840190828701845b8281101561540457815160060b845292840192908401906001016153e5565b5050508381038285015284518082528583019183019060005b818110156154425783516001600160a01b03168352928401929184019160010161541d565b5090979650505050505050565b60008060006060848603121561546457600080fd5b61546d8461515f565b925061533c6020850161515f565b6000806040838503121561548e57600080fd5b6154978361515f565b91506153056020840161515f565b6000602082840312156154b757600080fd5b612f098261515f565b6000602082840312156154d257600080fd5b8135612f0981615035565b634e487b7160e01b600052601260045260246000fd5b600060ff831680615506576155066154dd565b8060ff84160691505092915050565b634e487b7160e01b600052601160045260246000fd5b60008160020b627fffff19810361554457615544615515565b60000392915050565b818103600083128015838313168383128216171561556d5761556d615515565b5092915050565b8082018082111561558757615587615515565b92915050565b80820182811260008312801582168215821617156155ad576155ad615515565b505092915050565b6001600160801b0381811683821601908082111561556d5761556d615515565b600081600f0b6f7fffffffffffffffffffffffffffffff19810361554457615544615515565b6001600160801b0382811682821603908082111561556d5761556d615515565b81835281816020850137506000828201602090810191909152601f909101601f19169091010190565b84815283602082015260606040820152600061566460608301848661561b565b9695505050505050565b60006020828403121561568057600080fd5b8151612f0981615035565b634e487b7160e01b600052603260045260246000fd5b6000825160005b818110156156c257602081860181015185830152016156a8565b506000920191825250919050565b6000602082840312156156e257600080fd5b8151612f098161504d565b6000602082840312156156ff57600080fd5b5051919050565b634e487b7160e01b600052604160045260246000fd5b60008261572b5761572b6154dd565b500490565b600f81810b9083900b016f7fffffffffffffffffffffffffffffff81136f7fffffffffffffffffffffffffffffff198212171561558757615587615515565b600f82810b9082900b036f7fffffffffffffffffffffffffffffff1981126f7fffffffffffffffffffffffffffffff821317156155875761558761551556fea2646970667358221220b32758e01be12df7ba7f104ac60ca0dab012fa9d7e2f03194f6c1d8d05a4af6564736f6c63430008170033","linkReferences":{}},"methodIdentifiers":{"burn(int24,int24,uint128)":"a34123a7","collect(address,int24,int24,uint128,uint128)":"4f1eb3d8","collectProtocol(address,uint128,uint128)":"85b66729","factory()":"c45a0155","fee()":"ddca3f43","feeGrowthGlobal0X128()":"f3058399","feeGrowthGlobal1X128()":"46141319","flash(address,uint256,uint256,bytes)":"490e6cbc","increaseObservationCardinalityNext(uint16)":"32148f67","initialize(uint160)":"f637731d","liquidity()":"1a686502","maxLiquidityPerTick()":"70cf754a","mint(address,int24,int24,uint128,bytes)":"3c8a7d8d","observations(uint256)":"252c09d7","observe(uint32[])":"883bdbfd","positions(bytes32)":"514ea4bf","protocolFees()":"1ad8b03b","setFeeProtocol(uint8,uint8)":"8206a4d1","slot0()":"3850c7bd","snapshotCumulativesInside(int24,int24)":"a38807f2","swap(address,bool,int256,uint160,bytes)":"128acb08","tickBitmap(int16)":"5339c296","tickSpacing()":"d0c93a7c","ticks(int24)":"f30dba93","token0()":"0dfe1681","token1()":"d21220a7"},"id":37}